:400000000080002011000000C1020000C102000008B5054B1A6803F53F5302331A6000F0C5FA00F055F900BFFA46004010B5054C237833B9044B13B10448AFF30080012353
:40004000237010BD4881FF1F000000004C160000084B10B51BB108490848AFF300800848036803B910BD074B002BFBD0BDE81040184700BF000000004C81FF1F4C16000044
:40008000C880FF1F0000000008B500F057FDFEE7FEE700BFF0B40022174611E050F82760F3B226F0FF0608E001EB420511F812406D78A5550132013BDBB2002BF4D1013734
:4000C000162FEBD9F0BC7047064B1B78DBB203F00701054A11701B09013213704422034B1A707047CF0100496E5800407658004008B50A46002101F09CFA08BD08B501F034
:400100008DFA08BD08B501F089FA08BD38B53322244B1A80182202331A70022203F27E231A7008224FF040231A70032103F5007319701D4B1B78DBB21C490B701C4B1A801E
:4001400041F25122023B1A80002419250CE0194B1B7803F0010343EA440404F003044FF4F07000F0B1FF013D0DB1032CEFD115B90320FFF78DFF104B4FF480721A80072262
:400180001A7000220D490A704820023108701A700222033B1A700A4A137843F00103137038BD00BF8040004008010049A1460040224200402542004004400040064000401F
:4001C000A243004038B572B600240CE0324D630019194A0011462A44084691882858FFF787FF0134E4B2092CF0D900240CE02A48A20011194B000344B3F84420196CD86BAF
:40020000FFF77CFF0134E4B2012CF0D9224C04F1500104F56370FFF73DFF204A137843F0020313701032137843F0020313701C4D2B7843F040032B70A2F58632513A137820
:4002400043F010031370082204F57A711548FFF755FF082204F57C711348FFF74FFF0A2204F57E711148FFF749FF114A137843F0080313700F4C61232370FFF747FF8123AD
:40028000237001220C4B1A70FFF71EFF0E2229460A48FFF737FF38BD5016000003500140A0430040C25100401251004030510040224300400048004004000840B043004002
:4002C00008B501F07FF903680C2B00D1FEE7FEE708B5104E104D16E029686B68AC68002204E051F8040B43F8040B0432A242F8D1E868002203E0002143F8041B0432824260
:40030000F9D11035013E002EE6D101F061F9FFF7BBFEFEE7010000000C1B000008B5104A104B1A60104A136843F40073136000230AE0032B03D80D4A52F8231000E00C4986
:400340000C4A42F8231001332F2BF2D90A4B1A780A4B1A70074A0A4B1A60FFF733FF08BD0004FA050CED00E014ED00E000000000C10200000080FF1FBC760040C080FF1FA0
:4003800008ED00E0002306E0421812F8012C13449BB2013989B20029F6D1584280B27047004700BF08B58022024B1A7000F00EFD08BD00BFFA4600402DE9F04182B00C463C
:4003C000164602AF27F8022D01230B7048701546A270130ACB7002F104081FFA88F12046FFF7D0FF04F80800731DC0F30720E054063517236355F11D96233A4689B2204613
:4004000000F07EFE02B0BDE8F08100BF70B505460E461446084B984203D010B1002000F0D3FC002004E0013CAB19E35C1844C0B2002CF8D170BD00BF0080004070B5C0B0C3
:40044000C0F30745C0F3072620F0FF04002304E01A5D0DF8032001339BB2FF2BF8D9C3B21DF803208A4208D00DF803106A463146284600F075FC00F0D1FC40B070BD00BF70
:4004800008B501380B2873D8DFE800F0060F18212A33453C4E576069C1EB01610B0203F57F3303F57073012167E0C1EB01610B0203F57F3303F2C13304215EE0C1EB01614F
:4004C0000B0203F57F3303F2C533022155E0C1EB01610B0203F57F3303F2C93304214CE0C1EB01610B0203F57F3303F57473012143E0C1EB01610B0203F57F3303F2D13352
:4005000001213AE0C1EB01610B0203F57F3303F2D633022131E0C1EB01610B0203F57F3303F2D233022128E0C1EB01610B0203F57F3303F5757302211FE0C1EB01610B02BC
:4005400003F57F3303F57673042116E0C1EB01610B0203F57F3303F5777301210DE0C1EB01610B0203F57F3303F57873042104E0002000F029FC02210023012902D1187866
:40058000C0B200E00020022903D11A78587842EA0020042909D11A78587842EA0022987842EA0042D87842EA006008BD08B50A4B1B7803F0C003802B0CD10021064B197068
:4005C0000220FFF75DFF28B100210220FFF758FFFFF7E6FE08BD00BFFA460040F8B5054601460320FFF74CFF0130070229460420FFF746FF074429460620FFF741FF012856
:400600003FD029460320FFF73BFF013000020024264608E003785A1ED2B2FD2A00D801262344DCB20130B842F4D329460320FFF727FF01300002C008154B9F4201D0FF08F8
:4006400008E04FF4004705E000F190431B782344DCB20130B842F7D36442E4B229460120FFF70EFF84420ED17EB1C5EB05652802012100F57F3000F2D130FFF7DFFE00204F
:40068000F8BD0020F8BD0620F8BD0620F8BD00BFC0FF03002DE9F04FADF5657D054600F023FD62B64FF000094F46CDF804900A24C8460DB9FF2300E02B460DF28E324FF480
:4006C000967198A800F02EFD0DB1013CE4B20CB10028EED1002840F02782BDF88E33062B26D99DF86022012A24D19DF863829DF8622242EA0828414608F107029A421BD83E
:40070000B2F5967F1AD84A1D98AB9E5C0A1D9A5C42EA062606315B5C172B11D108F1040189B298A8FFF72EFE86420BD100260AE0042608E0042606E0032604E0032602E057
:40074000042600E00826002E40F09A819DF864A29DF86122A2F131030A2B00F26981DFE813F00B001C0067014400C2006701C800DD004400EF005901002F00F08381B8F178
:40078000000F40F082810020FFF728FFB0FA80F040098DF864020122BFE1002F00F07881B8F1010F40F07781BAF1030F00F27681C04B1B681B68C3F30742924502D1C3F39A
:4007C000072305E0924501D9002301E04FF480738DF864321B0A8DF86532FF238DF8663200238DF86732042297E1342A15D1002F00F05781B8F1030F40F05681AAF14003AA
:40080000DBB23F2B02D84FF0100901E04FF490794A4600214DA800F00CFF002F00F04781B8F1020F40F25081A8F103020DF267214DAB03EB090000F0F1FE08EB09039BB2DE
:40084000033B1FFA83F9AAF14003DBB23F2B05D800F090FA80234FF0100803E04FF480734FF49078C84540F032819DF866929DF8652242EA09294B4500D80A26002E40F02E
:400880002B81BAF13F0F20D809EB0A2292B2894B1B681968C1F30F2311F0FF0F01D001339BB2934200F21A81019B73B94FF4907B5A46002105A800F0BCFE5B4605AAFF2118
:4008C000032000F0D1F90123019343464DAA4946504600F0C9F900B10A2600F09FFA4FF000094A4619E1002F40F01C810426002213E1002F00F0F78008EB0903B3F5967F42
:4009000000F2F480424699A94DAB03EB090000F085FEC1441FFA89F90022FEE0B8F1000F40F0E78005AB644A92E8030083E8030099AA82E803004FF0000901270822ECE0D7
:40094000002F00F0D980B8F1030F40F0D8809DF866B29DF8653243EA0B2BAAF14003DBB23F2B12D800F006FA4FEA0B11BBF17F0F01D8334600E00A23002B40F0C380102213
:400980004E48FFF743FD009011E00BEB0A210902BBF1FF0F01D8334600E00A23002B40F0B4804FF480720020FFF730FD0090BAF13F0F0FD80AF510320BEB0222520100235D
:4009C00006E0995C00980144C9B2009101339BB21F2BF6D9BAF1030F16D1BBF1FF0F13D100210520FFF74CFDC0B2009BC0EB030A5FFA8AFA00210620FFF742FDC0B2C0EB97
:400A00000A0A5FFA8AF30093009B5B428DF86432012282E00020FFF7E1FD10B98022284B1A7000F069FB00F0D1F90426002274E0244B1B68002B6BD0002F6CD08DF80C20E3
:400A4000ADF80E8099AA0492002105910691079205A903A89847BDF81820B2F5937F03D3079999AB994205D0079B03B92AB99DF8146052E00E2600224FE00E2600224CE0B8
:400A800000224AE00426002247E00426002244E00426002241E0042600223EE0042600223BE00426002238E00426002235E00426002232E0CC80FF1FDC1A00000080004086
:400AC000FA4600406481FF1F0426002225E04FF0000903264A4620E000221EE04FF000090A264A4619E00426002216E00326002213E00426002210E0042600220DE00426E1
:400B000000220AE01E46002207E01E46002204E00526002201E00526002298A93046FFF74BFC01E04FF00009002D3FF4C2AD002F7FF4BFAD0DF5657DBDE8F08F38B500F078
:400B400089F810B1002000F03FF90020FFF746FD08B1062400E00024114D2B681A6800210846FFF753FC6B681B78C01AC0B24042C0B2834202D12B681B6813B9002000F054
:400B800023F9084B1B7803F0C003402B00D024B10020044B1870FFF77DFDFFF703FC38BDCC80FF1FFA46004010B500F085F900F033FA10BB012000F011FA072818D10221C0
:400BC0000F4800F08BF902280AD102E0012000F01BF90C4B1B7813F0020FF7D0002409E0084B1B7813F0020FE9D04FF0FF3401E04FF0FF3400F036FA00E00424204610BD79
:400C00007C81FF1F2247004010B500F055F900F003FAD0B900F042FA0446072812D102E0012000F0F1F80A4B1B7813F0020FF7D0074B1B7813F0020F04D0054B1B789B08FD
:400C400000D1002400F00EFA00E00424204610BD2247004008B5FFF7D7FF034610B9FFF7A3FF0346184608BD2DE9F041441FE4B23A2C01D9002500E0012510F0800F00D0FA
:400C80000125412800D901253F2803D8B1F5807F06D808E0802900D90125102B02D102E0012500E0012502B90125002D50D1984616460F46044600F0AFF9002847D14346CC
:400CC00032463946204600F023F9064607283AD102E0012000F098F81F4B1B7813F0020FF7D01D4B1B7813F0020F06D01A4B1B789B0805D04FF0FF3603E04FF0FF3600E0AA
:400D00002E4606BB154A537812783946204600F03FF9072804D0064615E0012000F074F80D4B1B7813F0020FF7D00B4B1B7813F0020F06D0084B1B789B0804D04FF0FF3692
:400D400001E04FF0FF3600F08DF9354600E004252846BDE8F08100BF224700407C81FF1F08B53F2801D9102301E04FF48073FFF77BFF08BD08B500F0AFF90F4A137843F034
:400D8000080313701032137843F008031370C8220A4B1A700A4A137843F0100313701032137843F010031370064B1B7813F0200FFAD000F095F908BDA04300400147004042
:400DC000AC4300400047004001BE7047024A137843F0010313707047F646004010B5044605E0084B186800F06FF9A4F50044B4F5004FF6D8034B586800FB04F000F064F9F7
:400E000010BD00BFD480FF1F08B5034B1B7A00FB03F000F059F908BDD480FF1F08B500F05BF900BF00BF00BF00BF00BF00BF00BF00BF00BF00BF00BF00BF00BF00BF00BF7B
:400E400000BF064A13889BB243F0040313801388BFF36F8F00F044F908BD00BF0048004070B504460E46074B1D681F2802D90020FFF7AAFF04F01F04103455F8240045F8A6
:400E8000246070BD08ED00E038B504460D46072902D90020FFF798FF1F2C02D90020FFF793FF04F01F0000F1604000F564406D01EDB2057038BD00BF08B500F00DF9064A26
:400EC000137843F0080313701032137843F00803137000F005F908BDA043004070B506460D4600240CE00120FFF78EFF064B1B7813F0010FF7D0054B1B7833550134E4B2D6
:400F0000AC42F3D3204670BD224700402047004070B41D4C247814F0020F2CD01B4CB6252570D5252570022525700234247814F0020F22D1154C2070002404E0165D134D18
:400F40002E700134A4B29C42F8D3B3F5807F16D13F2816D800F5103001EB00214801002305E01A5CD2B209490A7001339BB21F2BF7D9072006E0042004E0092002E0072081
:400F800000E0072070BC7047224700402047004030B4104C247814F0020F15D00E4CB6252570D8252570052525700234247814F0020F0BD1084C2070080A2070C9B22170B1
:400FC00022702370072002E0042000E0092030BC704700BF22470040204700400C4B1B7813F0020F0FD00B4BB6221A70E1221A700E221A7002331B7813F0020F05D1054B06
:40100000187007207047042070470920704700BF224700402047004010B500F05DF80F4B1B78A3B901220D4B1A700D4B1B6813F0010F0ED00A4A136823F00103136000BF44
:4010400000BF00BF0122054B5A60002402E0042400E0002400F044F8204610BD6881FF1F0400084008B500F037F80A4B00221A705B68012B0AD1084A136843F001031360C3
:4010800000BF00BF00BF0022024B5A6000F028F808BD00BF6881FF1F04000840074B1B7813F0020F08D0064BB6221A70E0221A700D221A70072070470420704722470040B8
:4010C00020470040000000000230800803D000BF01380046FCD17047EFF3108072B6704780F31088704700BF08B500F0C7F800F05BF900F0B3F908BD08B500F0CDF808BDE0
:40110000F8B506460D46174600F04EF9002404E0305D00F06BF90134A4B2AC42F8D33D800020F8BD2DE9F0470746894690461D46002414E000F008F960B100F005F904461C
:401140001920FFF74BFE00F0FFF88442F5D34FF0000A0BE00120FFF741FE0134A4B205EB850253009C42E5DB4FF0050A0025A8F8005022E000F0E8F886B2B8F80020B318FD
:401180009BB2A8F800304B4508D313E000F0AAF878550135ADB20134A4B200E00024B442F4D37B1913F8013C172B06D00520FFF715FE02E0A8F8002003E000F0C5F80028F8
:4011C000D8D15046BDE8F08708B512490020FFF747FE07210020FFF757FE00220E4B1A7069220E4B1A702022A3F580731A700C490120FFF735FE07210120FFF745FE06227B
:40120000084B1A70472210331A70022203F253131A7008BD9D1400007081FF1F89650040351500002864004010B5FFF755FF04460E4A137843F020031370A2F580721378A0
:4012400043F0100313700A4A0123136009490B7843F010030B70022307490B60136000F095F92046FFF73CFF10BD00BF9965004000E100E09B65004080E200E008B5054BA2
:401280005B7823B9FFF7A0FF0122024B5A70FFF7CBFF08BD7081FF1F10B5FFF71DFF04460C4A137803F0DF03137000F07DF90A4A137803F0EF031370084A012313600849DB
:4012C0000B7803F0EF030B70022313602046FFF707FF10BD996500409964004080E100E09B6500400122134B1A60134A9378DBB2D178C9B2127912F0FF0F01D18B4211D079
:401300000E4AD05CC0B20133DBB23F2B00D90023094A9370137913F0FF0F06D00022064B1A7102E0064B1878C0B20122054B1A60704700BF80E100E07081FF1F8081FF1FC2
:401340004A65004000E100E00122144B1A60144B9A78D2B2DB78DBB29A4206D1104B1B7913F0FF0F15D0402014E00D4B9A78D2B2DB78DBB29A4205D2094AD3789078181AA7
:40138000C0B207E0064AD3789078181A4030C0B200E000200122034B1A60704780E100E07081FF1F00E100E008B5FFF795FE0B4B1A7842F001021A701A7802F0FE021A706F
:4013C000FFF78EFE0121064B1960064B00229A70DA701A715A71044B196008BD9A65004080E100E07081FF1F00E100E0164BD9799B79DBB2994205D25A1E914214BF00223F
:40140000012204E0CA1A3F2A14BF00220122002AECD1994207D10D4B1B7813F0040F02D10B4B187070473F2900D90021094B58540131054BD971054B1B7813F0020F02D046
:401440000222054B1A6070477081FF1F6B65004048650040C081FF1F00E200E008B5FFF73BFE0A4B1A7842F001021A701A7802F0FE021A70FFF734FE0223054A1360054A9C
:4014800000219171D171044A136008BD9865004080E100E07081FF1F00E100E01D4B1B78DBB213F01E0F05D01B4803F01E0201780A43027003F0200303F0FF0233B3174B66
:4014C0001978C9B2164B1B78DBB21648C154164B1B7813F0FF0F02D00121144B197010490B780133DBB20B700B78DBB23F2B02D900210B4B19700A4B1978C9B20C4B1B7853
:40150000DBB2994202D10121074B1970002AC5D1704700BF696400407081FF1F4A6500407381FF1F8081FF1F7481FF1F7581FF1F7281FF1F13E0104B1B78DBB23F2B02D916
:4015400000220D4B1A700C4A1378DBB20B49CB5CDBB20B490B7013780133DBB21370064B1B78DBB2074A1278934204D0064B1B7813F0040FDFD070477681FF1FC081FF1F8A
:40158000486500407781FF1F6B650040054A137843F0010313701032137843F001031370704700BFA2430040054A137803F0FE0313701032137803F0FE031370704700BF57
:4015C000A2430040014B1868704700BF4481FF1F0E4B70B51E460E4C0025E41AA410A54204D056F8253098470135F8E700F07CFA084B094C1E46E41AA4100025A54204D038
:4016000056F8253098470135F8E770BDF41A0000F41A0000F41A0000FC1A000010B5431E0A44914204D011F8014B03F8014FF8E710BD03460244934202D003F8011BFAE711
:4016400070470000001C00005000000000000000005100401000205100401000405100403000F05100401000000001400010001401400006801A0140800100400140000AC0
:40168000004C0140000200500140200060520040541A00000600001A01405C1A000080000914893A89698B0FE60203010461060E071809480A400B860E0811801365142CB8
:4016C00015E61643171119601B8B1E43206121A02206260C28102D802F023020320F3307341035F8364038023A083B083E504003474049FF4A074BFF4C404D204EF04F0505
:401700005008580459045A045F01604061A8624063208320850387048A028B088D038E028F0C9001950A9704980199039B04A310A710A801AF05B001B10FB320B510B60255
:40174000BB02BE40BF10D41AD604D804D904DB04DF0100A005800605071008800A450E200F0211101502161819401B021D241E211F0120402105220223042404271029016C
:401780002B212D802E023104331035043602371038523A143C143E083F0245084F02560159025A206140634485208740C0E3C2AAC472CA9BCCE6CEEFD040D605D80DE008D2
:4017C000B980BF40D904DF012680A680B280EA0801020B011001140419011E02200628062D01320633033401380839083E1440454102460E47BC483449FF4AFF4BFF4EF0E6
:401800004F44500C580459045A045F0166C06A406B0284038508860C89088D088E0E900291089208953D960F9702980299239A049B1C9D1E9F01A127A318A501A716A80C28
:40184000A926AA03AB19AC03AE0CAF1FB320B401B508B60EB71FB820BA80BB80BF04D602D712D804D904DB04DF01000403020520060408280A800E300F821209150216C000
:40188000171019801BA01D081E082254241028282A012B8A2E8031143249371038A83E103F02464047104E02560657405A0869106A46705C79017A027B41910A9412951055
:4018C0009664978098809B109D039E06A210A303A450A508A720AF40B701C005C2BEC453CA1FCC2FCEAED0A0D210D602840188018C019601A201AE02B203BA08D401D604D8
:40190000D804DB04DF0100440380059408120A120E1010481140121015801640180419161E101F0820802142281229042A402B8A30483110324138E239083A1040264102FF
:40194000481049815C805D215E0867806A4082408C218D4090A09109928294069780988099A09C209D17A008A204A382A450A708C0EDC22FC49FCA0FCC0FCE0FD00FD20807
:40198000D6F0D880E004E88030103580CC309C109D809C109D8084109C109D80E6408620AD80EA105840620199089A20B508D401D802E80212807220750882018E8099086B
:4019C0009A209E01B040C408DC01DE04E202E80100010C0110011C01000F0000015200400164004002650040010701405408014037090140041401400315014001170140AA
:401A00004D180140411901400D1A0140411B0140034001400241014002420140044301400147014002480140084C01400E4D014004500140015101404090900090000000EE
:401A400010140400140000000000000101000000000000001090000040000000CF083042C3003C0800100000082000000020F3000C30F3003D0FC0F008000084023F20C0D5
:401A800004F800010C3900C6430010C740318C003F0000FF00002800000000402105040003EC000003FFFFFF62A0F0410C00000000000000040404040000000100000000F8
:401AC000000040020010301000101012000000000000000000000000000000006910162E003C010143000000F8B500BFF8BC08BC9E467047510000001D030000F8B500BF88
:401B0000F8BC08BC9E4670472D000000201B0000C880FF1F80000000B8000000000000000000000044160000481600000000E02EC05D00001800000000366E0100000000EC
:401B400000000000000000000000000000000000000000000000000000000000E41A0000000000000000000000000000000000000000000000000000000000000000000067
:401B800000000000000000000000000000000000000000000000000000000000E480FF1F0000000000000000000000000000000000000000000000000000000000000000A3
:401BC00000000000000000000000000000000000000000000000000000000000000000000000000000000000000000000000000000000000000000000000000000000000E5
:401C000000000000000000000000000000000000000000000000000000000000000000000000000000000000000000000000000000000000000000000000000000000000A4
:401C40000000000000000000000000000000000000000000000000000000000000000000000000000000000000000000000000000000000000000000000000000000000064
:401C80000000000000000000000000000000000000000000000000000000000000000000000000000000000000000000000000000000000000000000000000000000000024
:020000040003F7
:40FFC00000000000000000000000000000000000000000000100010000000000000000000000000000000000000000000000000000000000000000000000000000000000FF
:0200000480007A
:4000000000000000000000000000000000000000000000000000000000000000000000000000000000000000000000000000000000000000000000000000000000000000C0
:400040000000000000000000000000000000000000000000000000000000000000000000000000000000000000000000000000000000000000000000000000000000000080
:400080000000000000000000000000000000000000000000000000000000000000000000000000000000000000000000000000000000000000000000000000000000000040
:4000C0000000000000000000000000000000000000000000000000000000000000000000000000000000000000000000000000000000000000000000000000000000000000
:0200000490006A
:040000008C00400729
:0200000490105A
:04000000BC90ACAF55
:0200000490303A
:02000000A0025C
:0200000490402A
:4000000000000000000000000000000000000000000000000000000000000000000000000000000000000000000000000000000000000000000000000000000000000000C0
:400040000000000000000000000000000000000000000000000000000000000000000000000000000000000000000000000000000000000000000000000000000000000080
:400080000000000000000000000000000000000000000000000000000000000000000000000000000000000000000000000000000000000000000000000000000000000040
:4000C0000000000000000000000000000000000000000000000000000000000000000000000000000000000000000000000000000000000000000000000000000000000000
:0200000490501A
:0C00000000012E16106900012E1FB06BCD
:00000001FF