:400000000080002011000000A9020000A9020000044A08B51268044B1A6000F0ADF900F04BF900BFFA460040BC76004010B5054C237833B9044B13B10448AFF300800123AE
:40004000237010BD4881FF1F000000001C170000084B10B51BB108490848AFF300800848036803B910BD074B002BFBD0BDE81040184700BF000000004C81FF1F1C170000A2
:40008000C880FF1F0000000008B500F077FDFEE7F8B572B66D4E0024354604EB4403AA8856F813000134002101F02CFB0A2C05F10605F2D1664E674B96E803008022186073
:4000C0009980654806F1080101F0F6FA06F1840706F1E00E0025E43657F8043F13F0FF0C23F0FF0414D00CF1FF3C5FFA8CFC05EB0C0006EB400006EB45030330013313F828
:40010000012C13F8021B98421155F8D1013565447745E1D1514C41F251262278504F42F0020222703A784F4D42F002023A702A78A4F5863442F040022A70413C2278A7F5E8
:400140007E4742F01002484B2270513F04F66E5403CB3860796003CBC5F8720DC5F8761D93E8070003C4414922800B7805F58C6543F008030B703E4C3E4861232B70A7F604
:40018000C2673D4A332118250223218005704FF040243B7008210320384B217010701A783748384BD2B287F8A123A4F8221206801C784FF4F07004F001041E4600F0D0FF91
:4001C00001E0032C0DD033784FF4F07003F0010343EA440400F0C4FF013D04F00304F0D1FEE7294B294D2A4F2A484FF4807407221C8000211A704826274A022439702E70FE
:4002000019700470137800F5F820033043F00103812601242149137085F8F86704700B78A0F5F420DBB21E49A0F2967005F5C35503F007071B4C1B090770023A0B700E35EF
:4002400044260FCA2E7007C42380F8BD201700005C17000060520040001A01400350014013500140A04300407C1B0000224300408040004082400040004200400801004916
:40028000204200402542004004400040084000400640004001400040A2430040CF0100496F580040B043004008B501F0D9F903680C2B00D0FEE7FEE780B5134FF7B1134E0E
:4002C000002556F80C0C56F8084C56F8102C03463CB1043A52F8041F43F8041B191AA142F8D156F8040C1A4620B142F8045BD11A8842FAD1013F06F11006E2D101F0B6F9E5
:40030000FFF7C2FEFEE700BF01000000D81B00000E4B0F4A0F491A600B680F4A43F400730E480B600023032B94BF50F823100C490133302B42F8041FF5D10A4B0A49187856
:400340000A4A0B4B08701A60FFF7A2BE0CED00E00004FA0514ED00E0FC7FFF1F00000000A9020000BC760040C080FF1F0080FF1F08ED00E0004700BF134A137803F0C003A3
:40038000802B00D0704770B400231048104E114D1370017833782A780F4C120442EA032322780B4353EA026301D170BC7047017833782A782078120442EA03230B4343EA24
:4003C000006070BCFFF7D6BFFA460040C1FF0300C2FF0300C3FF0300C4FF0300F0B50002C0F57F3090F8C5E390F8C67390F8C92390F8CAC390F8CB1390F8CC3390F8D15336
:40040000C1B0012D69D0DBB21D06C9B290F8C53390F8C663FFB245EA01415FFA8EFED2B25FFA8CFC0A434EEA072E43EA062642EA0C220EF10107013602EB072736020022FC
:40044000B74200F2D13415460AD916F8013B591EC9B2FD29134498BF0125B742DAB2F4D190F8C53390F8C6131D4E43EA0121B7424FEA411101F1200114BFFF084FF4004738
:400480008F4209D901F1904107F1904711F8013B1344B942DAB2F9D1534290F8C023DBB2934202D0062041B0F0BD002DFAD068464FF4807224F0FF0101F009F99DF8D1309B
:4004C000012B0AD00123C4F307216A4603208DF8D13000F0E1FB00F005FD002041B0F0BDC0FF0300013810B40B2863D8DFE800F017202632383E444A50565C060902C1F5DE
:400500007F3101F578710A784C788B78C8781B0443EA0423134343EA006010BC70470902C1F57F3101F57071087810BCC0B270470902C1F57F3101F2C131E4E70902C1F52B
:400540007F3101F2C5314A1C0B78107810BC43EA002070470902C1F57F3101F2C931D2E70902C1F57F3101F57471DDE70902C1F57F3101F2D131D7E70902C1F57F3101F2F2
:40058000D231E0E70902C1F57F3101F2D631DAE70902C1F57F3101F57571D4E70902C1F57F3101F57671AEE70902C1F57F3101F57771B9E701220021C6E700BF2DE98048DD
:4005C000ADF5677D00F0DCFD62B600239B461E4601930DF23F1451AF0DF245190DF5A3780293FF2305AA4FF4967150A800F0E8FD0028F6D1BDF81420062A03D99DF8405145
:40060000012D2CD04FF0040A0025284604210123ADF816008DF841A18DF842518DF843618DF840310023625C0139134489B29BB20029F8D15B429BB25FFA83FE1A0AC11D5C
:40064000172507F800E089B209F80020962308F800500DF1160250A800F09EFDC1E7BDF84231D91D914200F2E680B1F5967F00F2E28050AA1A449279172AC3D1191D89B2B8
:40068000002900F04A82625C0139104489B280B20029F8D1404280B250AAD11891F805E00A7942EA0E22824202D04FF0080AABE79DF841119DF844A1A1F131020A2A00F201
:4006C000AD80DFE802F04788AB5A41AB311F5A1606000020FFF782FE10B9BD4A8023137000F058FD002500F0C9FB04218A4628468DE7BBF1000F40F0BB80042100258A46CD
:40070000284684E7002BF8D1B24A082592E8030008AA82E8030087E8030001939A4628460C214FF0010B72E7BBF1000FE5D0019A03EB020EBEF5967F40F3108100252846DA
:4007400004214FF0030A62E7BBF1000FD5D00023019346E7BBF1000FCFD0002BCDD118460393FFF73BFEB0FA80F0039B40098DF844019A460521584649E734295ED0BBF15F
:40078000000FBAD0022BB8D9AAF1400B019D5FFA8BFB033B9BAA50190DF247111A46039300F08AFF019BBBF13F0F1A46039B1A4495B240F207814FF480734FF49072954288
:4007C00000F0F38000250195284604214FF0010B4FF0030A1BE7BBF1000F8ED0012B8CD1BAF1030F89D87C4B1B681B68C3F30742924500F09E8194BF012200220023FF2162
:4008000004258DF846118DF844318DF845218DF84761284608214FF0000AF8E66F4A1568002D6CD0BBF1000F6ED10025284604214FF0050AEBE64FF0030AE5E6BBF1000FA1
:400840003FF45BAF032B7FF458AFAAF1400B5FFA8BFBBBF13F0F94BF10254FF490752A4600219BA80393019500F04CFF039B90E7032B7FF442AFAAF140033F2BBDF84511CF
:4008800040F2E780FF2979D84FEA0A2E0EEB0100000200F1FF020023013812F801C963448242DBB2F9D1BAF13F0F20D80EF110720A4452011046203210F801EB73448242AB
:4008C000DBB2F9D1BAF1030F11D1FF290FD1002105200393FFF706FE039B00211B1A06205FFA83FAFFF7FEFDC0EB0A00C3B25B428DF8443105214FF0000A012087E6042160
:4009000028464FF0050A82E68DF81810ADF81A3006A80797089609960A9708A9A847BDF824000A9BB0F5937F01D3BB422ED05BB39DF82030021D91B28DF841310122030AAD
:40094000ADF816008DF842018DF840218DF8433100297FF467AE0A468E4670E61A46019B9BA90B441846394600251FFA8EF30193AA4600F0A1FE2846042148E60025284658
:4009800004214FF00A0A42E60028D1D001220E23ADF816608DF842618DF843618DF840218DF84131042100203CE6BDF845219A42019215D30025284604214FF0010B4FF016
:4009C0000A0A24E600F030FA80231022F7E600BFFA460040981B0000CC80FF1F6481FF1FBAF13F0F20D8554B02EB0A221B6892B21968C1F30F2311F0FF0F1CBF01339BB26B
:400A00009A42C0F08C80029B73B919464FF4907208A800F077FE4FF4907308AAFF21032000F0A0F9012302932B46019950469BAA00F098F9002398420CBF9A464FF00A0ABD
:400A400001931D464FF0010B00F04CFA01980421DDE5039100F0E8F903997F294FEA01138CD837483749384A18441944DFF8DCC000781A440978DFF8D8E012789C449E4445
:400A800008449CF80010DFF8CCC010449EF80020DFF8C4E09C449E4408449CF80010DFF8BCC010449EF80020DFF8B4E09C449E4408449CF80010DFF8ACC010449EF80020E5
:400AC000DFF8A4E09C449E4408449CF80010DFF89CC010449EF80020DFF894E09C449E4408449CF80010DFF88CC010449EF80020DFF884E09C4408449E449CF8001003F1A1
:400B00008043104403F500439EF8002001441B780A44134403F0FF03E9E60846BCE5002301931D46184604214FF0010B4FF00A0A6DE5C3F30723002261E600BFCC80FF1F7E
:400B40000F8000400E8000400D8000400C8000400B8000400A80004009800040088000400780004006800040058000400480004003800040028000400180004038B500F0E0
:400B800039F870BB0020FFF729FC184C0028236818BF06251A6808BF00256AB1002312F8011D0B44DBB2002AF9D162681278D31A03F0FF039A4202D0002000F05DF90C4A41
:400BC000137803F0C003402B00D025B1084B00221A70FFF7F3FC80231370BDE8384000F04DB9002000F048F9CCE700BFCC80FF1FFA46004038B500F0AFF900F05FFA10B14A
:400C00000424204638BD00F095FA072804462BD000F076FA002CF4D100F09EF900F04EFA0028EDD1012000F02DFA072805D04FF0FF3400F065FA204638BD154C02E0237812
:400C40009B07F4D40221134800F09CF90228F6D10F4C2378990705D4012000F03BF923789A07F9D50024E4E7094D2B789B0705D4012000F02FF92B789807F9D5044B1A78CB
:400C80009507D6D51B789B08D3D100F039FAC3E7224700407C81FF1FF0B53F2883B00AD8441F3A2C8CBF00240124B1F5807F17D9012003B0F0BD412894BF0024012481293F
:400CC00028BF01241027002AF2D0002CF0D116460D46044600F0F2F928B1042003B0F0BD4FF48077EFE73B4632462946204600F069F9072804D0019000F002FA0198EDE78A
:400D0000164E33789B0705D4012000F0E3F833789807F9D5114E33789F071BD533789B0818D10F4A294653782046127800F086F90728E0D102E0012000F0CCF8337899077A
:400D4000F9D5064B1A78920704D51B789B0801D11846D0E74FF0FF30CDE700BF224700407C81FF1FF0B5412883B015D8441F3A2C8CBF002401243F280FD8B1F5807F11D827
:400D800082B17CB91E4617460D46044600F096F958B1042003B0F0BD0124812928BF0124102BEDD0012003B0F0BD33463A462946204600F007F9072804D0019000F0A0F932
:400DC0000198F0E7164E33789B0705D4012000F081F833789807F9D5114E33789F071BD533789B0818D10F4A294653782046127800F024F90728E0D102E0012000F06AF8BB
:400E000033789907F9D5064B1A78920704D51B789B0801D11846D0E74FF0FF30CDE700BF224700407C81FF1F38B500F0A1F90F4A0F4913780F4C43F0080313700B78C82543
:400E400043F008030B702570137B43F0100313730B7B02F5587243F010030B7313789B06FCD5BDE8384000F087B900BFA0430040B04300400147004001BE7047024A13788B
:400E800043F0010313707047F6460040B0F5004F70B506461AD904460D4DA4F50044686800F05EF9B4F5004FF7D8A6F50043013B23F4FF4323F07F03A6F50046F61AA86885
:400EC00000FB06F0BDE8704000F04AB9004DF6E7D480FF1F024B1B7800FB03F000F040B9D480FF1F08B500F043F900BF00BF00BF00BF00BF00BF00BF00BF00BF00BF00BFD6
:400F000000BF00BF00BF00BF00BF064A13889BB243F0040313801388BFF36F8FBDE8084000F02AB900480040054B00F01F001A6800F1100352F8230042F82310704700BF29
:400F400008ED00E000F01F0000F16040490100F56440C9B20170704708B500F009F90749074A0B7843F008030B70137843F008031370BDE8084000F0FFB800BFA043004028
:400F8000B04300402DE9F0410F4699B14E1EF6B20644451E094CDFF8288002E00120FFF799FF2378DB07F9D598F8003005F8013FB542F6D13846BDE8F08100BF22470040F0
:400FC00020470040F0B41B4C2578AD071DD51A4DB6262E70D52702262F702E702478A40710D428705BB15E1EB6B21644013A12F8014FB2422C70FAD1B3F5807F08D0F0BC92
:40100000072070470920F0BC70470420F0BC70473F28F4D800F5103001EB0021490106480A46203112F8013BDBB291420370F9D1E5E700BF2247004020470040F0B40F4D53
:401040002C78A60716D50E4CB6262670D8270526277026702D78AD0709D40D0AC9B2207025702170227023700720F0BC70470920F0BC70470420F0BC704700BF2247004069
:40108000204700400B4A1378990711D530B40A4BB625E1240E211D701C7019701278920703D4187030BC07207047092030BC704704207047224700402047004038B500F019
:4010C00057F80D4A137823B1042400F055F8204638BD0125094915700C682C40F5D00C6824F001040C6000BF00BF00BF1C46556000F042F8204638BD6881FF1F0400084064
:4011000010B500F035F8094B002259681A70012908D1074C216841F00101216000BF00BF00BF5A60BDE8104000F026B86881FF1F04000840074B1B789B0708D5064BB620E1
:40114000E0210D221870197007201A7070470420704700BF2247004020470040000000000230800803D000BF01380046FCD17047EFF3108072B6704780F31088704700BFBB
:4011800008B500F071F800F04BF9BDE8084000F0A7B900BF00F0C6B8F8B50E460446174600F03EF94EB1751EADB22544013C14F8010F00F057F9AC42F9D13E800020F8BD6E
:4011C0002DE9F84303EB83035D0006468846174618BF002407D117E001340120A4B2FFF755FEAC4210DA00F0F3F80028F4D000F0EFF804461920FFF749FE00F0E9F88442CA
:40120000F5D34FF0000901E04FF0050900243C8000F0DEF8F8B100F0DBF83A8880B283189BB243453B801BD2C0B1204485B200F0A1F8631C30559CB2AC42F8D1731913F81D
:40124000013C172B02D00520FFF720FE2C4600F0BFF80028DFD14846BDE8F8832546EDE73A804846BDE8F883F8B5224D2C780CBB21492046FFF758FE20460721FFF762FE17
:401280001E4B1F492022692008701A701D4901206C70FFF749FE07210120FFF753FE1A4E1A481B4A06274724022101233770047011702B70FFF75CFF0546164C1649237823
:4012C000164A43F0200323700B78012043F010030B701060A378124843F010030221A3700160116000F09CF92846BDE8F840FFF743BF00BF7081FF1F211500008964004014
:4013000089650040B915000028640040386400408B650040996500409964004000E100E080E200E038B5FFF723FF05460D4A0E4C137803F0DF03137000F082F923780B4A1C
:40134000012003F0EF030A49237010600B78022403F0EF030B7028461460BDE83840FFF70BBF00BF996500409964004080E100E09B65004010B4114B114A0121196091786F
:40138000D3781079C9B210B9DBB2994212D04B1CDBB2402B0B4828BF0023405C93701379074CC0B20BB100232371074B01221A6010BC7047054B1878C0B2F6E780E100E0CA
:4013C0007081FF1F8081FF1F00E100E04A650040104A0121104B11609978DA7891420FD09978DA789142DA78987824BF02F14003181A0A4B38BF101A0122C0B21A60704793
:401400001B790122002B054B14BF402000201A60704700BF80E100E07081FF1F00E100E010B5FFF7A5FE0B4B0B4C1A7842F001021A701A7802F0FE021A70FFF79DFE074BD9
:4014400000220121064821609A70DA701A715A71016010BD9A65004080E100E07081FF1F00E100E070B4194DEC79AB792646DBB2591EE21A091BA2F13F02B1FA81F1B2FAF1
:4014800082F249095209A34288BF0A46002AECD1A34212D03F2C0E4A88BF00260D4B90551B789ABF0134E4B201249B07EC7102D5094B02221A6070BC7047064B1B785A07A8
:4014C000E8D4064B187070BC704700BF7081FF1FC081FF1F6B65004000E200E04865004010B5FFF745FE0A4B0A4C1A7842F001021A701A7802F0FE021A70FFF73DFE064AFF
:401500000223002105482360D1719171036010BD9865004080E100E07081FF1F00E100E02DE9F0431C481D491D4F1E4A1E4E1F4CDFF880C01E4D4FF0010E0378DBB213F03A
:401540001E0905D091F8008049EA080881F800809B0601D4BDE8F08397F8008013785FFA88F8DBB206F8038023784FF000080BB18CF800E013780133DBB2137013783F2B55
:4015800088BF82F8008092F800802B789845D4D184F800E0D1E700BF696400407181FF1F4A6500407381FF1F8081FF1F7481FF1F7281FF1F7581FF1F144A154813780178B4
:4015C000994221D0F0B513490B7803F0040303F0FF06C3B91746104D104C02E00B785B0711D413783F2B88BF3E701378DBB2EB5CDBB22370137890F800E00133DBB21370CB
:4016000013789E45EAD1F0BD704700BF7681FF1F7781FF1F6B650040C081FF1F486500400549064A0B7843F001030B70137843F001031370704700BFA2430040B2430040EF
:401640000549064A0B7803F0FE030B70137803F0FE031370704700BFA2430040B2430040014B1868704700BF4481FF1F0E4B70B51E460E4C0025E41AA410A54204D056F8C7
:40168000253098470135F8E700F08CFA084B094C1E46E41AA4100025A54204D056F8253098470135F8E770BDB01B0000B01B0000B01B0000B81B000010B5431E0A4491428E
:4016C00004D011F8014B03F8014FF8E710BD884210B501EB020301D8421E0BE09842FBD28118D21AD34204D013F8014D01F8014DF8E710BD994204D011F8014B02F8014F77
:40170000F8E710BD03460244934202D003F8011BFAE77047001D0000ED00000000000000005100401000205100401000405100403000F051004010000000014000100014B5
:4017400001400006801A0140800100400140000A004C014000020050014020001090000040000000CF083042C3003C0800100000082000000020F3000C30F3003D0FC0F055
:4017800008000084023F20C004F800010C3900C6430010C740318C003F0000FF00002800000000402105040003EC000003FFFFFF62A0F0410C00000000000000040404044F
:4017C0000000000100000000000040020010301000101012000000000000000000000000000000000152004001640040026500400107014054080140370901400414014085
:4018000003150140011701404D180140411901400D1A0140411B0140034001400241014002420140044301400147014002480140084C01400E4D014004500140015101402E
:401840000914893A89698B0FE60203010461060E071809480A400B860E0811801365142C15E61643171119601B8B1E43206121A02206260C28102D802F023020320F330774
:40188000341035F8364038023A083B083E504003474049FF4A074BFF4C404D204EF04F055008580459045A045F01604061A8624063208320850387048A028B088D038E022A
:4018C0008F0C9001950A9704980199039B04A310A710A801AF05B001B10FB320B510B602BB02BE40BF10D41AD604D804D904DB04DF0100A005800605071008800A450E2010
:401900000F0211101502161819401B021D241E211F0120402105220223042404271029012B212D802E023104331035043602371038523A143C143E083F0245084F025601C3
:4019400059025A206140634485208740C0E3C2AAC472CA9BCCE6CEEFD040D605D80DE008B980BF40D904DF012680A680B280EA0801020B011001140419011E022006280662
:401980002D01320633033401380839083E1440454102460E47BC483449FF4AFF4BFF4EF04F44500C580459045A045F0166C06A406B0284038508860C89088D088E0E900232
:4019C00091089208953D960F9702980299239A049B1C9D1E9F01A127A318A501A716A80CA926AA03AB19AC03AE0CAF1FB320B401B508B60EB71FB820BA80BB80BF04D602C6
:401A0000D712D804D904DB04DF01000403020520060408280A800E300F821209150216C0171019801BA01D081E082254241028282A012B8A2E8031143249371038A83E10F9
:401A40003F02464047104E02560657405A0869106A46705C79017A027B41910A941295109664978098809B109D039E06A210A303A450A508A720AF40B701C005C2BEC4533B
:401A8000CA1FCC2FCEAED0A0D210D602840188018C019601A201AE02B203BA08D401D604D804DB04DF0100440380059408120A120E101048114012101580164018041916A1
:401AC0001E101F0820802142281229042A402B8A30483110324138E239083A1040264102481049815C805D215E0867806A4082408C218D4090A09109928294069780988038
:401B000099A09C209D17A008A204A382A450A708C0EDC22FC49FCA0FCC0FCE0FD00FD208D6F0D880E004E88030103580CC309C109D809C109D8084109C109D80E640862085
:401B4000AD80EA105840620199089A20B508D401D802E80212807220750882018E8099089A209E01B040C408DC01DE04E202E80100010C0110011C01000F00004090900073
:401B80009000000010140400140000000000000101000000000000006910162E003C010143000000F8B500BFF8BC08BC9E4670475100000011030000F8B500BFF8BC08BC51
:401BC0009E4670472D000000D81B0000C880FF1F80000000B8000000000000001417000018170000180000000000E02EC05D000000366E010000000000000000000000004A
:401C00000000000000000000000000000000000000000000A01B000000000000000000000000000000000000000000000000000000000000000000000000000000000000E9
:401C40000000000000000000000000000000000000000000E480FF1F00000000000000000000000000000000000000000000000000000000000000000000000000000000E2
:401C80000000000000000000000000000000000000000000000000000000000000000000000000000000000000000000000000000000000000000000000000000000000024
:401CC00000000000000000000000000000000000000000000000000000000000000000000000000000000000000000000000000000000000000000000000000000000000E4
:401D000000800020111D0000356300003563000080B500AF04F042FB10B5054C237833B9044B13B10448AFF300800123237010BD6082FF1F0000000094E20000084B10B560
:401D40001BB108490848AFF300800848036803B910BD074B002BFBD0BDE81040184700BF000000006482FF1F94E20000C880FF1F0000000080B58CB000AF0E4B1B7887F8CA
:401D80002F300C4BB3F98030DBB2013BDBB21946084801F097FF03461946064BB3F98030013B044AD35C994206D0024B002283F88420B8E2F88DFF1F97F82F30FA2B00F2F6
:401DC000B18201A252F823F0412200002122000025230000472200004D220000692200000922000025230000252300009D2200008322000025230000272200002523000067
:401E00002523000025230000252300002523000025230000252300002523000025230000252300002523000025230000252300002523000025230000252300002523000022
:401E400025230000252300002523000025230000252300002523000025230000252300002523000025230000252300002523000025230000252300002523000025230000E2
:401E800025230000252300002523000025230000252300002523000025230000252300002523000025230000252300002523000025230000252300002523000025230000A2
:401EC0002523000025230000252300002523000025230000252300002523000025230000252300002523000025230000252300002523000025230000252300002523000062
:401F00002523000025230000252300002523000025230000252300002523000025230000252300002523000025230000252300002523000025230000252300002523000021
:401F400025230000252300002523000025230000252300002523000025230000252300002523000025230000252300002523000025230000252300002523000025230000E1
:401F800025230000252300002523000025230000252300002523000025230000252300002523000025230000252300002523000025230000252300002523000025230000A1
:401FC0002523000025230000B5210000F7210000BB21000003220000C1210000CD210000C721000025230000F1210000DF21000025230000E5210000D321000025230000C6
:402000002523000025230000FD21000025230000EB210000252300002523000025230000252300002523000025230000252300002523000025230000252300002523000086
:40204000252300002523000025230000BF220000C5220000DD220000E3220000E9220000EF220000F52200000D2300002523000025230000252300002523000025230000F1
:4020800025230000252300002523000025230000252300002523000025230000252300002523000025230000252300002523000025230000252300002523000025230000A0
:4020C0002523000025230000252300002523000025230000252300002523000025230000252300002523000025230000252300002523000025230000252300002523000060
:40210000252300002523000025230000252300002523000025230000252300002523000025230000252300002523000025230000252300002523000025230000252300001F
:4021400025230000252300002523000025230000252300002523000025230000252300002523000025230000252300002523000025230000252300002523000025230000DF
:40218000252300002523000025230000252300002523000025230000252300002523000025230000252300002523000025230000D921000001F03EFFB5E001F0DDFEB2E0A4
:4021C00001F0C2FEAFE001F051FFACE001F054FFA9E001F091FFA6E001F094FFA3E001F0B9FEA0E001F0BCFE9DE001F0BFFE9AE002F0AAF897E001F033FF94E002F03EF8B5
:4022000091E002F051F88EE0484B1B88BB61BB695BBA7B617B699BB2184600F0B9F882E001F084F97FE0414B1B88BB62BB6A5BBA3B613B699BB20121184600F039FD72E0B3
:4022400002F022F86FE002F035F86CE0322001F071FD0346002B03D0012001F053FD62E0002001F04FFD5EE001F0DCFD0346002B03D0012001F046FD55E0002001F042FD76
:4022800051E001F0FBFD0346002B03D0012001F039FD48E0002001F035FD44E0012001F031FD4FF47A7005F06FFF002004F09AF94FF47A7005F068FF04F01CFF33E002F0D2
:4022C00073F830E0194B1B887B627B6A5BBAFB60FB689BB2184601F01FF924E002F06AF821E002F06DF81EE002F070F81BE002F073F818E00D4B1B883B623B6A5BBABB604E
:40230000BB689BB2184602F06DF80CE0074B1B88FB61FB695BBA7B607B689BB2184602F00BF900E000BF3037BD4680BDF98DFF1F80B485B000AF0346FB71FB79092B20D80C
:4023400001A252F823F000BF71230000712300007123000077230000772300007D2300007D2300007D23000083230000712300000123FB7305E00223FB7302E00423FB7313
:4023800000BFFB7B18461437BD4680BC704700BF80B5ADF5BB4D92B000AF024607F14803423B1A8007F59C4303F1280300221A60043340F69C720021184609F015FA07F188
:4023C0004803403B00221A60043344F61C620021184609F009FA07F14803423B1B88062B7DD801A252F823F00524000027240000492400007124000093240000B124000026
:40240000B724000007F59C4303F12803184601F06FFA04F08DFC07F59C4303F12803184604F064FC5CE007F59C4303F12803184601F068FB04F07CFC07F59C4303F1280398
:40244000184604F053FC4BE007F59C4303F128034FF47A621946254803F082F804F068FC07F59C4303F12803184604F03FFC37E007F14803403B44F62061184603F094F8F2
:4024800004F056FC07F14803403B184604F02EFC26E007F14803403B184603F091F904F047FC07F14803403B184604F01FFC17E003F0B0F814E007F59C4303F128034FF4D8
:4024C0007A6219460A4803F04BF804F031FC07F59C4303F12803184604F008FC00E000BF00BF07F5BB474837BD4680BDFC82FF1F3881FF1F2DE9F043ADF5197D00AF06469E
:40250000084607F108010A603A1D136007F10F0332461A7007F10E0302461A706B461E46002387F85F3207F108031B681B68C7F8503207F5A47300221A600433F622002180
:40254000184609F051F907F14C0300221A600433F6220021184609F047F907F10F031B789BB21A46920013441A4691001A460B4613445B009AB207F10E031B789BB21946B5
:4025800089000B4419460901CB1A5B009BB213449BB23233A7F84E32B7F84E120B46013BC7F848328AB24FF000034FEAC30949EA52794FEAC2088AB24FF00003DD0045EA42
:4025C0005275D4000B460733DB08DB00ADEB030D6B460033C7F844320023C7F854320BE0D7F84422D7F85432134400221A70D7F854320133C7F85432B7F84E22D7F8543214
:402600009A42EDDCD7F844320C221A70D7F8443207F10F0212785A70002387F85F3244E297F85F321B0107F10802126813441B68C7F8503297F85F321B0107F10802126872
:4026400013441B791846FFF773FE034687F8433297F85F32322202FB03F3023397F85F22120107F1080109680A441179D7F84422D15497F85F32322202FB03F3033397F8DE
:402680005F22120107F1080109680A445179D7F84422D15497F85F321B0107F10802126813449B7B052B61D1B74B1B6AB64A92F8292043FA02F207F148031A60002387F831
:4026C0005C321AE097F85F32322202FB03F31A1D97F843321A4497F85C32D31A013B97F85C2207F148010A441178D7F84422D15497F85C32013387F85C3297F85C2297F893
:4027000043329A42DED3A04B5B6A9F4A92F8292043FA02F207F148031A60002387F85C321DE097F85F32322202FB03F31A1D97F843321A4497F843321A4497F85C32D31AA4
:40274000013B97F85C2207F148010A441178D7F84422D15497F85C32013387F85C3297F85C2297F843329A42DBD348E0002387F85D3232E0002387F85C3221E097F85F32E9
:40278000322202FB03F31A1D97F85D321A4497F843321A4497F85C32D31A013B97F85D1297F85C220A441146D7F850220A441178D7F84422D15497F85C32013387F85C32F7
:4027C00097F85C2297F843329A42D7D397F85D2297F84332134487F85D3297F85D2297F85F321B0107F1080109680B445B79194697F8433203FB01F39A42BBDB00BF634BB8
:402800001A7807F5A4731A7097F85F32013307F114010A22184608F0DAFF07F1140207F5A4731146184609F0CBFD07F5A473184609F0E7FD03461A4607F5A4731344544A17
:402840001068186097F85F321B0107F10802126813449A6807F5A4731146184609F0B0FD07F5A473184609F0CCFD034687F85E3297F85F321B0107F10802126813441B7BB9
:40288000002B40D0002387F85D3235E097F85D322C2202FB03F33A1D126813441A7897F85F321B0107F1080109680B441B7B9A4213D197F85D322C2202FB03F33A1D1268FB
:4028C0001A44D7F850321B789B0013445A6807F5A4731146184609F073FD07F5A473184609F08FFD0346DBB2013387F85E3297F85D32013387F85D3207F10E0397F85D222B
:402900001B789A42C2D397F85E3287F85D3228E097F85F32322202FB03F31A1D97F8433297F85F12090107F1080000680144497901FB03F31A4497F85E321A4497F85D3258
:40294000D31A97F85E1297F85D228A1A07F5A471895CD7F84422D15497F85D32013B87F85D3297F85D32002BD2D197F85F321B0107F10802126813441B79002B6ED10023E5
:4029800087F85D3240E000BF2898FF1F98E200009CE2000097F85D322C2202FB03F33A1D126813441A7897F85F321B0107F1080109680B441B7B9A4221D197F85F32322266
:4029C00002FB03F31A1D97F8433297F85F12090107F1080000680144497901FB03F31A4497F85E32134497F85D220132D1B2D7F84422D15407F10E031B7887F85D3297F813
:402A00005D32013387F85D3207F10E0397F85D221B789A42BED397F85F32322202FB03F31A1D97F8433297F85F12090107F1080000680144497901FB03F31A4497F85E3224
:402A40001344023397F85F22120107F1080109680A44517BD7F84422D15421E097F85F32322202FB03F31A1D97F8433297F85F12090107F1080000680144497901FB03F3B3
:402A80001A4497F85E321344013397F85F22120107F1080109680A44517BD7F84422D15497F85F32013387F85F3207F10F0397F85F221B789A42FFF4B3AD002387F85C3295
:402AC000C0E0774B1A7807F14C031A70002387F85B327AE097F85C322C2202FB03F33A1D12681A4497F85B329B0013445B681B78002B24D197F85C322C2202FB03F33A1DC2
:402B0000126813445B78012B15D107F14C03184609F077FC03461A4607F14C031344614A1D4614460FCC28606960AA60EB6020682861A388AB820A2387F85B3240E097F84D
:402B40005B3207F114010A22184608F040FE07F1140207F14C031146184609F031FC07F14C03184609F04DFC03461A4607F14C0313444D4A1068186012791A7197F85C32E3
:402B80002C2202FB03F33A1D12681A4497F85B329B0013445A6807F14C031146184609F00FFC07F14C03184609F02BFC03461A4607F14C0313443D491A460B461B8813805C
:402BC00097F85B32013387F85B3297F85B32092B80D907F14C03184609F013FC034687F85E3297F85E3287F85D3222E007F10F031B78322202FB03F39A1C97F85C3296212E
:402C000001FB03F31A4497F85E321A4497F85D32D31A97F85E1297F85D228A1A07F14C01895CD7F84422D15497F85D32013B87F85D3297F85D32002BD8D197F85C320133DC
:402C400087F85C3207F10E0397F85C221B789A42FFF437AFB7F84E325C1ED7F84422B7F84E32DBB2013BDBB21946104601F02AF803461A46D7F844321A5597F88032002BF5
:402C800007D0D7F84432B7F84E221146184600F085FFB54600BF07F51977BD46BDE8F08398E20000A0E20000B8E20000C0E2000090B5F5B002AF0246BB1D1A807B1D0A46DA
:402CC0001A70EE4BC7F8C031BB1D1B88002B02D0EB4BC7F8C031EB4A07F5867311468422184608F076FD032387F8BF31D7F8C03103F1100207F10C031A6007F10C0302220C
:402D00001A7107F10C0301225A7107F10C03DE4A9A6007F10C0300221A7307F10C0300225A7307F10C0300229A7307F10C030122DA73D7F8C03103F1300207F10C031A6129
:402D400007F10C0304221A7507F10C0302225A7507F10C03CD4A9A6107F10C0300221A7707F10C031E225A7707F10C0300229A7707F10C030122DA77D7F8C03103F1340213
:402D800007F10C031A6207F10C03062283F8242007F10C03022283F8252007F10C03BC4A9A6207F10C03002283F82C2007F10C031E2283F82D2007F10C03002283F82E20BD
:402DC00007F10C03012283F82F20D7F8C03103F13C0207F10C031A6307F10C03022283F8342007F10C03022283F8352007F10C03A84A9A6307F10C03002283F83C2007F186
:402E00000C031E2283F83D2007F10C03002283F83E2007F10C03012283F83F20D7F8C03103F13E0207F10C031A6407F10C03002283F8442007F10C03012283F8452007F1E2
:402E40000C03954A9A6407F10C03032283F84C2007F10C031E2283F84D2007F10C03002283F84E2007F10C03012283F84F20D7F8C03103F1400207F10C031A6507F10C037B
:402E8000002283F8542007F10C03012283F8552007F10C03814A9A6507F10C03052283F85C2007F10C03502283F85D2007F10C03002283F85E2007F10C03012283F85F203A
:402EC000D7F8C03103F1410207F10C031A6607F10C03022283F8642007F10C03012283F8652007F10C036E4A9A6607F10C03002283F86C2007F10C03502283F86D2007F198
:402F00000C03002283F86E2007F10C03012283F86F20D7F8C03103F1290207F10C031A6707F10C03022283F8742007F10C03012283F8752007F10C035A4A9A6707F10C0395
:402F4000002283F87C2007F10C03502283F87D2007F10C03002283F87E2007F10C03012283F87F20D7F8C03103F1280207F10C03C3F8802007F10C03002283F8842007F181
:402F80000C03012283F8852007F10C03464AC3F8882007F10C03012283F88C2007F10C03502283F88D2007F10C03032283F88E2007F10C03012283F88F20D7F8C03103F176
:402FC000200207F10C03C3F8902007F10C03052283F8942007F10C03022283F8952007F10C03324AC3F8982007F10C03002283F89C2007F10C03502283F89D2007F10C0377
:40300000052283F89E2007F10C03012283F89F20D7F8C03103F15C0207F10C03C3F8A02007F10C03002283F8A42007F10C03012283F8A52007F10C031D4AC3F8A82007F17D
:403040000C03052283F8AC2007F10C03502283F8AD2007F10C03002283F8AE2007F10C03012283F8AF20D7F8C03103F15D0207F10C03C3F8B02007F10C031BE02898FF1FA7
:40308000A898FF1F8CE40000C4E20000D0E20000E0E20000F0E2000000E3000010E3000020E300002CE3000040E300004CE3000064E30000002283F8B42007F10C0301223A
:4030C00083F8B52007F10C03C04AC3F8B82007F10C03052283F8BC2007F10C03502283F8BD2007F10C03002283F8BE2007F10C03012283F8BF20D7F8C03103F1500207F182
:403100000C03C3F8C02007F10C03052283F8C42007F10C03012283F8C52007F10C03AC4AC3F8C82007F10C03002283F8CC2007F10C03502283F8CD2007F10C03002283F819
:40314000CE2007F10C03012283F8CF20D7F8C03103F1540207F10C03C3F8D02007F10C03072283F8D42007F10C03012283F8D52007F10C03974AC3F8D82007F10C03002214
:4031800083F8DC2007F10C03502283F8DD2007F10C03002283F8DE2007F10C03012283F8DF20D7F8C03103F1580207F10C03C3F8E02007F10C03072283F8E42007F10C03DB
:4031C000012283F8E52007F10C03834AC3F8E82007F10C03002283F8EC2007F10C03502283F8ED2007F10C03002283F8EE2007F10C03012283F8EF200F2387F8BE31BB1D06
:403200001B88002B0ED107F5867407F10C0297F8BF1197F8BE017B1D1B7800932346FFF769F9CEE0BB1D1B88B3F5967F0AD107F5867307F10C0297F8BF1197F8BE0100F060
:403240007BF9BEE0BB1D1B88DBB2013B87F8BD3197F8BD3107F10C021B01134404331B781846FFF765F8034687F8BC3197F8BD3107F10C021B0113440E331B78002B5BD144
:40328000002387F8C7312FE0002387F8C6311EE097F8BD3107F10C021B0113441A6897F8C73197F8BC0197F8C611411A0B44013B134497F8C721D11C97F8C6210A44474928
:4032C0008A5C1A7097F8C631013387F8C63197F8C62197F8BC319A42DAD397F8C72197F8BC31134487F8C73197F8C72197F8BD3107F10C011B010B4405331B78194697F8D5
:40330000BC3103FB01F39A42BEDB97F8BD3107F10C021B01134404331B78092B15D197F8BD3107F10C021B0113441A6897F8C731134400221A7008E097F8BD319BB207F1B3
:403340000C021146184600F04DF8002387F8C73131E097F8C7312C2202FB03F307F5E4721344BC3B1A7897F8BD3107F10C011B010B440C331B789A420CBF01230023DAB277
:4033800097F8C7312C2101FB03F307F5E4710B44BB3B1B78012B0CBF01230023DBB21340DBB2002B02D00E4B01221A7097F8C731013387F8C73197F8C72197F8BF319A426C
:4033C000C7D300BF07F5E677BD4690BD7CE3000094E30000B4E30000D8E30000F88DFF1F8E82FF1F80B584B000AF03463960FB80FB881B013A6813441B791846FEF798FF47
:4034000003467B73FB881B013A6813449B7B032B02D0052B06D036E03D4BDA783D4B83F8282071E03A4BDB781A06394B1B791B041A43374B5B791B021343354A92791343E0
:40344000344A1362324BDB791A06314B1B7A1B041A432F4B5B7A1B0213432D4A927A13432C4A53622B4B1B6A2A4A92F829209340284A1362274B5B6A264A92F829209340CC
:40348000244A536240E00023FB7320E00023BB7315E0FB881B013A6813441A68FB7B787BB97B411A0B44013B1344FA7BD11CBA7B0A4417498A5C1A70BB7B0133BB73BA7B7C
:4034C0007B7B9A42E5D3FA7B7B7B1344FB73FA7BFB881B0139680B445B7919467B7B03FB01F39A42D2DBFB881B013A6813441B79092B08D1FB881B013A6813441A68FB7BA1
:40350000134400221A7000BF00BF1037BD4680BDF88DFF1FA898FF1F80B483B000AF0346FB8000BF0C37BD4680BC704780B400AF00BFBD4680BC704790B5ADF66C2D00AFE8
:403540000446084607F108010A603A1D136007F10F0322461A7007F10E0302461A70AD4B1A78AD4B1A7007F1780300221A6004334FF41C620021184608F036F9A74BC7F83D
:403580005C3AA64B1B7CFA2B00F0A581A14B1A7807F178031A7007F17803184608F031FF03461A4607F1780313449D491A460B461B8813800023C7F8603A7EE1D7F8603ABA
:4035C0001B0107F1080212681344DB7B002B00F06F81D7F8603A1B0107F10802126813449A6807F178031146184608F0E9FED7F8603A1B0107F10802126813441B68C7F880
:40360000583AD7F8603A1B0107F10802126813441B791846FEF78CFE034687F8573AD7F8603A1B0107F10802126813449B7B052B00F0FE800023C7F8643ADCE097F8573A6E
:40364000D7F8642A02FB03F31A46D7F8583A1344C7F8503AD7F8603A1B0107F10802126813441B79072B00F2B98001A252F823F05F370000AD36000091360000C936000011
:40368000E53600001D3700000137000039370000D7F8503A1B7887F84F3A97F84F2A07F114036049184608F067FE97E0D7F8503A1B7887F84E3A97F94E2A07F11403594961
:4036C000184608F059FE89E0D7F8503A1B88A7F84C3AB7F94C2A07F114035249184608F04BFE7BE0D7F8503A1B88A7F84A3AB7F84A2A07F114034B49184608F03DFE6DE006
:40370000D7F8503A1B68C7F8443A07F11403D7F8442A4549184608F02FFE5FE0D7F8503A1B68C7F8403A07F11403D7F8402A3E49184608F021FE51E0D7F8503A1B68C7F8AF
:403740003C3AD7F83C0A07F0CFF903460C4607F114001A462346354908F00EFE3EE00023C7F8643A32E0D7F8643A2C2202FB03F33A1D126813441A78D7F8603A1B0107F178
:40378000080109680B441B7B9A421AD1214B1A7807F114031A70D7F8643A2C2202FB03F33A1D12681A44D7F8583A1B789B0013445A6807F114031146184608F001FE00BF4D
:4037C0000BE0D7F8643A0133C7F8643A07F10E031A78D7F8643A9A42C5DC00BF07F1140207F178031146184608F0EAFDD7F8643A0133C7F8643AD7F8603A1B0107F1080202
:40380000126813445B791A46D7F8643A9A423FF715AF3EE098E200006083FF1F2898FF1FC0E2000010E5000014E500001CE500002B4B1B6A2A4A92F829201341C7F8403A69
:4038400007F11403D7F8402A2649184608F094FD07F1140207F178031146184608F0B0FD1F4B5B6A1E4A92F829201341C7F8403A07F11403D7F8402A1A49184608F07CFD5E
:4038800007F1140207F178031146184608F098FD00BF07F17803184608F0B3FD03461A4607F17803134410491A460B461B881380D7F8603A0133C7F8603A07F10F031A78C8
:4038C000D7F8603A9A423FF779AE07F178031946064808F075FD00BF07F66C27BD4690BD2898FF1F14E50000C0E200006083FF1FF0B5A1B002AF786000214FF49670FFF7A4
:40390000D7F9704B3B676F4B1B7CFA2B00F0D6807B6800221A70786808F073FD03461A467B681344684A1188927819809A70786808F067FD03461A467B681344634A1D46BD
:4039400014460FCC28606960AA60EB602388A2782B821346AB74786808F053FD03461A467B6813445A4A14469E4604F1200C754626460FCE28606960AA60EB6010340EF187
:40398000100E6445F3D17346224612781A70786808F037FD03461A467B6813444D4A1068186092889A80786808F02BFD03461A467B681344484A1C46134607CB206061605A
:4039C000A2601B88A381786808F01BFD03461A467B681344414A1C4615460FCD20606160A260E3603E49786808F0EAFC786808F008FD03461A467B681344334A118892785C
:403A000019809A7000237B6720E07B6F591C354A7B6F52F8233007F10C000A46324908F0ABFC07F10C031946786808F0C9FC786808F0E7FC03461A467B681344224A118865
:403A4000927819809A707B6F01337B677B6F012BDBDD264B1B781A46254B1B781946244B5B7807F10C0000930B46224908F084FC07F10C031946786808F0A2FC1E4B1B6830
:403A8000184607F041FE03469BB21A4607F10C031A49184608F070FC07F10C031946786808F08EFC786808F0ACFC03461A467B681344134A1188927819809A7000BF7C3710
:403AC000BD46F0BD2898FF1F20E5000024E5000038E500005CE5000064E5000074E500006083FF1FEC8DFF1F84E500000899FF1FA498FF1F98E500002498FF1FCCE5000008
:403B0000E8E5000080B483B000AF786000BF0C37BD4680BC704700BF80B584B000AF78600B467B8013467B703A2003F0C5F83A2003F0C2F87B78184603F0BEF87B88DBB2F8
:403B4000184603F0B9F80023FB8109E0FB897A6813441B78184603F0AFF8FB890133FB81FA897B889A42F1D30023FB8100BF03F097F8034603F00103002B05D1FB895A1CFE
:403B8000FA81B3F57A7FF2D9012002F045FD002002F042FD00BF1037BD4680BD80B584B000AF78600B467B803A2003F085F83A2003F082F81A4B1B7C184603F07DF87B88A0
:403BC000DBB2184603F078F80023FB8109E0FB897A6813441B78184603F06EF8FB890133FB81FA897B889A42F1D30023FB8100BF03F056F8034603F00103002B05D1FB892A
:403C00005A1CFA81B3F57A7FF2D9012002F004FD002002F001FD00BF1037BD4680BD00BFA898FF1F80B582B000AF78600B467B8013467B703A2003F03FF83A2003F03CF81D
:403C40007B78184603F038F87B88DBB2184603F033F81B4B00221A800EE0194B1B881A467B6813441B78184603F026F8144B1B8801339AB2124B1A80114B1B887A889A42BB
:403C8000EBD80F4B00221A8000BF03F009F8034603F00103002B08D1094B1B885A1C91B2074A1180B3F57A7FEFD9012002F0B4FC002002F0B1FC00BF0837BD4680BD00BFBA
:403CC0007C82FF1F80B485B000AF78600B46FB700023BB730023FB7309E0FB7B7A6813441A78BB7B5340BB73FB7B0133FB73FA7BFB789A42F1D3BB7B18461437BD4680BC3B
:403D0000704700BF80B584B000AF0346FB710223FB60FB793B72FB797B72FB689AB207F1080311461846FFF739FF00BF1037BD4680BD00BF80B586B000AF78600123FB741F
:403D400003F0C6F802F0CEFB1C4A1D4B1046194660231A4607F03DFD0623FB6000237B6118E07B691B011A46154BD0187B69DAB27B68DBB21344DBB2194602F0BBFB034609
:403D8000FB72FB7A002B02D00023FB7406E07B6901337B617A69FB689A42E2DB084A074B1046194660231A4607F013FD03F084F8FB7C18461837BD4680BD00BF2898FF1F26
:403DC000A898FF1F80B582B000AF0023FB800CE0FB88114A1344114A1168FA880A441278D2B21A70FB880133FB80FB885F2BEFD9094B1B78002B02D100F014F807E0084A33
:403E0000054B1046194660231A4607F0E2FC00BF0837BD4680BD00BFA898FF1FCC80FF1F2898FF1F80B582B000AF0023FB800EE0FB88104A1344104A1168FA8802F5487246
:403E40000A441278D2B21A70FB880133FB80FB885F2BEDD9074B1B78002B03D100F00EF8034603E00020FFF765FF034618460837BD4680BDA898FF1FCC80FF1F80B500AF05
:403E80002F4B01221A702E4B02221A742C4B00221A622B4B93F829301A464FF47A539340274A5362264B042283F82820244B032283F82920224BC8221A86214BC8225A86F9
:403EC0001F4B4FF480625A631D4B4FF480629A631B4B642283F83C20194B642283F83D20174B002283F83E20154B002283F84020134B4FF4E1721A65114B124A5A65104B68
:403F00004FF07E529A650E4B002283F85C200C4B002283F85D200A4B01221A700020FFF709FF0346002B07D03220FFF703FF0346002B01D0012300E00023DBB2184680BD47
:403F4000A898FF1F0000C84180B400AF00BFBD4680BC704780B400AF00BFBD4680BC704780B400AF00BFBD4680BC704780B400AF00BFBD4680BC704780B483B000AF294BF0
:403F80005B781B021AB2274B9B781BB213431BB23B80244BDB781B021AB2224B1B791BB213431BB27B801F4B5B791B021AB21D4B9B791BB213431BB2BB800023FB7106E03B
:403FC000FB79194A0121D154FB790133FB71FB79022BF5D9144B1B78002B0BD0B7F90030DAB2124B1A70114B1B78642B02D90F4B64221A700C4B5B78002B04D0B7F9023007
:40400000DAB20B4B1A70084B9B78002B04D0B7F90430DAB2064B5A7000BF0C37BD4680BC704700BFF88DFF1F0898FF1F0C98FF1FA098FF1F80B582B000AF084B5B78FB714C
:40404000FB795B08DBB203F00103DBB2184603F0B9FB00BF0837BD4680BD00BFF88DFF1F80B400AF00BFBD4680BC704780B400AF00BFBD4680BC704780B584B000AF8523C3
:404080003B721B4B1B689BB21A465201D21A92001344DB009BB21BB2FB80B7F90630002B01DA0023FB80BB1D1B78BB72BB1D01331B787B720F4B1B681BB2FB80BB1D1B78E7
:4040C0003B73BB1D01331B78FB7207F1080305211846FFF7F7FD03467B7307F1080306211846FFF75BFD00BF1037BD4680BD00BF9898FF1FF497FF1F80B400AF00BFBD46E7
:4041000080BC704780B400AF00BFBD4680BC704780B588B000AF0123FB770223BB77FA233B71FA237B71BB7F99B2234B93F841203B1D1846FFF776FD02F0F0FB0346BB61D9
:4041400018E01E4B1B78002B04D01C4B00221A7000F0FEFB02F0E2FB03467B61BA697B69D31A174A934205D90023FB77154B00221A7003E0144B1B78FB2BE2D1FB7F002B60
:4041800015D0114B5B781B021AB20F4B9B781BB213431AB20D4B1A800B4BDB781B021AB2094B1B791BB213431AB2094B1A8000BF2037BD4680BD00BF2898FF1F8882FF1F42
:4041C00020AA44001898FF1FF88DFF1F8A82FF1F8C82FF1F80B588B000AF0023FB8301237B7702233B778C233B718C237B713B7F99B21D4B93F841203B1D1846FFF712FD36
:4042000002F08CFB0346BB6118E0184B1B78002B04D0164B00221A7000F09AFB02F07EFB03467B61BA697B69D31A114A934205D900237B770F4B00221A7003E00E4B1B78A5
:404240008E2BE2D17B7F002B08D00B4B5B781B021AB2094B9B781BB21343FB83B7F91E3018462037BD4680BD2898FF1F8882FF1F20AA44001898FF1FF88DFF1F80B400AF60
:4042800000BFBD4680BC704780B582B000AF00233B7100237B713B1D02211846FFF77EFC00BF0837BD4680BD80B400AF00BFBD4680BC704780B582B000AF0223FB711F4B25
:4042C0001A7C1F4B1B7C9A4220D01C4B1B7CBB710020FFF72FFD0346002B0BD001233B7101237B71FB7999B2BA793B1D1846FFF713FC18E000233B7100237B71FB7999B27E
:40430000BA793B1D1846FFF707FC0CE00020FFF711FD0346002B03D00120FFF7F3FC02E00020FFF7EFFC074B1B78012B01D103F01BFF00BF0837BD4680BD00BF2898FF1F90
:40434000A898FF1F8E82FF1F80B584B000AF88233B72144B1B681BB2FB80BB1D1B78BB72BB1D01331B787B720E4B5B681BB2FB80BB1D1B783B73BB1D01331B78FB7207F172
:40438000080305211846FFF79DFC03467B7307F1080306211846FFF701FC00BF1037BD4680BD00BF1099FF1F80B400AF00BFBD4680BC704780B400AF00BFBD4680BC704731
:4043C00080B400AF00BFBD4680BC704780B400AF00BFBD4680BC704780B400AF00BFBD4680BC704780B5ADF59C4D98B000AF024607F160035A3B1A80002307F59C4202F17C
:404400005F021370002307F59C4202F12C02136007F59C4303F130032E220021184607F0E3F907F16003543B00221A60043344F61C620021184607F0D7F93C4B1B7807F592
:404440009C4202F12C021370384B1A7807F16003543B1A70002307F59C4202F15F0213701DE007F59C4303F15F031B7807F59C4202F12C02134407F59C4202F15F02127892
:4044800003322B498A5C1A7007F59C4303F15F031B78013307F59C4202F15F02137007F59C4303F15F031B789AB207F160035A3B1B889342D5D807F59C4303F15F031B7851
:4044C00007F59C4202F12C02134400221A7007F59C4303F12C031749184607F080FF0346002B0CD007F16003543B07F59C4000F12C0044F62062194601F032F807E007F148
:404500006003543B44F62061184601F04DF802F00FFC07F16003543B184602F0E7FB00BF07F59C476037BD4680BD00BF98E20000F88DFF1F9882FF1F80B483B000AF034639
:40454000FB8000BF0C37BD4680BC704790B583B000AFFFF7DDFD4B4BB3F90030184606F093FE0346184606F0BFFA4FF00002464B06F038FC03460C46184621464FF0000287
:40458000424B06F005FB03460C461846214606F099FD03461AB23B4B1A803A4BB3F90030642B02DD374B64221A80364BB3F90030092B02DC334B00221A80354BB3F90030E1
:4045C000184606F061FE0346184606F08DFA4FF000022D4B06F006FC03460C46184621464FF00002294B06F0D3FA03460C461846214606F067FD03461AB2254B1A80244B13
:40460000B3F90030642B02DD214B64221A80204BB3F90030092B02DC1D4B00221A80194BB3F90030DAB21B4B1A70194BB3F90030DAB2184B5A70134BB3F90030DAB2154B4C
:404640001A70134BB3F90030DAB2124B5A700023FB710FE0FB79184600F0FCFC0E4B1B78002B04D00C4B00221A7000F071F9FB790133FB71FB79012BECD900BF0C37BD46C5
:4046800090BD00BF8A82FF1F0000494000003E408C82FF1F9C98FF1F8882FF1F2DE9B04384B000AFFFF796FD0346BB80B7F90430184606F007FA4FF00002574B06F0B4F860
:4046C00003460C461846214606F0FCFC0346FB80B7F90630002B01DA0023FB80B7F90630184606F0EFF94FF000024C4B06F050FA03460C4625461C46B7F90630184606F042
:40470000E1F902460B462046294606F041FA03460C4625461C46424B1B6D184606F0D2F94FF000023F4B06F033FA02460B4690469946B7F90630184606F0C4F902460B4698
:404740004046494606F024FA02460B462046294606F06CF803460C461846214606F0B2FC01462F4B1B6D2E4A126D02FB03F391FBF3F3FB60FB68002B01DA0023FB60F868FD
:4047800006F082FD0246264B5B6D1946104606F08BFF0346002B06D0214B5B6D184606F08DFF0346FB60204B1B68FA68D31A3B60B7F90630002B02DC0023BB6001E00123C2
:4047C000BB60174B9C6D386806F05EFD03461946204606F0ADFD0346184606F06FFF0346DAB2124B1A70114B1B78502B02D90F4B50221A700D4B1B78132B02D80B4B0022B7
:404800001A70BB68DBB2184602F0DCFF00BF1037BD46BDE8B08300BF0000494000003EC02898FF1F00804B409898FF1F0C98FF1F80B500AF064B1B78642B02D9044B6422EC
:404840001A70034B1B78184603F0C0FF00BF80BD2A99FF1F80B500AF0D4B1B78642B02D90B4B64221A700A4B1B789BB2184603F003FF074B5B78642B02D9054B64225A708A
:40488000034B5B789BB2184603F006FF00BF80BD9C98FF1F90B587B000AF0346FB7182233B741B4B1B681B4A92F8292013411BB2FB8107F10E031B78BB7407F10E030133EC
:4048C0001B787B7407F11003033300221A800623FB75FB7D5C1EFB7D013BDAB207F1100311461846FFF7EEF903461A4607F11803234403F8082CFB7D99B2FA7907F110033E
:404900001846FFF78FF900BF1C37BD4690BD00BFF897FF1FA898FF1F80B400AF034B01221A7000BFBD4680BC704700BF8882FF1F80B400AF044B01221A70044B1B7800BF75
:40494000BD4680BC704700BF9482FF1F034F004080B582B000AF0123FB710023BB71DFE002F0BCF803467B71744B1B78042B00F2D78001A252F823F08D490000F349000051
:404980002F4A00007D4A0000E74A00006C4B5A786B4B1A706A4B9A78694B5A70684A7B799370674B5B783A2B10D1654B9B783A2B0CD1634B00221A70614B00225A70604B62
:4049C00000229A705D4B01221A7011E05C4B1B783F2B40F0A5805A4B5B780D2B40F0A080574B9B780A2B40F09B800020FDF7D0FC96E0544B1B7C7A799A420CD07B79002BC1
:404A000009D0514B1B78002B08D04E4B93F841307A799A4202D10023FB7101E00123FB714A4B00221A70454B02221A7078E0474A7B791370454B1B78012B06D8434B002278
:404A40001A703E4B00221A706AE0404B1B78802B06D93E4B00221A70384B00221A705FE03B4B00221A70FB79002B03D1334B03221A7055E0314B04221A7051E0344B1B786C
:404A80001946344A7B795354314B1B780133DAB22F4B1A702E4B1A782C4B1B789A423FD3FB79002B12D1294B1B781A4629492A4806F08FFE254B1B781AB2274BA3F88020DC
:404AC000254B012283F88420FDF754F9204B00221A701E4B00221A70184B00221A70BB790133BB711CE0194B1B78013BDAB2174B1A70164B1B78002B11D1154B00221A7040
:404B0000124B00221A70012001F086FD002001F083FD0A4B00221A70BB790133BB7100BF02F036F80346002B03D0BB79632B7FF617AF00BF0837BD4680BD00BF248DFF1FC2
:404B4000288DFF1F2898FF1F1898FF1F2B8DFF1F2C8DFF1F308DFF1FF88DFF1F80B500AF002002F01FFE01F0D9FE03461A46694B1A80012002F0CAFA03F038FE03461A4610
:404B8000654B1A60654B1B78002B04D0634B00221A70FFF7DDFE624B93F84030002B0FD05D4B1B68002B03D15E4B00221A700AE0594B1B68002B06D05A4B01221A7002E0E7
:404BC000584B00221A70574B1B78002B3BD0012003F01AFE524B93F85C30002B09D0504B93F85D30002B04D0FFF758FDFFF7AEFC0EE04B4B93F85D30002B02D0FFF74EFDA0
:404C000006E0474B93F85C30002B01D0FFF79EFC424B1B78002B04D0404B00221A70FFF797FE00F09FF8404B93F841301846FFF731FE3A4B1B78002B11D0384B00221A7094
:404C4000FFF786FE0BE0022003F0DEFD334B1B78002B04D0314B00221A70FFF779FEFFF7E7FDFFF7F7FD2D4B1B78002B04D02B4B00221A70FFF76CFE00F04EFA274B1B78AD
:404C8000002B04D0254B00221A70FFF761FE274B274A07CA83E80700264B1B68264A1360264A274B1B881380264B1A78264B1A70264B1B681F4A1360214A254B1B88138090
:404CC000244B1A781F4B1A70144B1B78002B04D0124B00221A70FFF73BFE01F01FFE03461A461D4B1A800B4B1B881A461A4B1B88D31A184606F0C8FA03461849184606F07B
:404D0000CBFB03461A46164B1A60012002F04AFD00BF80BD0298FF1F2099FF1F8882FF1FA898FF1F1898FF1F2898FF1F1099FF1FEC8DFF1FF897FF1F1098FF1FA498FF1FE7
:404D40009C98FF1F2A99FF1F0899FF1F1498FF1FA098FF1F0C98FF1F0E98FF1F000040422498FF1F80B485B000AFA24BFB60A24B1B68A24A128E9B1ABB609F4B5B689F4A7D
:404D8000528E9B1A7B60FB681B7A023B052B00F2438101A252F823F0B14D00000D4E0000714E0000274F000019500000DB4D0000BB68002B0DDD924B5B6ABA6802FB03F25B
:404DC0008E4B1B8EC3F5806392FBF3F38D4A136025E18C4B00221A6021E1BB68002B10DD874B5A6A864B5B6AB96801FB03F1834B1B8EC3F5806391FBF3F3D31A814A136037
:404E00000DE17F4B5B6A7F4A136008E17E4B1B687C4A1360BB68002B12DD794B93F83C301A46BB6803FB02F35A00744B1B8EC3F5806392FBF3F2744B1B681344714A136047
:404E40007B68002B40F3EA806F4B1A686C4B93F83D3019467B6803FB01F35900674B5B8EC3F5806391FBF3F3D31A664A1360D5E0654B1B68634A1360644B1B78012B1AD0F7
:404E8000022B33D0002B00D04CE0BB68002B07DDBA687B689A4203DD5C4B01221A7041E07B68002B3DDD7A68BB689A4239DD574B02221A7036E0BB68002B03DA534B0022C3
:404EC0001A702FE04E4B93F83C301A46BB6803FB02F39A00494B1B8EC3F5806392FBF3F2494B1B681344474A13601BE07B68002B03DA464B00221A7014E0434B1A68404B0B
:404F000093F83D3019467B6803FB01F399003B4B5B8EC3F5806391FBF3F3D31A394A136000E000BF7BE0384B1B68364A1360374B1B78012B1AD0022B39D0002B00D06AE0B4
:404F4000BB68002B07DDBA687B689A4203DD2F4B01221A705FE07B68002B49DD7A68BB689A4245DD294B02221A7054E0BB68002B06DA7B68002B03DA244B00221A704AE0ED
:404F8000BB68002B44DD1E4B93F83C301A46BB6803FB02F39A00194B1B8EC3F5806392FBF3F2194B1B681344164A136030E0BB68002B06DA7B68002B03DA144B00221A70B3
:404FC00029E07B68002B25DD0F4B1A680B4B93F83D3019467B6803FB01F39900074B5B8EC3F5806391FBF3F3D31A064A136011E000BF14E04898FF1FEC8DFF1F2898FF1F92
:40500000A898FF1FF897FF1F1098FF1FB08DFF1F00BF04E000BF02E000BF00E000BFFB681A680B4B1B689A4203DDFB681B68084A1360FB685A68064B1B689A4203DAFB6868
:405040005B68034A136000BF1437BD4680BC7047F897FF1F80B584B000AF0346FB710023FB81FB79294AD35CFB81B7F90E30002B04DDFB79264A0121D15403E0FB79244A18
:405080000021D154B7F90E30642B01DD6423FB81B7F90E3013F1640F02DA4FF69C73FB81FB79002B02D0012B16D02BE0FB79184AD35C002B03D0002003F0FEFA02E001209C
:4050C00003F0FAFAB7F90E30002BB8BF5B429BB2184603F0D1FA15E0FB790D4AD35C002B03D0002003F0F8FA02E0012003F0F4FAB7F90E30002BB8BF5B429BB2184603F092
:40510000CBFA00BF00BF1037BD4680BD9C98FF1FB48DFF1F00000000B0B582B000AF08E0754B1B78002B04D0734B00221A70FFF70FFC02F02DF80346002BF1D06F4BB3F957
:405140000030184606F0A0F802466D4B9A606C4B9B68184606F0B2FA02466A4B1A60694B1B68184606F090F80346184605F0BCFC4FF00002644B05F035FE03460C46184670
:40518000214659A3D3E9002305F050FB03460C461846214656A3D3E9002305F023FE03460C4625461C46594B1B68184605F08AFC02460B462046294605F036FB03460C4688
:4051C0001846214605F07EFF02464E4B1A604D4B1B68002B02DA4B4B00221A604C4B00221A700CE04A4B1B781946454B002243F82120474B1B780133DAB2454B1A70444B57
:405200001B78012BEED900237B60424B93F83E3001333A4A32F913307B607B68002B01DA00237B603C49786800F0B8FD78607B689B021A46394B5B6BB2FBF3F37B602E4B89
:405240001B78002B04D02C4B00221A70FFF780FB7B68002B02DA00237B6006E07B68B3F5806F02DD4FF480637B60254A7B68136000237B60274B93F83E30C3F102031F4A90
:4052800032F913307B607B68002B01DA00237B602349786800F082FD78607B689B021A461E4B9B6BB2FBF3F37B60134B1B78002B04D0114B00221A70FFF74AFB7B68002B2D
:4052C00002DA00237B6006E07B68B3F5806F02DD4FF480637B600A4A7B68536000BF0837BD46B0BDAFF30080CAFD0E45813E813FF10F5B7A34D5633F8882FF1F9098FF1F93
:40530000EC8DFF1F9898FF1F0000B0408C98FF1FB68DFF1F2898FF1F848EFF1FA898FF1F8C8EFF1F0000000090B585B000AF01F0D3F8FEF747FD642002F026FF012001F086
:4053400051F901F079FB01F007FB01F017FB01F067FC01F0EDFC764801F078FD01F038FE744801F079FE03F0C7F903F00DF9322003F082F9322003F08FF9002003F09CF90A
:40538000002003F0A9F96C4B00221A6002F046F8012001F0BBFE694B00221A6041F6FF734FF480420121022001F0C0FE0346BB7302F070FD03463B713879614B1B789BB2F1
:4053C0005B0099B23A79062302F092FD3B795D4A92B244F61061184602F0CAFD3A79BB7B1146184602F0E8FCBB7B0121184602F02FFC01F039FA01F0A1F962B6524B32224A
:405400005A60514B3222DA600023FB7306E0FB7B4E4A0021D154FB7B0133FB73FB7B022BF5D94B4B00221A60494B00225A60494B0022A3F88020474B002283F884200120AD
:4054400003F0E2F9002001F0E7F80023BB60BB68012B38D1322002F097FE00BF01F098FE0346002BFAD0374BB3F90030184605F00BFF0246364B9A60354B9B68184605F027
:4054800033FB25A3D3E9002305F0ACFC03460C461846214622A3D3E9002305F0C7F903460C461846214620A3D3E9002305F09AFC03460C461846214605F004FE0246264B24
:4054C0001A600023BB60002001F07CF9FFF746FB08E0224B1B78002B04D0204B00221A70FFF736FA01F07EF90346002BF1D0012001F068F900BF01F075F90346012BFAD0A6
:4055000001F0CCFA03465BB2002BDCDA01F088FBD9E700BFAFF300800000000000FEAF40CAFD0E45813E813FF10F5B7A34D5633F19490000314900002099FF1FF497FF1F06
:40554000D080FF1F9098FF1F848EFF1F0898FF1FEC8DFF1FF88DFF1F8C98FF1F8882FF1F80B586B000AFF860B9607A600D49F86803F0D6FB78617B69002B0CD07A687B697C
:405580000121B86803F060FA03463B613B69BA68134400221A70786903F0FDFA00BF1837BD4680BDECE5000080B584B000AF78603960144B1B68184603F0EDFA124913486B
:4055C00003F0AEFBF860FB68002B0CD03A68FB680121786803F038FA0346BB60BB687A68134400221A70F86803F0D5FA0849074803F096FB0246034B1A6000BF1037BD4656
:4056000080BD00BF2499FF1FECE500009882FF1FF0E5000080B586B000AF164B1B68184603F0B9FA1449154803F07AFB786101F07FFB381D7B690122012103F005FA034694
:405640003B613B79184601F037FB3B69002BF0D1002001F031FB786903F09DFA0849074803F05EFB0246034B1A6000BF1837BD4680BD00BF808EFF1FECE50000D480FF1FA9
:40568000F0E5000080B5B4B000AFF860B9607A600023C7F8CC3007F1740207F188001423F96803F05EF90346002B77D100233B6107F1140360220021184606F095F807F1CE
:4056C0001003F968184606F094FE07F11003184606F097FE03461A4607F11003134435491A460B461B88138007F1740207F110031146184606F064FE07F11003184606F007
:4057000080FE03461A4607F11003134429491A460B461B88138007F11003184603F092F9C7F8C800D7F8C80003F0C7F90346C7F8C430D7F8C80003F039F9D7F8C430B3F1B0
:40574000FF3F23D007F174031B49184606F047FE0346002B1AD007F174031849184606F03EFE0346002B11D07A68D7F8CC301344DB00BA68134407F174021146184606F008
:4057800038FED7F8CC300133C7F8CC3007F18803184603F087F80346002B87D107F18803184603F054F8D7F8CC301846D037BD4680BD00BFF4E50000F8E50000FCE50000F4
:4057C000B0B5ADF5C14D88B004AF07F110030C3B186007F110030C3B1B6800221A70002307F5C04202F16C02136007F5BF4303F14003A0220021184605F0F6FF07F5047396
:40580000103B45F6C0520021184605F0EDFF07F50473103B00221946B348FFF733FF07F5C04303F16C031860002307F5C14202F10C02136022E007F5BF4202F1400207F56E
:40584000C14303F10C031B68DB00D01807F50473103B07F5C14202F10C021268D2001344194606F0C6FD07F5C14303F10C031B68013307F5C14202F10C02136007F5C14335
:4058800003F10C031A6807F5C04303F16C031B689A42D0DB07F50473103B45F6C0520021184605F0A1FF002307F5C14202F108021360002307F5C14202F10402136056E280
:4058C00007F11003043B5C221A60043360220021184605F089FF07F5BF4202F1400207F5C14303F104031B68DB001A4407F11003043B1146184606F063FD07F11003043B29
:40590000184606F07EFD03461A4607F11003043B134475491A460B461B88138007F50471103907F11003043B07F5C14202F1080212681846FFF7A6FE07F5C04303F16803D9
:405940001860002307F5C1421360002307F5C04202F17C021360002307F5C04202F178021360D2E107F19003203B5C221A60043360220021184605F037FF07F11002043AD8
:4059800007F19003203B1146184606F032FD07F5C14303F108031A6807F5C04303F178031B681A4407F50473103BD2001A4407F19003203B1146184606F002FD07F190034E
:4059C000203B184606F01DFD03461A4607F19003203B134444491A460B461B88138007F5C14303F108031A6807F5C04303F168031B681A4407F50471103907F19003203B24
:405A00001846FFF73FFE07F5C1431860002307F5C04202F17402136061E107F588733C3B5C221A60043360220021184605F0DCFE07F19002203A07F588733C3B11461846AA
:405A400006F0D7FC07F5C14303F108031A6807F5C04303F168031B681A4407F5C04303F174031B681A4407F50473103BD2001A4407F588733C3B1146184606F0A1FC07F5B2
:405A800088733C3B184606F0BCFC03461A4607F588733C3B134414491A460B461B88138007F5C14303F108031A6807F5C04303F168031B681A4407F5C1431B681A4407F519
:405AC0000471103907F588733C3B1846FFF7DAFD07F5C04303F17C031860002307F5C04202F170021360E2E0F4E5000007F5C873583B5C221A60043360220021184605F0E2
:405B000073FE07F588723C3A07F5C873583B1146184606F06EFC07F5C14303F108031A6807F5C04303F168031B681A4407F5C1431B681A4407F5C04303F170031B681A44C1
:405B400007F50473103BD2001A4407F5C873583B1146184606F034FC07F5C873583B184606F04FFC03461A4607F5C873583B134488491A460B461B88138007F5C873583BDD
:405B8000184602F05FFF07F5C04303F16403186007F5C04303F16403186802F08EFF034607F5C04202F16002136007F5C04303F16403186802F0FAFE07F50473743B0022F5
:405BC0001A60043360220021184605F00DFE07F5BF4202F1400207F5C14303F104031B68DB00D41807F5C14303F108031A6807F5C04303F178031B681A4407F50473103BEE
:405C0000D2009D1807F5C14303F108031A6807F5C04303F168031B681A4407F5C04303F174031B681A4407F50473103BD2001A4407F5C14303F10803196807F5C04303F171
:405C400068031B68194407F5C1431B68194407F5C04303F170031B68194407F50473103BC9000B4407F50470743807F5C04101F1600109680291019300922B4622464649DF
:405C800006F07AFB07F50472743A07F110030C3B1146186806F094FB07F5C04303F170031B68013307F5C04202F17002136007F5C04303F170031A6807F5C04303F17C035E
:405CC0001B689A42FFF612AF07F5C04303F174031B68013307F5C04202F17402136007F5C04303F174031A6807F5C1431B689A42FFF693AE07F5C04303F178031B680133EE
:405D000007F5C04202F17802136007F5C04303F178031A6807F5C04303F168031B689A42FFF620AE07F5C04303F168031A6807F5C1431B681A4407F5C04303F17C031B685F
:405D4000134407F5C14202F108021268134407F5C14202F10802136007F5C14303F104031B68013307F5C14202F10402136007F5C14303F104031A6807F5C04303F16C0394
:405D80001B689A42FFF69CAD00BF07F5C1471037BD46B0BDF4E5000000E6000080B485B000AF786039603B681B683A685268C2F5806202FB03F27B689B013968496801FBAA
:405DC00003F31344002B01DA03F2FF339B12FB603B68FA681A60FB68002B00DA3F339B1118461437BD4680BC704700BF80B582B000AF786039603A680021786805F0F4FCAF
:405E000000BF0837BD4680BD80B584B000AFF860B9607A607A68B968F86805F0DAFC00BF1037BD4680BD00BF80B483B000AF0346FB71FEE780B487B000AF78603960002330
:405E40003B6100237B6127E07B699B007A6813441B68BB60BB68FB73BB6823F0FF03BB6014E03B695B003A6813441B781A46BB68134419463B695B003A6813445B780B7048
:405E80003B6901333B61FB7B013BFB73FB7B002BE7D17B6901337B617B69242BD4D900BF1C37BD4680BC704780B582B000AF4E4B02221A804D4B18221A704D4B00221A80FC
:405EC0004C4B58221A704C4B00221A804B4B50221A704B4B00221A804A4B58221A704A4B03221A80494B18221A70494B4EF65F221A80484B19221A70474B03F1904303F6EE
:405F0000E833042219464548FFF77EFF444B02221A704FF0402308221A70424B03221A70414B424A1278D2B21A70414B10221A80404B41F251221A800023FB7019237B607A
:405F400014E0FB785B00DAB23B4B1B78DBB203F00103DBB21343DBB203F00303FB704FF4F07002F061FC7B68013B7B607B68002B02D0FB78032BE4D17B68002B02D103203C
:405F8000FFF752FF2D4B4FF480721A802B4B07221A702B4B00221A702A4B48221A70274B00221A70284B02221A70284B04221A70274A274B1B78DBB243F03F03DBB21370B5
:405FC000244A244B1B78DBB243F00103DBB21370214A214B1B78DBB263F07F03DBB2137000BF0837BD4680BD80400040824000408440004086400040884000408A40004025
:406000008C4000408E40004090400040924000409440004096400040A0030000004100400043004000420040A14600400801004922420040204200402542004004400040E7
:406040000640004008400040014000400B400040A2430040A1430040A043004080B483B000AF0F4B1B78FB710E4AFB7903F00703DBB213700C4AFB791B09DBB213700B4BFE
:4060800002221A700A4BC0221A700A4B2C221A70094B44221A7000BF0C37BD4680BC7047CF0100496E5800406F5800400D5100402D510040005B00407658004080B483B076
:4060C00000AF0346FB71FB79012B0ED8FB79094A52F82330FA79074951F822201178FA790548825C0A43D2B21A7000BF0C37BD4680BC704714E600001CE6000080B483B027
:4061000000AF0346FB71FB79012B10D8FB790A4A52F82330FA79084951F822201178FA790648825CD243D2B20A40D2B21A7000BF0C37BD4680BC704714E600001CE60000B2
:4061400080B586B000AF72B60023FB7513E0FA7D13465B0013445B00634A13443B613B691A683B699B889BB219461046FFF73EFEFB7D0133FB75FB7D072BE8D90023FB759F
:406180001CE0FA7D13469B0013445B00574A1344FB60FB681B68BB60FB685B687B60FB681A7A5B7A1B0213437B807B881A467968B868FFF729FEFB7D0133FB75FB7D012BF6
:4061C000DFD94B4B03F190431A46494B03F19043943319461046FFF72DFE464B0A221A70434B03F1904303F6EC33042219464248FFF70AFE414A414B1B78DBB243F0020302
:40620000DBB213703E4A3E4B1B78DBB243F00203DBB213703B4A3B4B1B78DBB243F04003DBB21370384A384B1B78DBB243F01003DBB213702E4B03F1904303F6B43308225F
:4062400019463248FFF7E0FD294B03F1904303F6BC33082219462E48FFF7D6FD244B03F1904303F6C433082219462A48FFF7CCFD1F4B03F1904303F6CC3308221946264887
:40628000FFF7C2FD1A4B03F1904303F6D433082219462248FFF7B8FD154B03F1904303F6DC330A2219461E48FFF7AEFD1D4A1D4B1B78DBB243F00803DBB213701A4B612279
:4062C0001A70FFF7F1FD184BC1221A70174B01221A70FFF7C3FE0E220A491548FFF794FD00BF1837BD4680BD20E6000050E60000A003000083580040507600400350014051
:4063000013500140A0430040C243004002510040C2510040F2510040125100402251004030510040224300400048004004000840B043004080B500AF05F006FA03461B6880
:406340000C2B00D1FEE7FEE780B584B000AF7860104B1A687B6813441A460F4BD31AB3F5006F09DC0B4B1B68FB600A4B1A687B681344084A136007E005F0E6F902460C2365
:4063800013604FF0FF33FB60FB6818461037BD4680BD00BF9C81FF1F189BFF1F80B586B000AF224B7B61224B3B61204B7B6135E03B691B68FB603B695B68BB603B699B6818
:4063C0003B6000237B600CE0FB681A68BB681A60BB680433BB60FB680433FB607B6804337B607A683B689A42EED13B69DB683B6000237B6008E0BB6800221A60BB68043396
:40640000BB607B6804337B607A683B689A42F2D13B6910333B617B69013B7B617B69002BC6D105F097F9FEF77FFFFEE7010000002CE9000080B582B000AF194B194A1A60B9
:40644000194A194B1B6843F40073136000237B600FE07B68032B04D8144A7B6852F8233000E0134B13497A6841F822307B6801337B607B682F2BECD90F4B1B78DAB20F4B2F
:406480001A700F4B0B4A1A60FFF75AFE01F0B2FB0C4B00221A6000BF0837BD4680BD00BF0CED00E00004FA0514ED00E0001D0000356300000080FF1FBC760040C480FF1F69
:4064C00008ED00E0C080FF1F80B500AF01F0F4FD01F004FE00BF80BD80B500AFFFF7F4FF00BF80BD80B500AF01F0E6FD0346DBB2184680BD80B584B000AF78600B46FB7016
:4065000001F0B4FE97F90330002B5FDB01F0BEFF0346002B57D14FF0FF33FB6010227968402001F0F1FE0346072B49D100BF2B4B1B78DBB203F00203002BF8D0274B1B784D
:40654000DBB203F00203002B08D0244B1B78DBB29B08DBB2002B01D10023FB60FB68002B2BD1FB7899B21E4B1A781D4B5B78402001F00EFF0346072B1BD14FF0FF33FB604A
:4065800000BF164B1B78DBB203F00203002BF8D0124B1B78DBB203F00203002B10D00F4B1B78DBB29B08DBB2002B09D10023FB6006E04FF0FF33FB6002E04FF0FF33FB60A3
:4065C00001F098FF04E00423FB6001E00123FB60FB6818461037BD4680BD00BF224700405499FF1F80B485B000AF0346FB71094B1B78DBB203F07F03FB730649FB79DB01CF
:40660000DAB2FB7B1343DBB20B7000BF1437BD4680BC70470051004080B485B000AF0346FB710B4B1B78DBB223F01003FB730849FB791B01DBB203F01003DAB2FB7B1343C6
:40664000DBB20B7000BF1437BD4680BC704700BF1051004080B500AF224A224B1B78DBB203F00103DBB213701F4A1F4B1B78DBB223F00303DBB213701C4A1C4B1B78DBB2C5
:4066800023F03003DBB21370184A184B1B78DBB243F03003DBB21370144A144B1B78DBB223F00F03DBB21370104A104B1B78DBB243F00F03DBB213700D4A0D4B1B78DBB21E
:4066C00043F00103DBB2137042F6DF6000F058F842F6DF6000F066F8002000F041F800BF80BD00BF0C4F00400E4F0040174F00400D4F004080B400AF0D4A0D4B1B78DBB2A7
:4067000043F00203DBB213700A4A0A4B1B78DBB243F00203DBB21370074A074B1B78DBB243F00103DBB2137000BFBD4680BC7047A3430040B34300400C4F004080B500AF66
:40674000064B1B78002B04D1FFF784FF034B01221A70FFF7CFFF00BF80BD00BFB78DFF1F80B483B000AF0346FB71044AFB79137000BF0C37BD4680BC704700BF0F4F00407B
:4067800080B485B000AF0346FB80FB88FB81044AFB89138000BF1437BD4680BC704700BF104F004080B483B000AF0346FB80044AFB88138000BF0C37BD4680BC704700BF46
:4067C000124F004080B483B000AF0346FB71044AFB79137000BF0C37BD4680BC704700BF7064004080B400AF034B1B78DBB21846BD4680BC704700BF6C64004080B582B042
:4068000000AF4FF6FF7000F05DF84FF6FF7000F075F802F011F80346FB710A4A094B1B78DBB243F01003DBB21370FB79184602F007F800F083F8002000F028F800BF083775
:40684000BD4680BD9565004080B400AF054A054B1B78DBB263F07F03DBB2137000BFBD4680BC70477664004080B500AF064B1B78002B04D1FFF7C2FF034B01221A70FFF7D8
:40688000E3FF00BF80BD00BFB88DFF1F80B483B000AF0346FB71044AFB79137000BF0C37BD4680BC704700BF8565004080B400AF034B1B78DBB21846BD4680BC704700BF83
:4068C0006565004080B483B000AF0346FB80044AFB88138000BF0C37BD4680BC704700BF486A004080B400AF034B1B889BB21846BD4680BC704700BF886A004080B483B0DA
:4069000000AF0346FB80044AFB88138000BF0C37BD4680BC704700BF086A004080B400AF044B1B78044B1B889BB21846BD4680BC704700BF04650040886A004080B500AF41
:4069400001E0FFF7CFFFFFF7B1FF034603F00803002BF6D100BF80BD80B500AF064B1B78002B04D100F00AF8034B01221A7000F031F800BF80BD00BFB98DFF1F80B500AFC6
:406980000D49022001F036FC0721022001F056FC0A4B00221A700A4B69221A70094B20221A70094B06221A70084B47221A70084B00221A7000BF80BD756D0000BA8DFF1F96
:4069C0008B640040846400402C6400403C6400408764004080B582B000AF01F02DFF0346FB71114A104B1B78DBB243F02003DBB213700E4A0D4B1B78DBB243F01003DBB29E
:406A000013700B4B04221A600A4A0A4B1B78DBB243F01003DBB21370FB79184601F010FF00BF0837BD4680BD9B6400409464004000E100E09764004080B582B000AF01F034
:406A4000FBFE0346FB71114A104B1B78DBB223F02003DBB213700E4A0D4B1B78DBB223F01003DBB213700B4B04221A600A4A0A4B1B78DBB223F01003DBB21370FB7918467F
:406A800001F0DEFE00BF0837BD4680BD9B6400409464004080E100E09764004080B483B000AF0C4B1B78DBB203F07F03FB710A4B1B78DBB2002B06D0FB7963F07F03FB713F
:406AC000054B00221A70FB7918460C37BD4680BC704700BF64640040BE8DFF1F80B483B000AF0023FB71224B04221A60214B1B78BB71214B1B787B71204B1B78DBB2002BE1
:406B000003D1BA797B799A4217D0BB791C4AD35CFB71BB790133BB71BB791F2B01D90023BB71144ABB791370144B1B78DBB2002B15D0124B00221A7011E0124B1B783B71ED
:406B40003B7903F02003002B09D00F4B1B78FB713B7903F01E03002B01D00023FB710B4B04221A60FB7918460C37BD4680BC704780E100E0BB8DFF1FBC8DFF1FBD8DFF1F24
:406B80002C99FF1F646400404364004000E100E080B483B000AF1D4B04221A601C4B1B78DAB21C4B1B78DBB29A420AD11A4B1B78DBB2002B02D02023FB711DE00023FB71A3
:406BC0001AE0134B1B78DAB2124B1B78DBB29A4208D2104B1B78DAB20D4B1B78DBB2D31AFB7109E00B4B1B78DAB2094B1B78DBB2D31ADBB22033FB71084B04221A60FB792E
:406C000018460C37BD4680BC704700BF80E100E0BB8DFF1FBC8DFF1FBD8DFF1F00E100E080B582B000AF01F007FE0346FB71154A144B1B78DBB243F00103DBB21370114A86
:406C4000104B1B78DBB223F00103DBB21370FB79184601F0F5FD0C4B04221A600B4B00221A700B4B00221A700A4B00221A700A4B00221A70094B04221A6000BF0837BD46CB
:406C800080BD00BF9364004080E100E0BB8DFF1FBC8DFF1FBD8DFF1FBE8DFF1F00E100E080B400AF034B1B78DBB21846BD4680BC704700BF6764004080B483B000AF034633
:406CC000FB7100BF074B1B78DBB203F00403002BF8D1054AFB79137000BF0C37BD4680BC704700BF676400404B64004080B584B000AF78600023FB810C4B1B78002B10D08E
:406D000009E0FB897A6813441B781846FFF7D4FFFB890133FB81FB897A6813441B78002BEFD100BF1037BD4680BD00BFB98DFF1F80B582B000AF01F07FFD0346FB710C4A8D
:406D40000B4B1B78DBB243F00103DBB21370084A074B1B78DBB223F00103DBB21370FB79184601F06DFD00BF0837BD4680BD00BF9B64004080B483B000AF0023FB712B4BE7
:406D80001B78BB71BB797B71BB7903F01E03002B0CD097F9063003F01E035AB2244B1B785BB213435BB2DAB2214B1A70BB7903F02003002B30D01F4B1B787B711E4B1B7871
:406DC000DBB219461D4A7B7953540123FB71FB79002B21D01A4B1B78DBB2002B02D0194B01221A70144B1B78DBB20133DAB2124B1A70114B1B78DBB21F2B02D90E4B0022B0
:406E00001A700D4B1B78DAB20F4B1B78DBB29A4202D10B4B01221A70BB7903F02003002BADD100BF0C37BD4680BC704764640040BA8DFF1F43640040BC8DFF1F2C99FF1F9C
:406E4000BD8DFF1FBE8DFF1FBB8DFF1F80B582B000AF786000F03CF8786800F009F8042000F018F800F028F800BF0837BD4680BD80B485B000AF7860054B1B68FB60FB6805
:406E800044337A681A6000BF1437BD4680BC704708ED00E080B483B000AF0346FB71054AFB795B01DBB2137000BF0C37BD4680BC704700BF01E400E080B400AF034B02225F
:406EC0001A6000BFBD4680BC704700BF00E100E080B400AF034B02221A6000BFBD4680BC704700BF80E100E080B500AF224A224B1B78DBB203F00103DBB213701F4A1F4BA8
:406F00001B78DBB223F00303DBB213701C4A1C4B1B78DBB223F03003DBB21370184A184B1B78DBB243F03003DBB21370144A144B1B78DBB223F00F03DBB21370104A104BA3
:406F40001B78DBB243F00F03DBB213700D4A0D4B1B78DBB243F00103DBB2137041F26F7000F058F841F26F7000F066F8082000F041F800BF80BD00BF004F0040024F0040A8
:406F80000B4F0040014F004080B400AF0D4A0D4B1B78DBB243F00103DBB213700A4A0A4B1B78DBB243F00103DBB21370074A074B1B78DBB243F00103DBB2137000BFBD46D2
:406FC00080BC7047A3430040B3430040004F004080B500AF064B1B78002B04D1FFF784FF034B01221A70FFF7CFFF00BF80BD00BFC08DFF1F80B483B000AF0346FB71044A74
:40700000FB79137000BF0C37BD4680BC704700BF034F004080B485B000AF0346FB80FB88FB81044AFB89138000BF1437BD4680BC704700BF044F004080B483B000AF03461F
:40704000FB80044AFB88138000BF0C37BD4680BC704700BF064F004080B582B000AF786000F03CF8786800F009F8072000F018F800F028F800BF0837BD4680BD80B485B024
:4070800000AF7860054B1B68FB60FB6840337A681A6000BF1437BD4680BC704708ED00E080B483B000AF0346FB71054AFB795B01DBB2137000BF0C37BD4680BC704700BF63
:4070C00000E400E080B400AF034B01221A6000BFBD4680BC704700BF00E100E080B400AF034B01221A6000BFBD4680BC704700BF80E100E080B500AF034B40221A7001F037
:4071000033F800BF80BD00BFFA46004080B483B000AF0346FB71044AFB79137000BF0C37BD4680BC704700BF7A64004090B585B002AF0446084611461A462346FB7103466C
:40714000BB710B46BB8013467B80104B0A221A700E4B1878BA79F97900230193002300930A2300F047FE094B1B787A88B988184600F0E6FD054B1B780221184600F0AEFD3B
:40718000024B1B7818460C37BD4690BDA081FF1F80B400AF034B1B78DBB21846BD4680BC704700BF6A64004080B582B002AF324B01221A70314B00221A70102000F00CFCBB
:4071C000102000F0EFFC07211D2001F037F82C4B04221A702B4B00221A702B4B00221A702A4A2A4B1B78DBB243F01803DBB21370274B00221A70274B00221A70264B00225E
:407200001A70264B0A221A70254B00221A70254B00221A70244B12221A70244B13221A70234B00221A70234B14221A70012300930C234FF4004248F66B51022000F0B8F99A
