:400000000080002011000000A9020000A9020000044A08B51268044B1A6000F0ADF900F04BF900BFFA460040BC76004010B5054C237833B9044B13B10448AFF300800123AE
:40004000237010BD4881FF1F000000001C170000084B10B51BB108490848AFF300800848036803B910BD074B002BFBD0BDE81040184700BF000000004C81FF1F1C170000A2
:40008000C880FF1F0000000008B500F077FDFEE7F8B572B66D4E0024354604EB4403AA8856F813000134002101F02CFB0A2C05F10605F2D1664E674B96E803008022186073
:4000C0009980654806F1080101F0F6FA06F1840706F1E00E0025E43657F8043F13F0FF0C23F0FF0414D00CF1FF3C5FFA8CFC05EB0C0006EB400006EB45030330013313F828
:40010000012C13F8021B98421155F8D1013565447745E1D1514C41F251262278504F42F0020222703A784F4D42F002023A702A78A4F5863442F040022A70413C2278A7F5E8
:400140007E4742F01002484B2270513F04F66E5403CB3860796003CBC5F8720DC5F8761D93E8070003C4414922800B7805F58C6543F008030B703E4C3E4861232B70A7F604
:40018000C2673D4A332118250223218005704FF040243B7008210320384B217010701A783748384BD2B287F8A123A4F8221206801C784FF4F07004F001041E4600F0D0FF91
:4001C00001E0032C0DD033784FF4F07003F0010343EA440400F0C4FF013D04F00304F0D1FEE7294B294D2A4F2A484FF4807407221C8000211A704826274A022439702E70FE
:4002000019700470137800F5F820033043F00103812601242149137085F8F86704700B78A0F5F420DBB21E49A0F2967005F5C35503F007071B4C1B090770023A0B700E35EF
:4002400044260FCA2E7007C42380F8BD201700005C17000060520040001A01400350014013500140A04300407C1B0000224300408040004082400040004200400801004916
:40028000204200402542004004400040084000400640004001400040A2430040CF0100496F580040B043004008B501F0D9F903680C2B00D0FEE7FEE780B5134FF7B1134E0E
:4002C000002556F80C0C56F8084C56F8102C03463CB1043A52F8041F43F8041B191AA142F8D156F8040C1A4620B142F8045BD11A8842FAD1013F06F11006E2D101F0B6F9E5
:40030000FFF7C2FEFEE700BF01000000D81B00000E4B0F4A0F491A600B680F4A43F400730E480B600023032B94BF50F823100C490133302B42F8041FF5D10A4B0A49187856
:400340000A4A0B4B08701A60FFF7A2BE0CED00E00004FA0514ED00E0FC7FFF1F00000000A9020000BC760040C080FF1F0080FF1F08ED00E0004700BF134A137803F0C003A3
:40038000802B00D0704770B400231048104E114D1370017833782A780F4C120442EA032322780B4353EA026301D170BC7047017833782A782078120442EA03230B4343EA24
:4003C000006070BCFFF7D6BFFA460040C1FF0300C2FF0300C3FF0300C4FF0300F0B50002C0F57F3090F8C5E390F8C67390F8C92390F8CAC390F8CB1390F8CC3390F8D15336
:40040000C1B0012D69D0DBB21D06C9B290F8C53390F8C663FFB245EA01415FFA8EFED2B25FFA8CFC0A434EEA072E43EA062642EA0C220EF10107013602EB072736020022FC
:40044000B74200F2D13415460AD916F8013B591EC9B2FD29134498BF0125B742DAB2F4D190F8C53390F8C6131D4E43EA0121B7424FEA411101F1200114BFFF084FF4004738
:400480008F4209D901F1904107F1904711F8013B1344B942DAB2F9D1534290F8C023DBB2934202D0062041B0F0BD002DFAD068464FF4807224F0FF0101F009F99DF8D1309B
:4004C000012B0AD00123C4F307216A4603208DF8D13000F0E1FB00F005FD002041B0F0BDC0FF0300013810B40B2863D8DFE800F017202632383E444A50565C060902C1F5DE
:400500007F3101F578710A784C788B78C8781B0443EA0423134343EA006010BC70470902C1F57F3101F57071087810BCC0B270470902C1F57F3101F2C131E4E70902C1F52B
:400540007F3101F2C5314A1C0B78107810BC43EA002070470902C1F57F3101F2C931D2E70902C1F57F3101F57471DDE70902C1F57F3101F2D131D7E70902C1F57F3101F2F2
:40058000D231E0E70902C1F57F3101F2D631DAE70902C1F57F3101F57571D4E70902C1F57F3101F57671AEE70902C1F57F3101F57771B9E701220021C6E700BF2DE98048DD
:4005C000ADF5677D00F0DCFD62B600239B461E4601930DF23F1451AF0DF245190DF5A3780293FF2305AA4FF4967150A800F0E8FD0028F6D1BDF81420062A03D99DF8405145
:40060000012D2CD04FF0040A0025284604210123ADF816008DF841A18DF842518DF843618DF840310023625C0139134489B29BB20029F8D15B429BB25FFA83FE1A0AC11D5C
:40064000172507F800E089B209F80020962308F800500DF1160250A800F09EFDC1E7BDF84231D91D914200F2E680B1F5967F00F2E28050AA1A449279172AC3D1191D89B2B8
:40068000002900F04A82625C0139104489B280B20029F8D1404280B250AAD11891F805E00A7942EA0E22824202D04FF0080AABE79DF841119DF844A1A1F131020A2A00F201
:4006C000AD80DFE802F04788AB5A41AB311F5A1606000020FFF782FE10B9BD4A8023137000F058FD002500F0C9FB04218A4628468DE7BBF1000F40F0BB80042100258A46CD
:40070000284684E7002BF8D1B24A082592E8030008AA82E8030087E8030001939A4628460C214FF0010B72E7BBF1000FE5D0019A03EB020EBEF5967F40F3108100252846DA
:4007400004214FF0030A62E7BBF1000FD5D00023019346E7BBF1000FCFD0002BCDD118460393FFF73BFEB0FA80F0039B40098DF844019A460521584649E734295ED0BBF15F
:40078000000FBAD0022BB8D9AAF1400B019D5FFA8BFB033B9BAA50190DF247111A46039300F08AFF019BBBF13F0F1A46039B1A4495B240F207814FF480734FF49072954288
:4007C00000F0F38000250195284604214FF0010B4FF0030A1BE7BBF1000F8ED0012B8CD1BAF1030F89D87C4B1B681B68C3F30742924500F09E8194BF012200220023FF2162
:4008000004258DF846118DF844318DF845218DF84761284608214FF0000AF8E66F4A1568002D6CD0BBF1000F6ED10025284604214FF0050AEBE64FF0030AE5E6BBF1000FA1
:400840003FF45BAF032B7FF458AFAAF1400B5FFA8BFBBBF13F0F94BF10254FF490752A4600219BA80393019500F04CFF039B90E7032B7FF442AFAAF140033F2BBDF84511CF
:4008800040F2E780FF2979D84FEA0A2E0EEB0100000200F1FF020023013812F801C963448242DBB2F9D1BAF13F0F20D80EF110720A4452011046203210F801EB73448242AB
:4008C000DBB2F9D1BAF1030F11D1FF290FD1002105200393FFF706FE039B00211B1A06205FFA83FAFFF7FEFDC0EB0A00C3B25B428DF8443105214FF0000A012087E6042160
:4009000028464FF0050A82E68DF81810ADF81A3006A80797089609960A9708A9A847BDF824000A9BB0F5937F01D3BB422ED05BB39DF82030021D91B28DF841310122030AAD
:40094000ADF816008DF842018DF840218DF8433100297FF467AE0A468E4670E61A46019B9BA90B441846394600251FFA8EF30193AA4600F0A1FE2846042148E60025284658
:4009800004214FF00A0A42E60028D1D001220E23ADF816608DF842618DF843618DF840218DF84131042100203CE6BDF845219A42019215D30025284604214FF0010B4FF016
:4009C0000A0A24E600F030FA80231022F7E600BFFA460040981B0000CC80FF1F6481FF1FBAF13F0F20D8554B02EB0A221B6892B21968C1F30F2311F0FF0F1CBF01339BB26B
:400A00009A42C0F08C80029B73B919464FF4907208A800F077FE4FF4907308AAFF21032000F0A0F9012302932B46019950469BAA00F098F9002398420CBF9A464FF00A0ABD
:400A400001931D464FF0010B00F04CFA01980421DDE5039100F0E8F903997F294FEA01138CD837483749384A18441944DFF8DCC000781A440978DFF8D8E012789C449E4445
:400A800008449CF80010DFF8CCC010449EF80020DFF8C4E09C449E4408449CF80010DFF8BCC010449EF80020DFF8B4E09C449E4408449CF80010DFF8ACC010449EF80020E5
:400AC000DFF8A4E09C449E4408449CF80010DFF89CC010449EF80020DFF894E09C449E4408449CF80010DFF88CC010449EF80020DFF884E09C4408449E449CF8001003F1A1
:400B00008043104403F500439EF8002001441B780A44134403F0FF03E9E60846BCE5002301931D46184604214FF0010B4FF00A0A6DE5C3F30723002261E600BFCC80FF1F7E
:400B40000F8000400E8000400D8000400C8000400B8000400A80004009800040088000400780004006800040058000400480004003800040028000400180004038B500F0E0
:400B800039F870BB0020FFF729FC184C0028236818BF06251A6808BF00256AB1002312F8011D0B44DBB2002AF9D162681278D31A03F0FF039A4202D0002000F05DF90C4A41
:400BC000137803F0C003402B00D025B1084B00221A70FFF7F3FC80231370BDE8384000F04DB9002000F048F9CCE700BFCC80FF1FFA46004038B500F0AFF900F05FFA10B14A
:400C00000424204638BD00F095FA072804462BD000F076FA002CF4D100F09EF900F04EFA0028EDD1012000F02DFA072805D04FF0FF3400F065FA204638BD154C02E0237812
:400C40009B07F4D40221134800F09CF90228F6D10F4C2378990705D4012000F03BF923789A07F9D50024E4E7094D2B789B0705D4012000F02FF92B789807F9D5044B1A78CB
:400C80009507D6D51B789B08D3D100F039FAC3E7224700407C81FF1FF0B53F2883B00AD8441F3A2C8CBF00240124B1F5807F17D9012003B0F0BD412894BF0024012481293F
:400CC00028BF01241027002AF2D0002CF0D116460D46044600F0F2F928B1042003B0F0BD4FF48077EFE73B4632462946204600F069F9072804D0019000F002FA0198EDE78A
:400D0000164E33789B0705D4012000F0E3F833789807F9D5114E33789F071BD533789B0818D10F4A294653782046127800F086F90728E0D102E0012000F0CCF8337899077A
:400D4000F9D5064B1A78920704D51B789B0801D11846D0E74FF0FF30CDE700BF224700407C81FF1FF0B5412883B015D8441F3A2C8CBF002401243F280FD8B1F5807F11D827
:400D800082B17CB91E4617460D46044600F096F958B1042003B0F0BD0124812928BF0124102BEDD0012003B0F0BD33463A462946204600F007F9072804D0019000F0A0F932
:400DC0000198F0E7164E33789B0705D4012000F081F833789807F9D5114E33789F071BD533789B0818D10F4A294653782046127800F024F90728E0D102E0012000F06AF8BB
:400E000033789907F9D5064B1A78920704D51B789B0801D11846D0E74FF0FF30CDE700BF224700407C81FF1F38B500F0A1F90F4A0F4913780F4C43F0080313700B78C82543
:400E400043F008030B702570137B43F0100313730B7B02F5587243F010030B7313789B06FCD5BDE8384000F087B900BFA0430040B04300400147004001BE7047024A13788B
:400E800043F0010313707047F6460040B0F5004F70B506461AD904460D4DA4F50044686800F05EF9B4F5004FF7D8A6F50043013B23F4FF4323F07F03A6F50046F61AA86885
:400EC00000FB06F0BDE8704000F04AB9004DF6E7D480FF1F024B1B7800FB03F000F040B9D480FF1F08B500F043F900BF00BF00BF00BF00BF00BF00BF00BF00BF00BF00BFD6
:400F000000BF00BF00BF00BF00BF064A13889BB243F0040313801388BFF36F8FBDE8084000F02AB900480040054B00F01F001A6800F1100352F8230042F82310704700BF29
:400F400008ED00E000F01F0000F16040490100F56440C9B20170704708B500F009F90749074A0B7843F008030B70137843F008031370BDE8084000F0FFB800BFA043004028
:400F8000B04300402DE9F0410F4699B14E1EF6B20644451E094CDFF8288002E00120FFF799FF2378DB07F9D598F8003005F8013FB542F6D13846BDE8F08100BF22470040F0
:400FC00020470040F0B41B4C2578AD071DD51A4DB6262E70D52702262F702E702478A40710D428705BB15E1EB6B21644013A12F8014FB2422C70FAD1B3F5807F08D0F0BC92
:40100000072070470920F0BC70470420F0BC70473F28F4D800F5103001EB0021490106480A46203112F8013BDBB291420370F9D1E5E700BF2247004020470040F0B40F4D53
:401040002C78A60716D50E4CB6262670D8270526277026702D78AD0709D40D0AC9B2207025702170227023700720F0BC70470920F0BC70470420F0BC704700BF2247004069
:40108000204700400B4A1378990711D530B40A4BB625E1240E211D701C7019701278920703D4187030BC07207047092030BC704704207047224700402047004038B500F019
:4010C00057F80D4A137823B1042400F055F8204638BD0125094915700C682C40F5D00C6824F001040C6000BF00BF00BF1C46556000F042F8204638BD6881FF1F0400084064
:4011000010B500F035F8094B002259681A70012908D1074C216841F00101216000BF00BF00BF5A60BDE8104000F026B86881FF1F04000840074B1B789B0708D5064BB620E1
:40114000E0210D221870197007201A7070470420704700BF2247004020470040000000000230800803D000BF01380046FCD17047EFF3108072B6704780F31088704700BFBB
:4011800008B500F071F800F04BF9BDE8084000F0A7B900BF00F0C6B8F8B50E460446174600F03EF94EB1751EADB22544013C14F8010F00F057F9AC42F9D13E800020F8BD6E
:4011C0002DE9F84303EB83035D0006468846174618BF002407D117E001340120A4B2FFF755FEAC4210DA00F0F3F80028F4D000F0EFF804461920FFF749FE00F0E9F88442CA
:40120000F5D34FF0000901E04FF0050900243C8000F0DEF8F8B100F0DBF83A8880B283189BB243453B801BD2C0B1204485B200F0A1F8631C30559CB2AC42F8D1731913F81D
:40124000013C172B02D00520FFF720FE2C4600F0BFF80028DFD14846BDE8F8832546EDE73A804846BDE8F883F8B5224D2C780CBB21492046FFF758FE20460721FFF762FE17
:401280001E4B1F492022692008701A701D4901206C70FFF749FE07210120FFF753FE1A4E1A481B4A06274724022101233770047011702B70FFF75CFF0546164C1649237823
:4012C000164A43F0200323700B78012043F010030B701060A378124843F010030221A3700160116000F09CF92846BDE8F840FFF743BF00BF7081FF1F211500008964004014
:4013000089650040B915000028640040386400408B650040996500409964004000E100E080E200E038B5FFF723FF05460D4A0E4C137803F0DF03137000F082F923780B4A1C
:40134000012003F0EF030A49237010600B78022403F0EF030B7028461460BDE83840FFF70BBF00BF996500409964004080E100E09B65004010B4114B114A0121196091786F
:40138000D3781079C9B210B9DBB2994212D04B1CDBB2402B0B4828BF0023405C93701379074CC0B20BB100232371074B01221A6010BC7047054B1878C0B2F6E780E100E0CA
:4013C0007081FF1F8081FF1F00E100E04A650040104A0121104B11609978DA7891420FD09978DA789142DA78987824BF02F14003181A0A4B38BF101A0122C0B21A60704793
:401400001B790122002B054B14BF402000201A60704700BF80E100E07081FF1F00E100E010B5FFF7A5FE0B4B0B4C1A7842F001021A701A7802F0FE021A70FFF79DFE074BD9
:4014400000220121064821609A70DA701A715A71016010BD9A65004080E100E07081FF1F00E100E070B4194DEC79AB792646DBB2591EE21A091BA2F13F02B1FA81F1B2FAF1
:4014800082F249095209A34288BF0A46002AECD1A34212D03F2C0E4A88BF00260D4B90551B789ABF0134E4B201249B07EC7102D5094B02221A6070BC7047064B1B785A07A8
:4014C000E8D4064B187070BC704700BF7081FF1FC081FF1F6B65004000E200E04865004010B5FFF745FE0A4B0A4C1A7842F001021A701A7802F0FE021A70FFF73DFE064AFF
:401500000223002105482360D1719171036010BD9865004080E100E07081FF1F00E100E02DE9F0431C481D491D4F1E4A1E4E1F4CDFF880C01E4D4FF0010E0378DBB213F03A
:401540001E0905D091F8008049EA080881F800809B0601D4BDE8F08397F8008013785FFA88F8DBB206F8038023784FF000080BB18CF800E013780133DBB2137013783F2B55
:4015800088BF82F8008092F800802B789845D4D184F800E0D1E700BF696400407181FF1F4A6500407381FF1F8081FF1F7481FF1F7281FF1F7581FF1F144A154813780178B4
:4015C000994221D0F0B513490B7803F0040303F0FF06C3B91746104D104C02E00B785B0711D413783F2B88BF3E701378DBB2EB5CDBB22370137890F800E00133DBB21370CB
:4016000013789E45EAD1F0BD704700BF7681FF1F7781FF1F6B650040C081FF1F486500400549064A0B7843F001030B70137843F001031370704700BFA2430040B2430040EF
:401640000549064A0B7803F0FE030B70137803F0FE031370704700BFA2430040B2430040014B1868704700BF4481FF1F0E4B70B51E460E4C0025E41AA410A54204D056F8C7
:40168000253098470135F8E700F08CFA084B094C1E46E41AA4100025A54204D056F8253098470135F8E770BDB01B0000B01B0000B01B0000B81B000010B5431E0A4491428E
:4016C00004D011F8014B03F8014FF8E710BD884210B501EB020301D8421E0BE09842FBD28118D21AD34204D013F8014D01F8014DF8E710BD994204D011F8014B02F8014F77
:40170000F8E710BD03460244934202D003F8011BFAE77047001D0000ED00000000000000005100401000205100401000405100403000F051004010000000014000100014B5
:4017400001400006801A0140800100400140000A004C014000020050014020001090000040000000CF083042C3003C0800100000082000000020F3000C30F3003D0FC0F055
:4017800008000084023F20C004F800010C3900C6430010C740318C003F0000FF00002800000000402105040003EC000003FFFFFF62A0F0410C00000000000000040404044F
:4017C0000000000100000000000040020010301000101012000000000000000000000000000000000152004001640040026500400107014054080140370901400414014085
:4018000003150140011701404D180140411901400D1A0140411B0140034001400241014002420140044301400147014002480140084C01400E4D014004500140015101402E
:401840000914893A89698B0FE60203010461060E071809480A400B860E0811801365142C15E61643171119601B8B1E43206121A02206260C28102D802F023020320F330774
:40188000341035F8364038023A083B083E504003474049FF4A074BFF4C404D204EF04F055008580459045A045F01604061A8624063208320850387048A028B088D038E022A
:4018C0008F0C9001950A9704980199039B04A310A710A801AF05B001B10FB320B510B602BB02BE40BF10D41AD604D804D904DB04DF0100A005800605071008800A450E2010
:401900000F0211101502161819401B021D241E211F0120402105220223042404271029012B212D802E023104331035043602371038523A143C143E083F0245084F025601C3
:4019400059025A206140634485208740C0E3C2AAC472CA9BCCE6CEEFD040D605D80DE008B980BF40D904DF012680A680B280EA0801020B011001140419011E022006280662
:401980002D01320633033401380839083E1440454102460E47BC483449FF4AFF4BFF4EF04F44500C580459045A045F0166C06A406B0284038508860C89088D088E0E900232
:4019C00091089208953D960F9702980299239A049B1C9D1E9F01A127A318A501A716A80CA926AA03AB19AC03AE0CAF1FB320B401B508B60EB71FB820BA80BB80BF04D602C6
:401A0000D712D804D904DB04DF01000403020520060408280A800E300F821209150216C0171019801BA01D081E082254241028282A012B8A2E8031143249371038A83E10F9
:401A40003F02464047104E02560657405A0869106A46705C79017A027B41910A941295109664978098809B109D039E06A210A303A450A508A720AF40B701C005C2BEC4533B
:401A8000CA1FCC2FCEAED0A0D210D602840188018C019601A201AE02B203BA08D401D604D804DB04DF0100440380059408120A120E101048114012101580164018041916A1
:401AC0001E101F0820802142281229042A402B8A30483110324138E239083A1040264102481049815C805D215E0867806A4082408C218D4090A09109928294069780988038
:401B000099A09C209D17A008A204A382A450A708C0EDC22FC49FCA0FCC0FCE0FD00FD208D6F0D880E004E88030103580CC309C109D809C109D8084109C109D80E640862085
:401B4000AD80EA105840620199089A20B508D401D802E80212807220750882018E8099089A209E01B040C408DC01DE04E202E80100010C0110011C01000F00004090900073
:401B80009000000010140400140000000000000101000000000000006910162E003C010143000000F8B500BFF8BC08BC9E4670475100000011030000F8B500BFF8BC08BC51
:401BC0009E4670472D000000D81B0000C880FF1F80000000B8000000000000001417000018170000180000000000E02EC05D000000366E010000000000000000000000004A
:401C00000000000000000000000000000000000000000000A01B000000000000000000000000000000000000000000000000000000000000000000000000000000000000E9
:401C40000000000000000000000000000000000000000000E480FF1F00000000000000000000000000000000000000000000000000000000000000000000000000000000E2
:401C80000000000000000000000000000000000000000000000000000000000000000000000000000000000000000000000000000000000000000000000000000000000024
:401CC00000000000000000000000000000000000000000000000000000000000000000000000000000000000000000000000000000000000000000000000000000000000E4
:401D000000800020111D0000C5550100C555010080B500AF13F08AFC10B5054C237833B9044B13B10448AFF300800123237010BD8882FF1F0000000024FC0100084B10B52F
:401D40001BB108490848AFF300800848036803B910BD074B002BFBD0BDE81040184700BF000000008C82FF1F24FC0100C880FF1F0000000080B58CB000AF0E4B1B7887F8F7
:401D80002F300C4BB3F98030DBB2013BDBB2194608480BF0B1FA03461946064BB3F98030013B044AD35C994206D0024B002283F8842006E31096FF1F97F82F30FA2B00F267
:401DC000FF8201A252F823F03F22000021220000C1230000452200004B2200006722000009220000C1230000C12300009B22000081220000C123000027220000BD2200001E
:401E0000C1230000C1230000C1230000C1230000C1230000C1230000C1230000C1230000C1230000C1230000C1230000C1230000C1230000C1230000C1230000C123000062
:401E4000C1230000C1230000C1230000C1230000C1230000C1230000C1230000C1230000C1230000C1230000C1230000C1230000C1230000C1230000C1230000C123000022
:401E8000C1230000C1230000C1230000C1230000C1230000C1230000C1230000C1230000C1230000C1230000C1230000C1230000C1230000C1230000C1230000C1230000E2
:401EC000C1230000C1230000C1230000C1230000C1230000C1230000C1230000C1230000C1230000C1230000C1230000C1230000C1230000C1230000C1230000C1230000A2
:401F0000C1230000C1230000C1230000C1230000C1230000C1230000C1230000C1230000C1230000C1230000C1230000C1230000C1230000C1230000C1230000C123000061
:401F4000C1230000C1230000C1230000C1230000C1230000C1230000C1230000C1230000C1230000C1230000C1230000C1230000C1230000C1230000C1230000C123000021
:401F8000C1230000C1230000C1230000C1230000C1230000C1230000C1230000C1230000C1230000C1230000C1230000C1230000C1230000C1230000C1230000C1230000E1
:401FC000C1230000C1230000B5210000F7210000BB21000003220000C1210000CD210000C7210000C1230000F1210000DF210000C1230000E5210000D3210000C1230000BA
:40200000C1230000C1230000FD210000C1230000EB210000C1230000C1230000C1230000C1230000C1230000C1230000C1230000C1230000C1230000C1230000C1230000FE
:40204000C1230000C1230000C12300005B23000061230000792300007F230000852300008B23000091230000A9230000C1230000C1230000C1230000C1230000C12300002A
:40208000C1230000C1230000C1230000C1230000C1230000C1230000C1230000C1230000C1230000C1230000C1230000C1230000C1230000C1230000C1230000C1230000E0
:4020C000C1230000C1230000C1230000C1230000C1230000C1230000C1230000C1230000C1230000C1230000C1230000C1230000C1230000C1230000C1230000C1230000A0
:40210000C1230000C1230000C1230000C1230000C1230000C1230000C1230000C1230000C1230000C1230000C1230000C1230000C1230000C1230000C1230000C12300005F
:40214000C1230000C1230000C1230000C1230000C1230000C1230000C1230000C1230000C1230000C1230000C1230000C1230000C1230000C1230000C1230000C12300001F
:40218000C1230000C1230000C1230000C1230000C1230000C1230000C1230000C1230000C1230000C1230000C1230000C1230000D92100000BF09EFF03E10BF079FE00E1A6
:4021C0000BF0FCFCFDE00CF035F8FAE00CF0CEF8F7E00CF039F9F4E00CF068F9F1E00BF081FDEEE00BF0DAFDEBE00BF033FEE8E00CF070FBE5E00BF0EFFFE2E00CF012FA8C
:40220000DFE00CF039FADCE06F4B1B88BB61BB695BBA7B617B699BB2184600F0DDF8D0E007F0EAF8CDE0684B1B88BB62BB6A5BBA3B613B699BB2184603F0D2FAC1E00CF0E8
:402240000BFABEE00CF068FABBE032200BF08CF80346002B03D001200BF06EF8B1E000200BF06AF8ADE00BF00BF90346002B03D001200BF061F8A4E000200BF05DF8A0E05E
:402280000BF02CF90346002B03D001200BF054F897E000200BF050F893E001200BF04CF84FF47A7015F07CFD002013F07BFB4FF47A7015F075FD14F04DFB82E0434B5B78AB
:4022C0001B021AB2414B9B781BB213431AB2404B5A803E4BDB781B021AB23C4B1B791BB213431AB23A4B9A80394BB3F90230B3F1FF3F0FD1364BB3F90430B3F1FF3F09D153
:40230000334B00221A70324B00225A80304B00229A8056E02E4BB3F90230002B03DA2C4B00225A8007E02A4BB3F90230C82B02DD274BC8225A80264BB3F90430002B02DAA1
:40234000234B00229A80234B00221A60204B01221A7001200AF0F0FF33E00CF0EBFA30E0194B1B887B627B6A5BBAFB60FB689BB2184606F047F924E00CF0A8FD21E00CF064
:40238000EBFD1EE00CF05EFE1BE00CF089FE18E00D4B1B883B623B6A5BBABB60BB689BB218460CF0DDFE0CE0074B1B88FB61FB695BBA7B607B689BB218460CF07BFF00E0E2
:4023C00000BF3037BD4680BD1196FF1F1096FF1F9896FF1FCCA4FF1F80B5ADF5BB4D92B000AF024607F14803423B1A8007F59C4303F1280300221A60043340F69C72002170
:4024000018461AF0F4FE07F14803403B00221A60043344F61C62002118461AF0E8FE07F14803423B1B88062B7DD801A252F823F04D2400006F24000091240000B92400000B
:40244000DB240000F9240000FF24000007F59C4303F12803184607F017F813F0BDFF07F59C4303F12803184613F094FF5CE007F59C4303F12803184608F03EFE13F0ACFF9C
:4024800007F59C4303F12803184613F083FF4BE007F59C4303F128034FF47A621946254811F00EFD13F098FF07F59C4303F12803184613F06FFF37E007F14803403B44F6B1
:4024C0002061184611F02CFD13F086FF07F14803403B184613F05EFF26E007F14803403B184611F029FE13F077FF07F14803403B184613F04FFF17E011F048FD14E007F572
:402500009C4303F128034FF47A6219460A4811F0D7FC13F061FF07F59C4303F12803184613F038FF00E000BF00BF07F5BB474837BD4680BD2C83FF1F3C81FF1FF0B5ADF5FA
:40254000BE5D87B000AF07F118040C3C206007F118001038016007F1180114390A6007F11802183A136007F15803043B00221A60043341F26C72002118461AF038FE41F2BE
:40258000707307F5BE5202F110021380002307F5BE5202F115021370002307F5BE5202F114021370002307F5BE5202F11302137007F13803183B00221A6004332E22002199
:4025C00018461AF014FE002307F5BE5202F10F021370012307F5BE5202F10E02137007F118030C3B1B681B6807F5BE5202F10802136007F5BE5303F108031B6807F5BE527E
:4026000002F10402136007F15803043B0C221A7007F15803043B53225A70002307F5BE5202F11502137003F025B807F5BE5303F115031B789A0007F118030C3B1B6813440D
:402640001B6807F5BE5202F10802136007F5BE5303F115031B78322202FB03F39A1C07F5BE5303F11503197807F11803103B1B680B44197807F15803043B995407F5BE53BB
:4026800003F115031B78322202FB03F3DA1C07F5BE5303F11503197807F11803143B1B680B44197807F15803043B995407F5BE5303F115031A7807F11803103B1B6813446D
:4026C0001B78092B2BD801A252F823F0F5260000F5260000F526000003270000032700001127000011270000112700001F270000F5260000012307F5BE5202F113021370A7
:402700000DE0022307F5BE5202F11302137006E0042307F5BE5202F11302137000BF07F5BE5303F115031B7807F5BF5202F11802126813441B78002B40F0DA8307F5BE539E
:4027400003F115031A7807F11803103B1B6813441B78092B02F2578101A252F823F000BF89270000452800008927000001290000332A00005F2B00008F2C0000BF2D0000AC
:40278000074A000089270000002307F5BE5202F11702137042E007F5BE5303F117031B7807F5BE5202F11302127802FB03F31A4607F5BE5303F108031B68134407F5BE52A7
:4027C00002F10402136007F5BE5303F115031B78322202FB03F31A1D07F5BE5303F117031B7807F5BE5101F11301097801FB03F31A4407F5BE5303F104031B68197807F19F
:402800005803043B995407F5BE5303F117031B78013307F5BE5202F11702137007F5BE5303F115031A7807F11803143B1B6813441B7807F5BE5202F1170212789A42AAD31F
:4028400002F0E1B8002307F5BE5202F11702137042E007F5BE5303F117031B7807F5BE5202F11302127802FB03F31A4607F5BE5303F108031B68134407F5BE5202F1040263
:40288000136007F5BE5303F115031B78322202FB03F31A1D07F5BE5303F117031B7807F5BE5101F11301097801FB03F31A4407F5BE5303F104031B68197807F15803043B3D
:4028C000995407F5BE5303F117031B78013307F5BE5202F11702137007F5BE5303F115031A7807F11803143B1B6813441B7807F5BE5202F1170212789A42AAD302F083B8CC
:40290000002307F5BE5202F1170213707CE007F5BE5303F117031B7807F5BE5202F11302127802FB03F31A4607F5BE5303F108031B68134407F5BE5202F10402136007F584
:40294000BE5303F104031B68B3F9002007F138031E3B1A80002307F5BE5202F1160213703BE007F5BE5303F115031B78322202FB03F31A1D07F5BE5303F117031B7807F52A
:40298000BE5101F11301097801FB03F31A4407F5BE5303F113031B781A4407F5BE5303F116031B78D31A5A1E07F5BE5303F11603197807F138031E3B0B44197807F15803AD
:4029C000043B995407F5BE5303F116031B78013307F5BE5202F11602137007F5BE5303F116031A7807F5BE5303F113031B789A42B7D307F5BE5303F117031B78013307F596
:402A0000BE5202F11702137007F5BE5303F115031A7807F11803143B1B6813441B7807F5BE5202F1170212789A42FFF470AF01F0EABF002307F5BE5202F11702137079E03C
:402A400007F5BE5303F117031B7807F5BE5202F11302127802FB03F31A4607F5BE5303F108031B68134407F5BE5202F10402136007F5BE5303F104031B681A8807F1180319
:402A80001A80002307F5BE5202F1160213703AE007F5BE5303F115031B78322202FB03F31A1D07F5BE5303F117031B7807F5BE5101F11301097801FB03F31A4407F5BE53DE
:402AC00003F113031B781A4407F5BE5303F116031B78D31A5A1E07F5BE5303F116031B7807F118010B44197807F15803043B995407F5BE5303F116031B78013307F5BE52BF
:402B000002F11602137007F5BE5303F116031A7807F5BE5303F113031B789A42B8D307F5BE5303F117031B78013307F5BE5202F11702137007F5BE5303F115031A7807F12A
:402B40001803143B1B6813441B7807F5BE5202F1170212789A42FFF473AF01F054BF002307F5BE5202F1170213707BE007F5BE5303F117031B7807F5BE5202F11302127882
:402B800002FB03F31A4607F5BE5303F108031B68134407F5BE5202F10402136007F5BE5303F104031B681A6807F11803043B1A60002307F5BE5202F1160213703BE007F5B7
:402BC000BE5303F115031B78322202FB03F31A1D07F5BE5303F117031B7807F5BE5101F11301097801FB03F31A4407F5BE5303F113031B781A4407F5BE5303F116031B7862
:402C0000D31A5A1E07F5BE5303F11603197807F11803043B0B44197807F15803043B995407F5BE5303F116031B78013307F5BE5202F11602137007F5BE5303F116031A78AC
:402C400007F5BE5303F113031B789A42B7D307F5BE5303F117031B78013307F5BE5202F11702137007F5BE5303F115031A7807F11803143B1B6813441B7807F5BE5202F14E
:402C8000170212789A42FFF471AF01F0BCBE002307F5BE5202F1170213707BE007F5BE5303F117031B7807F5BE5202F11302127802FB03F31A4607F5BE5303F108031B68D0
:402CC000134407F5BE5202F10402136007F5BE5303F104031B681A6807F11803083B1A60002307F5BE5202F1160213703BE007F5BE5303F115031B78322202FB03F31A1D26
:402D000007F5BE5303F117031B7807F5BE5101F11301097801FB03F31A4407F5BE5303F113031B781A4407F5BE5303F116031B78D31A5A1E07F5BE5303F11603197807F146
:402D40001803083B0B44197807F15803043B995407F5BE5303F116031B78013307F5BE5202F11602137007F5BE5303F116031A7807F5BE5303F113031B789A42B7D307F563
:402D8000BE5303F117031B78013307F5BE5202F11702137007F5BE5303F115031A7807F11803143B1B6813441B7807F5BE5202F1170212789A42FFF471AF01F024BE002391
:402DC00007F5BE5202F1170213707BE007F5BE5303F117031B7807F5BE5202F11302127802FB03F31A4607F5BE5303F108031B68134407F5BE5202F10402136007F5BE53D3
:402E000003F104031B681A6807F138031C3B1A60002307F5BE5202F1160213703BE007F5BE5303F115031B78322202FB03F31A1D07F5BE5303F117031B7807F5BE5101F1E1
:402E40001301097801FB03F31A4407F5BE5303F113031B781A4407F5BE5303F116031B78D31A5A1E07F5BE5303F11603197807F138031C3B0B44197807F15803043B9954BF
:402E800007F5BE5303F116031B78013307F5BE5202F11602137007F5BE5303F116031A7807F5BE5303F113031B789A42B7D307F5BE5303F117031B78013307F5BE5202F1FA
:402EC0001702137007F5BE5303F115031A7807F11803143B1B6813441B7807F5BE5202F1170212789A42FFF471AF00BF01F08BBD07F5BE5303F115031B780133023B332BB8
:402F000001F2808501A252F823F000BFDD2F0000A9340000054A0000054A0000054A0000054A000073390000054A0000054A0000E73A0000054A0000054A0000054A00005D
:402F4000054A0000054A0000054A0000054A0000054A0000054A0000054A0000054A0000B53C0000054A0000054A0000054A0000054A0000054A0000054A0000054A0000BF
:402F8000054A0000054A0000054A0000054A0000054A0000054A0000054A0000054A0000054A0000054A0000054A0000054A0000054A00007F3D00004D420000054A000074
:402FC000054A0000054A0000054A000017470000054A0000054A00003B48000007F5BE5303F10F031A78AC491346DB009B1A1B010B4403F20F131B78032B00F0298107F509
:40300000BE5303F10F031A78A3491346DB009B1A1B010B44B0331B68184619F071FE03464FF08F41184619F073FF03461A4607F138031C3B1A60002307F5BE5202F1170252
:4030400013702EE007F5BE5303F115031B78322202FB03F31A1D07F5BE5303F113031B781A4407F5BE5303F117031B78D31A5A1E07F5BE5303F11703197807F138031C3B44
:403080000B44197807F15803043B995407F5BE5303F117031B78013307F5BE5202F11702137007F5BE5303F117031A7807F5BE5303F113031B789A42C4D307F5BE5303F169
:4030C0000F031A7874491346DB009B1A1B010B44B4331B68184619F013FE03464FF08F41184619F015FF03461A4607F138031C3B1A60002307F5BE5202F11702137034E0E7
:4031000007F5BE5303F115031B78322202FB03F31A1D07F5BE5303F113031B781A4407F5BE5303F113031B781A4407F5BE5303F117031B78D31A5A1E07F5BE5303F1170327
:40314000197807F138031C3B0B44197807F15803043B995407F5BE5303F117031B78013307F5BE5202F11702137007F5BE5303F117031A7807F5BE5303F113031B789A4225
:40318000BED307F5BE5303F10F031A7842491346DB009B1A1B010B44B8331B68184619F0AFFD03464FF08F41184619F0B1FE03461A4607F138031C3B1A60002307F5BE522F
:4031C00002F11702137035E007F5BE5303F115031B78322202FB03F31A1D07F5BE5303F113031B785B001A4407F5BE5303F113031B781A4407F5BE5303F117031B78D31AFB
:403200005A1E07F5BE5303F11703197807F138031C3B0B44197807F15803043B995407F5BE5303F117031B78013307F5BE5202F11702137007F5BE5303F117031A7807F55B
:40324000BE5303F113031B789A42BDD301F0DBBB07F5BE5303F10F031A780F491346DB009B1A1B010B44C8331B68184619F048FD03464FF08F41184619F04AFE03461A4682
:4032800007F138031C3B1A60002307F5BE5202F11702137031E000BF98A1FF1F07F5BE5303F115031B78322202FB03F31A1D07F5BE5303F113031B781A4407F5BE5303F1F2
:4032C00017031B78D31A5A1E07F5BE5303F11703197807F138031C3B0B44197807F15803043B995407F5BE5303F117031B78013307F5BE5202F11702137007F5BE5303F1A9
:4033000017031A7807F5BE5303F113031B789A42C4D307F5BE5303F10F031A78AB491346DB009B1A1B010B44CC331B68184619F0E7FC03464FF08F41184619F0E9FD03461D
:403340001A4607F138031C3B1A60002307F5BE5202F11702137034E007F5BE5303F115031B78322202FB03F31A1D07F5BE5303F113031B781A4407F5BE5303F113031B783B
:403380001A4407F5BE5303F117031B78D31A5A1E07F5BE5303F11703197807F138031C3B0B44197807F15803043B995407F5BE5303F117031B78013307F5BE5202F117020D
:4033C000137007F5BE5303F117031A7807F5BE5303F113031B789A42BED307F5BE5303F10F031A7879491346DB009B1A1B010B44D0331B68184619F083FC03464FF08F4107
:40340000184619F085FD03461A4607F138031C3B1A60002307F5BE5202F11702137035E007F5BE5303F115031B78322202FB03F31A1D07F5BE5303F113031B785B001A4496
:4034400007F5BE5303F113031B781A4407F5BE5303F117031B78D31A5A1E07F5BE5303F11703197807F138031C3B0B44197807F15803043B995407F5BE5303F117031B78EE
:40348000013307F5BE5202F11702137007F5BE5303F117031A7807F5BE5303F113031B789A42BDD301F0AFBA07F5BE5303F10F031A7846491346DB009B1A1B010B4403F2A3
:4034C0000F131B78032B00F02B8107F5BE5303F10F031A783D491346DB009B1A1B010B44BC331B68184619F00BFC03464FF08F41184619F00DFD03461A4607F138031C3BF2
:403500001A60002307F5BE5202F1170213702EE007F5BE5303F115031B78322202FB03F31A1D07F5BE5303F113031B781A4407F5BE5303F117031B78D31A5A1E07F5BE53F3
:4035400003F11703197807F138031C3B0B44197807F15803043B995407F5BE5303F117031B78013307F5BE5202F11702137007F5BE5303F117031A7807F5BE5303F1130382
:403580001B789A42C4D307F5BE5303F10F031A780E491346DB009B1A1B010B44C0331B68184619F0ADFB03464FF08F41184619F0AFFC03461A4607F138031C3B1A600023F6
:4035C00007F5BE5202F11702137036E098A1FF1F07F5BE5303F115031B78322202FB03F31A1D07F5BE5303F113031B781A4407F5BE5303F113031B781A4407F5BE5303F188
:4036000017031B78D31A5A1E07F5BE5303F11703197807F138031C3B0B44197807F15803043B995407F5BE5303F117031B78013307F5BE5202F11702137007F5BE5303F165
:4036400017031A7807F5BE5303F113031B789A42BED307F5BE5303F10F031A78C8491346DB009B1A1B010B44C4331B68184619F047FB03464FF08F41184619F049FC03460D
:403680001A4607F138031C3B1A60002307F5BE5202F11702137035E007F5BE5303F115031B78322202FB03F31A1D07F5BE5303F113031B785B001A4407F5BE5303F113032F
:4036C0001B781A4407F5BE5303F117031B78D31A5A1E07F5BE5303F11703197807F138031C3B0B44197807F15803043B995407F5BE5303F117031B78013307F5BE5202F150
:403700001702137007F5BE5303F117031A7807F5BE5303F113031B789A42BDD301F073B907F5BE5303F10F031A7895491346DB009B1A1B010B44D4331B68184619F0E0FA6B
:4037400003464FF08F41184619F0E2FB03461A4607F138031C3B1A60002307F5BE5202F1170213702EE007F5BE5303F115031B78322202FB03F31A1D07F5BE5303F11303F3
:403780001B781A4407F5BE5303F117031B78D31A5A1E07F5BE5303F11703197807F138031C3B0B44197807F15803043B995407F5BE5303F117031B78013307F5BE5202F18F
:4037C0001702137007F5BE5303F117031A7807F5BE5303F113031B789A42C4D307F5BE5303F10F031A7866491346DB009B1A1B010B44D8331B68184619F082FA03464FF0C2
:403800008F41184619F084FB03461A4607F138031C3B1A60002307F5BE5202F11702137034E007F5BE5303F115031B78322202FB03F31A1D07F5BE5303F113031B781A4421
:4038400007F5BE5303F113031B781A4407F5BE5303F117031B78D31A5A1E07F5BE5303F11703197807F138031C3B0B44197807F15803043B995407F5BE5303F117031B78EA
:40388000013307F5BE5202F11702137007F5BE5303F117031A7807F5BE5303F113031B789A42BED307F5BE5303F10F031A7834491346DB009B1A1B010B44DC331B6818460F
:4038C00019F01EFA03464FF08F41184619F020FB03461A4607F138031C3B1A60002307F5BE5202F11702137035E007F5BE5303F115031B78322202FB03F31A1D07F5BE5316
:4039000003F113031B785B001A4407F5BE5303F113031B781A4407F5BE5303F117031B78D31A5A1E07F5BE5303F11703197807F138031C3B0B44197807F15803043B995481
:4039400007F5BE5303F117031B78013307F5BE5202F11702137007F5BE5303F117031A7807F5BE5303F113031B789A42BDD301F04AB8002307F5BE5202F1170213709DE0D9
:4039800098A1FF1F07F5BE5303F10F031A78C7491346DB009B1A1B010B4403F588731B78184607F5BE5303F117031A78C04903465B0003449B001344663351F8231007F51F
:4039C000BE5303F10F031A78B8481346DB009B1A1B01034403F588731B781C4607F5BE5303F117031A78B24823465B0023441B010344134403F295131B7841FA03F31AB231
:403A000007F138031E3B1A80002307F5BE5202F1160213703BE007F5BE5303F115031B78322202FB03F31A1D07F5BE5303F117031B7807F5BE5101F11301097801FB03F32C
:403A40001A4407F5BE5303F113031B781A4407F5BE5303F116031B78D31A5A1E07F5BE5303F11603197807F138031E3B0B44197807F15803043B995407F5BE5303F116031E
:403A80001B78013307F5BE5202F11602137007F5BE5303F116031A7807F5BE5303F113031B789A42B7D307F5BE5303F117031B78013307F5BE5202F11702137007F5BE535F
:403AC00003F115031A7807F11803143B1B6813441B7807F5BE5202F1170212789A42FFF451AF00F090BF07F5BE5303F10F031A786F491346DB009B1A1B010B44E433196860
:403B000007F5BE5303F10F031A7868481346DB009B1A1B01034403F588731B781846644A03465B0003441B01134403F295131B7841FA03F207F11803043B1A60002307F5A9
:403B4000BE5202F1160213702EE007F5BE5303F115031B78322202FB03F31A1D07F5BE5303F113031B781A4407F5BE5303F116031B78D31A5A1E07F5BE5303F116031978AA
:403B800007F11803043B0B44197807F15803043B995407F5BE5303F116031B78013307F5BE5202F11602137007F5BE5303F116031A7807F5BE5303F113031B789A42C4D310
:403BC00007F5BE5303F10F031A7839491346DB009B1A1B010B44E833196807F5BE5303F10F031A7831481346DB009B1A1B01034403F588731B7818462D4A03465B000344FE
:403C00001B01134403F295131B7841FA03F207F11803043B1A60002307F5BE5202F11602137034E007F5BE5303F115031B78322202FB03F31A1D07F5BE5303F113031B7840
:403C40001A4407F5BE5303F113031B781A4407F5BE5303F116031B78D31A5A1E07F5BE5303F11603197807F11803043B0B44197807F15803043B995407F5BE5303F1160356
:403C80001B78013307F5BE5202F11602137007F5BE5303F116031A7807F5BE5303F113031B789A42BED300F0AEBE00BF8CA6FF1F98A1FF1FCF4BD3F8A01207F5BE5303F186
:403CC0000F031A78CC481346DB009B1A1B01034403F588731B781846C64A03465B0003441B01134403F295131B7841FA03F207F11803043B1A60002307F5BE5202F1160208
:403D000013702EE007F5BE5303F115031B78322202FB03F31A1D07F5BE5303F113031B781A4407F5BE5303F116031B78D31A5A1E07F5BE5303F11603197807F11803043BB1
:403D40000B44197807F15803043B995407F5BE5303F116031B78013307F5BE5202F11602137007F5BE5303F116031A7807F5BE5303F113031B789A42C4D300F044BE07F5B2
:403D8000BE5303F10E031A789A491346DB009B1A1B010B4403F20F131B78032B00F02E8107F5BE5303F10E031A7892491346DB009B1A1B010B44B0331B68184618F0A0FF6F
:403DC00003464FF08F41184619F0A2F803461A4607F138031C3B1A60002307F5BE5202F1170213702EE007F5BE5303F115031B78322202FB03F31A1D07F5BE5303F11303B0
:403E00001B781A4407F5BE5303F117031B78D31A5A1E07F5BE5303F11703197807F138031C3B0B44197807F15803043B995407F5BE5303F117031B78013307F5BE5202F108
:403E40001702137007F5BE5303F117031A7807F5BE5303F113031B789A42C4D307F5BE5303F10E031A7863491346DB009B1A1B010B44B4331B68184618F042FF03464FF09F
:403E80008F41184619F044F803461A4607F138031C3B1A60002307F5BE5202F11702137034E007F5BE5303F115031B78322202FB03F31A1D07F5BE5303F113031B781A44DE
:403EC00007F5BE5303F113031B781A4407F5BE5303F117031B78D31A5A1E07F5BE5303F11703197807F138031C3B0B44197807F15803043B995407F5BE5303F117031B7864
:403F0000013307F5BE5202F11702137007F5BE5303F117031A7807F5BE5303F113031B789A42BED307F5BE5303F10E031A7831491346DB009B1A1B010B44B8331B681846B0
:403F400018F0DEFE03464FF08F41184618F0E0FF03461A4607F138031C3B1A60002307F5BE5202F11702137035E007F5BE5303F115031B78322202FB03F31A1D07F5BE5309
:403F800003F113031B785B001A4407F5BE5303F113031B781A4407F5BE5303F117031B78D31A5A1E07F5BE5303F11703197807F138031C3B0B44197807F15803043B9954FB
:403FC00007F5BE5303F117031B78013307F5BE5202F11702137007F5BE5303F117031A7807F5BE5303F113031B789A42BDD300F00ABD00BF98A1FF1F8CA6FF1F07F5BE5357
:4040000003F10E031A78AB491346DB009B1A1B010B44C8331B68184618F072FE03464FF08F41184618F074FF03461A4607F138031C3B1A60002307F5BE5202F117021370B1
:404040002EE007F5BE5303F115031B78322202FB03F31A1D07F5BE5303F113031B781A4407F5BE5303F117031B78D31A5A1E07F5BE5303F11703197807F138031C3B0B4468
:40408000197807F15803043B995407F5BE5303F117031B78013307F5BE5202F11702137007F5BE5303F117031A7807F5BE5303F113031B789A42C4D307F5BE5303F10E0397
:4040C0001A787C491346DB009B1A1B010B44CC331B68184618F014FE03464FF08F41184618F016FF03461A4607F138031C3B1A60002307F5BE5202F11702137034E007F5CD
:40410000BE5303F115031B78322202FB03F31A1D07F5BE5303F113031B781A4407F5BE5303F113031B781A4407F5BE5303F117031B78D31A5A1E07F5BE5303F11703197882
:4041400007F138031C3B0B44197807F15803043B995407F5BE5303F117031B78013307F5BE5202F11702137007F5BE5303F117031A7807F5BE5303F113031B789A42BED315
:4041800007F5BE5303F10E031A784A491346DB009B1A1B010B44D0331B68184618F0B0FD03464FF08F41184618F0B2FE03461A4607F138031C3B1A60002307F5BE5202F19E
:4041C0001702137035E007F5BE5303F115031B78322202FB03F31A1D07F5BE5303F113031B785B001A4407F5BE5303F113031B781A4407F5BE5303F117031B78D31A5A1E66
:4042000007F5BE5303F11703197807F138031C3B0B44197807F15803043B995407F5BE5303F117031B78013307F5BE5202F11702137007F5BE5303F117031A7807F5BE53B2
:4042400003F113031B789A42BDD3DCE307F5BE5303F10E031A7817491346DB009B1A1B010B4403F20F131B78032B00F02A8107F5BE5303F10E031A780E491346DB009B1AC7
:404280001B010B44BC331B68184618F039FD03464FF08F41184618F03BFE03461A4607F138031C3B1A60002307F5BE5202F11702137030E098A1FF1F07F5BE5303F11503A3
:4042C0001B78322202FB03F31A1D07F5BE5303F113031B781A4407F5BE5303F117031B78D31A5A1E07F5BE5303F11703197807F138031C3B0B44197807F15803043B9954FD
:4043000007F5BE5303F117031B78013307F5BE5202F11702137007F5BE5303F117031A7807F5BE5303F113031B789A42C4D307F5BE5303F10E031A78A2491346DB009B1ABE
:404340001B010B44C0331B68184618F0D9FC03464FF08F41184618F0DBFD03461A4607F138031C3B1A60002307F5BE5202F11702137034E007F5BE5303F115031B7832220C
:4043800002FB03F31A1D07F5BE5303F113031B781A4407F5BE5303F113031B781A4407F5BE5303F117031B78D31A5A1E07F5BE5303F11703197807F138031C3B0B4419789A
:4043C00007F15803043B995407F5BE5303F117031B78013307F5BE5202F11702137007F5BE5303F117031A7807F5BE5303F113031B789A42BED307F5BE5303F10E031A7859
:4044000070491346DB009B1A1B010B44C4331B68184618F075FC03464FF08F41184618F077FD03461A4607F138031C3B1A60002307F5BE5202F11702137035E007F5BE535F
:4044400003F115031B78322202FB03F31A1D07F5BE5303F113031B785B001A4407F5BE5303F113031B781A4407F5BE5303F117031B78D31A5A1E07F5BE5303F117031978F5
:4044800007F138031C3B0B44197807F15803043B995407F5BE5303F117031B78013307F5BE5202F11702137007F5BE5303F117031A7807F5BE5303F113031B789A42BDD3D3
:4044C000A1E207F5BE5303F10E031A783D491346DB009B1A1B010B44D4331B68184618F00FFC03464FF08F41184618F011FD03461A4607F138031C3B1A60002307F5BE5218
:4045000002F1170213702EE007F5BE5303F115031B78322202FB03F31A1D07F5BE5303F113031B781A4407F5BE5303F117031B78D31A5A1E07F5BE5303F11703197807F1F5
:4045400038031C3B0B44197807F15803043B995407F5BE5303F117031B78013307F5BE5202F11702137007F5BE5303F117031A7807F5BE5303F113031B789A42C4D307F507
:40458000BE5303F10E031A780E491346DB009B1A1B010B44D8331B68184618F0B1FB03464FF08F41184618F0B3FC03461A4607F138031C3B1A60002307F5BE5202F11702B3
:4045C000137036E098A1FF1F07F5BE5303F115031B78322202FB03F31A1D07F5BE5303F113031B781A4407F5BE5303F113031B781A4407F5BE5303F117031B78D31A5A1E7E
:4046000007F5BE5303F11703197807F138031C3B0B44197807F15803043B995407F5BE5303F117031B78013307F5BE5202F11702137007F5BE5303F117031A7807F5BE53AE
:4046400003F113031B789A42BED307F5BE5303F10E031A78C8491346DB009B1A1B010B44DC331B68184618F04BFB03464FF08F41184618F04DFC03461A4607F138031C3BAF
:404680001A60002307F5BE5202F11702137035E007F5BE5303F115031B78322202FB03F31A1D07F5BE5303F113031B785B001A4407F5BE5303F113031B781A4407F5BE530B
:4046C00003F117031B78D31A5A1E07F5BE5303F11703197807F138031C3B0B44197807F15803043B995407F5BE5303F117031B78013307F5BE5202F11702137007F5BE5395
:4047000003F117031A7807F5BE5303F113031B789A42BDD377E107F5BE5303F10E031A7896491346DB009B1A1B010B4403F588731B78184607F5BE5303F117031A788E492C
:4047400003465B0003449B001344663351F8231007F5BE5303F10E031A7888481346DB009B1A1B01034403F588731B781C4607F5BE5303F117031A787F4823465B00234400
:404780001B010344134403F295131B7841FA03F31AB207F138031E3B1A80002307F5BE5202F1160213703BE007F5BE5303F115031B78322202FB03F31A1D07F5BE5303F1E9
:4047C00017031B7807F5BE5101F11301097801FB03F31A4407F5BE5303F113031B781A4407F5BE5303F116031B78D31A5A1E07F5BE5303F11603197807F138031E3B0B448A
:40480000197807F15803043B995407F5BE5303F116031B78013307F5BE5202F11602137007F5BE5303F116031A7807F5BE5303F113031B789A42B7D3E5E007F5BE5303F16B
:404840000E031A784C491346DB009B1A1B010B44E433196807F5BE5303F10E031A7847481346DB009B1A1B01034403F588731B781846414A03465B0003441B01134403F2D3
:4048800095131B7841FA03F207F11803043B1A60002307F5BE5202F1160213702EE007F5BE5303F115031B78322202FB03F31A1D07F5BE5303F113031B781A4407F5BE53B7
:4048C00003F116031B78D31A5A1E07F5BE5303F11603197807F11803043B0B44197807F15803043B995407F5BE5303F116031B78013307F5BE5202F11602137007F5BE53CF
:4049000003F116031A7807F5BE5303F113031B789A42C4D307F5BE5303F10E031A7816491346DB009B1A1B010B44E833196807F5BE5303F10E031A7810481346DB009B1AE3
:404940001B01034403F588731B7818460A4A03465B0003441B01134403F295131B7841FA03F207F11803043B1A60002307F5BE5202F11602137038E098A1FF1F8CA6FF1F96
:4049800007F5BE5303F115031B78322202FB03F31A1D07F5BE5303F113031B781A4407F5BE5303F113031B781A4407F5BE5303F116031B78D31A5A1E07F5BE5303F1160391
:4049C000197807F11803043B0B44197807F15803043B995407F5BE5303F116031B78013307F5BE5202F11602137007F5BE5303F116031A7807F5BE5303F113031B789A42C8
:404A0000BED300E000BF07F5BE5303F115031B789B0007F5BF5202F11402126813441A6807F13803183B1146184619F0A9F907F13803183B184619F0E8F9034607F5BE528D
:404A400002F11202137007F5BE5303F115031A7807F11803103B1B6813441B78002B40F0D98407F5BE5303F114031B7807F5BF5202F11002126813441B78013B0B2B00F2F9
:404A8000BB8401A252F823F0B94A0000634C0000394D00008D4D0000F14D00004D4E0000694F0000F14F0000855000002F510000835200007753000007F5BE5303F10803D4
:404AC0001B681B78072B00F2908401A252F823F0F14A0000154B00003B4B0000694B0000954B0000BF4B0000F34B00001D4C000007F13803183B184619F087F903461A46EC
:404B000007F13803183B1344DA4A1068186012791A71A5E007F13803183B184619F075F903461A4607F13803183B1344D2491A460B4603CB1060516092E007F13803183B55
:404B4000184619F062F903461A4607F13803183B1344CA4A1D4614460FCC28606960AA60EB6023882B827BE007F13803183B184619F04BF903461A4607F13803183B134431
:404B8000BF4A1C46134607CB20606160A2601B88A38165E007F13803183B184619F035F903461A4607F13803183B1344B5491A460B4603CB106051601B88138150E007F172
:404BC0003803183B184619F020F903461A4607F13803183B1344AC4A1D4614460FCC28606960AA60EB602388A2782B821346AB7436E007F13803183B184619F006F90346B8
:404C00001A4607F13803183B1344A0491A460B4603CB106051601B88138121E007F13803183B184619F0F1F803461A4607F13803183B1344964A14469E4604F1200C754620
:404C400026460FCE28606960AA60EB6010340EF1100E6445F3D1724623461B88138000BFC3E307F5BE5303F108031B681B78032B00F2BD8301A252F823F000BF8D4C0000A1
:404C8000B74C0000DB4C0000054D000007F13803183B184619F0B9F803461A4607F13803183B13447B491A460B4603CB106051601B8813813FE007F13803183B184619F0AD
:404CC000A4F803461A4607F13803183B1344724A1068186012791A712DE007F13803183B184619F092F803461A4607F13803183B13446A491A460B4603CB106051601B78E0
:404D0000137218E007F13803183B184619F07DF803461A4607F13803183B1344604A1D4614460FCC28606960AA60EB6020682861A388AB8200BF5AE307F5BE5303F10803B5
:404D40001B681B78002B11D007F13803183B184619F05BF803461A4607F13803183B1344504A1068186012791A7145E307F13803183B184619F049F803461A4607F1380379
:404D8000183B1344484A1068186035E307F5BE5303F108031B681B78002B02D0012B14D02AE307F13803183B184619F02EF803461A4607F13803183B13443C4A1068186064
:404DC0009188927999809A7111E007F13803183B184619F01AF803461A4607F13803183B1344334A1068186092889A8000BF03E307F5BE5303F108031B681B78002B02D090
:404E0000012B12D0F8E207F13803183B184618F0FCFF03461A4607F13803183B1344254A1068186012791A710FE007F13803183B184618F0EAFF03461A4607F13803183BB5
:404E400013441D4A1068186000BFD5E207F5BE5303F108031B681B78032B00F2CA8201A252F823F0BD4E0000E14E00000D4F00003B4F000028FC010030FC010038FC0100D9
:404E80004CFC01005CFC010068FC01007CFC010088FC0100ACFC0100B8FC0100C0FC0100CCFC0100E4FC0100ECFC0100F4FC0100FCFC010004FD01000CFD010007F1380316
:404EC000183B184618F0A1FF03461A4607F13803183B1344CD4A1068186092889A8042E007F13803183B184618F08FFF03461A4607F13803183B1344C54A1C46134607CBDA
:404F000020606160A2601B88A3812CE007F13803183B184618F079FF03461A4607F13803183B1344BB4A1D4614460FCC28606960AA60EB6023882B8215E007F13803183B5B
:404F4000184618F062FF03461A4607F13803183B1344B14A1C46134607CB20606160A2601B78237300BF44E207F5BE5303F108031B681B78012B16D0022B26D0002B00D0B9
:404F800035E007F13803183B184618F03EFF03461A4607F13803183B13449C4A1068186092889A8023E007F13803183B184618F02CFF03461A4607F13803183B1344974AA2
:404FC0001068186012791A7111E007F13803183B184618F01AFF03461A4607F13803183B13448F4A1068186092889A8000BF03E207F5BE5303F108031B681B78012B1AD056
:40500000022B2CD0002B00D0F6E107F13803183B184618F0FAFE03461A4607F13803183B1344804A1C46134607CB20606160A2601B88A38125E007F13803183B184618F0B9
:40504000E4FE03461A4607F13803183B1344764A106818609188927999809A7111E007F13803183B184618F0D0FE03461A4607F13803183B13446D4A1068186012791A71E2
:4050800000BFB9E107F5BE5303F108031B681B78012B1BD0022B32D0002B00D0ACE107F13803183B184618F0B0FE03461A4607F13803183B13445E4A1D4614460FCC2860BF
:4050C0006960AA60EB60206828612FE007F13803183B184618F099FE03461A4607F13803183B1344534A1D4614460FCC28606960AA60EB6020682861A388AB8216E007F137
:405100003803183B184618F080FE03461A4607F13803183B1344484A1D4614460FCC28606960AA60EB6023782B7400BF64E107F5BE5303F108031B681B78042B00F25B814A
:4051400001A252F823F000BF5D51000089510000B7510000E35100004D52000007F13803183B184618F051FE03461A4607F13803183B1344314A1C46134607CB2060616003
:40518000A2601B88A3817BE007F13803183B184618F03BFE03461A4607F13803183B1344274A1D4614460FCC28606960AA60EB6023882B8264E007F13803183B184618F0E9
:4051C00024FE03461A4607F13803183B13441D4A1C46134607CB20606160A2601B88A3814EE007F13803183B184618F00EFE03461A4607F13803183B1344134A1C46154643
:405200000FCD20606160A260E36039E014FD01001CFD01002CFD010040FD010050FD010058FD010060FD010070FD010078FD010080FD010098FD0100B0FD0100C4FD0100F5
:40524000D4FD0100E8FD0100F8FD010007F13803183B184618F0D9FD03461A4607F13803183B1344714A1D4614460FCC28606960AA60EB602388A2782B821346AB7400BF96
:40528000B9E007F5BE5303F108031B681B78002B02D0012B37D0AFE0654B93F8AC30042B18D107F13803183B184618F0AEFD03461A4607F13803183B13445E4A1D461446C3
:4052C0000FCC28606960AA60EB6020682861A388AB824FE007F13803183B184618F095FD03461A4607F13803183B1344524A1D4614460FCC28606960AA60EB6020682861A6
:40530000A388AB8236E04A4B93F8AC30042B18D107F13803183B184618F077FD03461A4607F13803183B1344444A1D4614460FCC28606960AA60EB6020682861A388AB82D0
:4053400017E007F13803183B184618F05EFD03461A4607F13803183B1344394A1D4614460FCC28606960AA60EB6020682861A388AB8200BF40E007F5BE5303F108031B68D1
:405380001B78002B02D0012B17D035E007F13803183B184618F039FD03461A4607F13803183B1344274A1D4614460FCC28606960AA60EB602068286116E007F13803183B51
:4053C000184618F022FD03461A4607F13803183B13441D4A1D4614460FCC28606960AA60EB602068286100BF06E000BF04E000BF02E000BF00E000BF07F13803183B1846C1
:4054000018F003FD0346DBB2013307F5BE5202F11202137007F5BE5303F112031B7807F5BE5202F11702137056E000BF0CFE010098A1FF1F20FE010038FE010050FE010084
:4054400068FE010080FE010098FE010007F5BE5303F115031B78322202FB03F31A1D07F5BE5303F11303197807F5BE5303F11503187807F11803143B1B6803441B7803FB77
:4054800001F31A4407F5BE5303F112031B781A4407F5BE5303F117031B78D21A07F5BE5303F11203197807F5BE5303F117031B78C91A07F13803183B595C07F15803043BF4
:4054C000995407F5BE5303F117031B78013B07F5BE5202F11702137007F5BE5303F117031B78002BB2D107F5BE5303F115031A7807F11803103B1B6813441B78002B3CD130
:4055000007F5BE5303F115031B78322202FB03F31A1D07F5BE5303F11303197807F5BE5303F11503187807F11803143B1B6803441B7803FB01F31A4407F5BE5303F11203CB
:405540001B781A4407F5BE5303F114031B7807F5BF5101F1100109680B44197807F15803043B995407F5BE5303F114031B78013307F5BE5202F11402137007F5BE5303F138
:4055800015031A7807F11803103B1B6813441B78002B32D107F5BE5303F115031B78322202FB03F31A1D07F5BE5303F11303197807F5BE5303F11503187807F11803143B6B
:4055C0001B6803441B7803FB01F31A4407F5BE5303F112031B7813449A1C07F5BE5303F11503197807F11803183B1B680B44197807F15803043B995431E007F5BE5303F144
:4056000015031B78322202FB03F31A1D07F5BE5303F11303197807F5BE5303F11503187807F11803143B1B6803441B7803FB01F31A4407F5BE5303F112031B7813445A1C6B
:4056400007F5BE5303F11503197807F11803183B1B680B44197807F15803043B995407F5BE5303F115031B78013307F5BE5202F11502137007F5BE5303F115031B78522B96
:405680007CF6D3AF002307F5BE5202F11602137072E007F5BE5303F116031B789B0007F5BF5202F11C02126813441B68184618F0ACFB034607F5BE5202F11202137007F545
:4056C000BE5303F112031B7807F5BE5202F1170213703FE007F5BE5303F116031B78962202FB03F303F58153183307F5BE5202F1120212781A4407F5BE5303F117031B782B
:40570000D21A07F5BE5303F116031B789B0007F5BF5101F11C0109680B441B6807F5BE5101F11201087807F5BE5101F117010978411A0B44197807F15803043B995407F5FB
:40574000BE5303F117031B78013B07F5BE5202F11702137007F5BE5303F117031B78002BB8D107F5BE5303F116031B78013307F5BE5202F11602137007F5BE5303F11603A9
:405780001B780B2B85D907F5BE5303F110031B885C1E07F5BE5303F110031B88DBB2013BDAB207F15803043B1146184607F0A4FD03461A4607F15803043B1A5507F5BE53EF
:4057C00003F110031A8807F15803043B1146184607F0FEFC00BF07F5BE571C37BD46F0BDF0B5ADF29C5D04AF0246BB1D1A80002387F87D35012387F87C35054BC7F88035DF
:40580000BB1D1B88002B07D0024BC7F8803503E098A1FF1F8CA6FF1FD7F8803503F1A00207F21C431A6097F87D251346DB009B1A1B01B033D7F880251A4407F21C435A60B7
:4058400097F87D251346DB009B1A1B01B833D7F8802513441A1D07F21C439A6097F87D251346DB009B1A1B01E033D7F880251A4407F21C43DA6097F87D251346DB009B1AEC
:405880001B0103F58473D7F8802513449A1D07F21C431A6197F87D251346DB009B1A1B0103F58473D7F880251344DA1D07F21C435A6197F87D25D7F880151346DB009B1A10
:4058C0001B010B4403F588731B781A4613465B0013441B0103F5C873D7F8802513445A1D07F21C439A6197F87D25D7F880151346DB009B1A1B010B4403F588731B781A4699
:4059000013465B0013441B0103F5CC73D7F880251A4407F21C43DA6197F87D25D7F880151346DB009B1A1B010B4403F588731B781A4613465B0013441B0103F5D073D7F8A4
:40594000802513441A1D07F21C431A6297F87D251346DB009B1A1B01E033D7F880251344DA1C07F21C435A6297F87D251346DB009B1A1B01E033D7F8802513441A1D07F2BE
:405980001C439A6297F87D251346DB009B1A1B01E833D7F8802513441A1D07F21C43DA6297F87D251346DB009B1A1B0103F58473D7F8802513441A1D07F21C431A63D7F8DA
:4059C000803503F5F87207F21C435A63D7F8803503F5FF7207F21C439A63D7F8803503F5FA7207F21C43DA63D7F8803503F5FE7207F21C431A6497F87D25D7F8801513460C
:405A0000DB009B1A1B010B4403F588731B781A4613465B0013441B0103F5D873D7F880251A4407F21C435A6497F87D25D7F880151346DB009B1A1B010B4403F588731B78C4
:405A40001A4613465B0013441B0103F5D873D7F8802513441A1D07F21C439A6497F87D251346DB009B1A1B01E033D7F8802513445A1C07F21C43DA6497F87D251346DB007F
:405A80009B1A1B01F033D7F8802513441A1D07F21C431A65D7F8803503F1A10207F21C435A65D7F8803503F5287207F21C439A65D7F8803503F5297207F21C43DA65D7F8FD
:405AC000803503F52A7207F21C431A66D7F8803503F52B7207F21C435A66D7F8803503F2FF1207F21C439A66D7F8803503F1A70207F21C43DA66D7F8803503F5007207F2D2
:405B00001C431A67D7F8803503F2262207F21C435A67D7F8803503F1A80207F21C439A67D7F8803503F5087207F21C43DA67D7F8803503F2012207F21C43C3F88020D7F883
:405B4000803503F2022207F21C43C3F88420D7F8803503F1AB0207F21C43C3F88820D7F8803593F8AB3012335B01D7F880251A4407F21C43C3F88C2097F87D251346DB003F
:405B80009B1A1B0103F58873D7F880251A4407F21C43C3F8902097F87D251346DB009B1A1B01E033D7F8802513449A1C07F21C43C3F8942097F87D251346DB009B1A1B01C5
:405BC00003F58873D7F8802513445A1C07F21C43C3F8982097F87D251346DB009B1A1B0103F58873D7F8802513449A1C07F21C43C3F89C2097F87D25D7F880151346DB0064
:405C00009B1A1B010B4403F588731B781A4613465B0013441B0103F5D873D7F8802513445A1C07F21C43C3F8A02097F87D25D7F880151346DB009B1A1B010B4403F5887304
:405C40001B781A4613465B0013441B0103F5D873D7F8802513445A1D07F21C43C3F8A420D7F8803503F1A90207F21C43C3F8A82097F87C251346DB009B1A1B01B033D7F8C9
:405C800080251A4407F21C43C3F8AC2097F87C251346DB009B1A1B01B833D7F8802513441A1D07F21C43C3F8B02097F87C251346DB009B1A1B01E033D7F880251A4407F2EA
:405CC0001C43C3F8B42097F87C251346DB009B1A1B0103F58473D7F8802513449A1D07F21C43C3F8B82097F87C251346DB009B1A1B0103F58473D7F880251344DA1D07F246
:405D00001C43C3F8BC2097F87C25D7F880151346DB009B1A1B010B4403F588731B781A4613465B0013441B0103F5C873D7F8802513445A1D07F21C43C3F8C02097F87C25E0
:405D4000D7F880151346DB009B1A1B010B4403F588731B781A4613465B0013441B0103F5CC73D7F880251A4407F21C43C3F8C42097F87C25D7F880151346DB009B1A1B01C5
:405D80000B4403F588731B781A4613465B0013441B0103F5D073D7F8802513441A1D07F21C43C3F8C82097F87C251346DB009B1A1B01E033D7F880251344DA1C07F21C43EE
:405DC000C3F8CC2097F87C251346DB009B1A1B01E033D7F8802513441A1D07F21C43C3F8D02097F87C251346DB009B1A1B01E833D7F8802513441A1D07F21C43C3F8D42056
:405E000097F87C251346DB009B1A1B0103F58473D7F8802513441A1D07F21C43C3F8D82097F87C25D7F880151346DB009B1A1B010B4403F588731B781A4613465B00134458
:405E40001B0103F5D873D7F880251A4407F21C43C3F8DC2097F87C25D7F880151346DB009B1A1B010B4403F588731B781A4613465B0013441B0103F5D873D7F880251344DF
:405E80001A1D07F21C43C3F8E02097F87C251346DB009B1A1B01E033D7F8802513445A1C07F21C43C3F8E42097F87C251346DB009B1A1B01F033D7F8802513441A1D07F2A5
:405EC0001C43C3F8E82097F87C251346DB009B1A1B0103F58873D7F880251A4407F21C43C3F8EC2097F87C251346DB009B1A1B01E033D7F8802513449A1C07F21C43C3F88B
:405F0000F02097F87C251346DB009B1A1B0103F58873D7F8802513445A1C07F21C43C3F8F42097F87C251346DB009B1A1B0103F58873D7F8802513449A1C07F21C43C3F805
:405F4000F82097F87C25D7F880151346DB009B1A1B010B4403F588731B781A4613465B0013441B0103F5D873D7F8802513445A1C07F21C43C3F8FC2097F87C25D7F88015CD
:405F80001346DB009B1A1B010B4403F588731B781A4613465B0013441B0103F5D873D7F8802513445A1D07F21C43C3F80021D7F8803503F5C87207F21C43C3F80421D7F80A
:405FC000803503F5E07207F21C43C3F80821D7F8803503F2272207F21C43C3F80C21D7F8803503F50A7207F21C43C3F81021D7F8803503F22E2207F21C43C3F81421D7F848
:40600000803503F50D7207F21C43C3F81821D7F8803503F52C7207F21C43C3F81C21D7F8803503F2B22207F21C43C3F82021D7F8803503F52D7207F21C43C3F82421D7F89B
:40604000803503F1AC0207F21C43C3F82821D7F8803503F5387207F21C43C3F82C21D7F8803503F2DD2207F21C43C3F83021D7F8803503F5377207F21C43C3F83421D7F8AF
:40608000803503F5307207F21C43C3F83821D7F8803503F2C12207F21C43C3F83C21D7F8803503F5347207F21C43C3F84021D7F8803503F5357207F21C43C3F84421D7F859
:4060C000803503F5367207F21C43C3F8482107F57273F64A1846114653231A4617F07CF807F55D7301221A7007F55D7303225A7007F55D7303229A7007F55D730122DA7040
:4061000007F55D7301221A7107F55D7301225A7107F55D7303229A7107F55D730322DA7107F55D7303221A7207F55D7301225A7207F55D7302229A7207F55D730222DA7283
:4061400007F55D7301221A7307F55D7302225A7307F55D7301229A7307F55D730222DA7307F55D7302221A7407F55D7301225A7407F55D7301229A7407F55D730122DA7438
:4061800007F55D7306221A7507F55D7303225A7507F55D7301229A7507F55D730122DA7507F55D7301221A7607F55D7301225A7607F55D7301229A7607F55D730122DA76E4
:4061C00007F55D7301221A7707F55D7301225A7707F55D7301229A7707F55D730622DA7707F55D73012283F8202007F55D73052283F8212007F55D73012283F8222007F519
:406200005D73062283F8232007F55D73012283F8242007F55D73012283F8252007F55D73012283F8262007F55D73012283F8272007F55D73032283F8282007F55D73032245
:4062400083F8292007F55D73012283F82A2007F55D73032283F82B2007F55D73032283F82C2007F55D73012283F82D2007F55D73012283F82E2007F55D73012283F82F200F
:4062800007F55D73032283F8302007F55D73032283F8312007F55D73032283F8322007F55D73012283F8332007F55D73022283F8342007F55D73022283F8352007F55D739F
:4062C000012283F8362007F55D73012283F8372007F55D73012283F8382007F55D73012283F8392007F55D73062283F83A2007F55D73012283F83B2007F55D73012283F86C
:406300003C2007F55D73012283F83D2007F55D73012283F83E2007F55D73032283F83F2007F55D73032283F84020614B1A7807F55D7383F841205E4B5A7807F55D7383F833
:40634000422007F55D73012283F8432007F55D73062283F8442007F55D73062283F8452007F55D73012283F8462007F55D73012283F8472007F55D73012283F8482007F5D8
:406380005D73022283F8492007F55D73012283F84A2007F55D73012283F84B2007F55D73012283F84C2007F55D73012283F84D2007F55D73012283F84E2007F55D730122E8
:4063C00083F84F2007F55D73012283F8502007F55D73012283F8512007F55D73012283F8522007F5487300221A7097F87D350A33DAB207F548735A7097F87D350A33DAB22A
:4064000007F548739A7097F87D350A33DAB207F54873DA7097F87D350A33DAB207F548731A7197F87D350A33DAB207F548735A7197F87D25D7F880151346DB009B1A1B011E
:406440000B4403F588731B781433DAB207F548739A7197F87D25D7F880151346DB009B1A1B010B4403F588731B781433DAB207F54873DA7197F87D25D7F880151346DB00A5
:406480009B1A1B010B4403F588731B781433DAB207F548731A7297F87D350A33DAB207F548735A7297F87D3504E000BF7402020090A0FF1F0A33DAB207F548739A7297F8CE
:4064C0007D350A33DAB207F54873DA7297F87D350A33DAB207F548731A7307F548731E225A7307F548731E229A7307F548731E22DA7307F548731E221A7497F87D25D7F83F
:4065000080151346DB009B1A1B010B4403F588731B781433DAB207F548735A7497F87D25D7F880151346DB009B1A1B010B4403F588731B781433DAB207F548739A7497F8FE
:406540007D350A33DAB207F54873DA7497F87D350A33DAB207F548731A7507F5487300225A7507F5487346229A7507F548734622DA7507F5487346221A7607F54873462239
:406580005A7607F548731E229A7607F548730022DA7607F5487328221A7707F5487332225A7707F5487300229A7707F548733222DA7707F54873282283F8202007F54873B4
:4065C000282283F8212007F54873002283F82220D7F8803593F8AB303C33DAB207F5487383F8232097F87D350A33DAB207F5487383F8242097F87D350A33DAB207F5487364
:4066000083F8252097F87D350A33DAB207F5487383F8262097F87D350A33DAB207F5487383F8272097F87D25D7F880151346DB009B1A1B010B4403F588731B781433DAB253
:4066400007F5487383F8282097F87D25D7F880151346DB009B1A1B010B4403F588731B781433DAB207F5487383F8292007F54873002283F82A2097F87C350A33DAB207F540
:40668000487383F82B2097F87C350A33DAB207F5487383F82C2097F87C350A33DAB207F5487383F82D2097F87C350A33DAB207F5487383F82E2097F87C350A33DAB207F5BC
:4066C000487383F82F2097F87C25D7F880151346DB009B1A1B010B4403F588731B781433DAB207F5487383F8302097F87C25D7F880151346DB009B1A1B010B4403F5887377
:406700001B781433DAB207F5487383F8312097F87C25D7F880151346DB009B1A1B010B4403F588731B781433DAB207F5487383F8322097F87C350A33DAB207F5487383F870
:40674000332097F87C350A33DAB207F5487383F8342097F87C350A33DAB207F5487383F8352097F87C350A33DAB207F5487383F8362097F87C25D7F880151346DB009B1A99
:406780001B010B4403F588731B781433DAB207F5487383F8372097F87C25D7F880151346DB009B1A1B010B4403F588731B781433DAB207F5487383F8382097F87C350A3344
:4067C000DAB207F5487383F8392097F87C350A33DAB207F5487383F83A2097F87C350A33DAB207F5487383F83B2097F87C350A33DAB207F5487383F83C2097F87C350A3343
:40680000DAB207F5487383F83D2097F87C350A33DAB207F5487383F83E2097F87C25D7F880151346DB009B1A1B010B4403F588731B781433DAB207F5487383F83F2097F843
:406840007C25D7F880151346DB009B1A1B010B4403F588731B781433DAB207F5487383F8402007F54873142283F8412007F54873152283F8422007F54873322283F8432057
:4068800007F54873322283F8442007F54873322283F8452007F54873322283F8462007F548736E2283F8472007F548736E2283F8482007F548736E2283F8492007F54873E2
:4068C000002283F84A2007F54873642283F84B2007F548735A2283F84C2007F548735A2283F84D2007F54873502283F84E2007F54873502283F84F2007F548735A2283F866
:40690000502007F548735A2283F8512007F548735A2283F8522007F5EA73D04A184611464FF4A6731A4616F057FC07F5AE7300221A60043372220021184616F058FC07F512
:40694000AE7064230A22C64917F01AFA07F5927300221A60043334220021184616F047FCD7F8803593F8AC30042B10D107F59273BC4A1C4615460FCD0FC40FCD0FC40FCD31
:406980000FC495E803002060043421700FE007F59273B54A1C4615460FCD0FC40FCD0FC40FCD0FC495E8030020600434217007F1F403AE4A1A6007F1F403AD4A5A6007F1C0
:4069C000F403AC4A9A6007F1F403AB4ADA6007F1F403AA4A1A6107F1F403A94A5A6107F1F40307F5AE729A6107F1F403A54ADA6107F1F403A44A1A6207F1F403A34A5A6287
:406A000007F1F40307F592729A6207F1F403A04ADA6207F1D0039F4A14461E4604F1200E35462346186859689A68DB680FC5103410367445F4D13346224612781A7007F18E
:406A4000C403954A1068516803C3127A1A7007F1B003924A1C46154628686968AA68EB680FC42B8A2380232387F87B35002387F88635002387F8873521E097F8863507F1BB
:406A8000C402D35C1A4697F8873501339A420BD197F8873507F15C020121D15497F88635013387F8863505E097F8873507F15C020021D15497F88735013387F8873597F895
:406AC0008735522BD9D9002387F88635002387F8873521E097F8863507F1B002D35C1A4697F8873501339A420BD197F8873507F108020121D15497F88635013387F88635E9
:406B000005E097F8873507F108020021D15497F88735013387F8873597F88735522BD9D9BB1D1B88002B17D107F5487407F55D7207F5727107F21C4007F1F403039307F1E7
:406B40005C03029307F5EA73019307F1D00300932346FBF7F3FCDFE2BB1D1B88DBB2013B87F87A3597F87A3507F57272D35C092B22D801A252F823F0A16B0000A16B0000C6
:406B8000A16B0000A96B0000A96B0000B16B0000B16B0000B16B0000B96B0000A16B0000012387F8853507E0022387F8853503E0042387F8853500BF97F87A3507F1080239
:406BC000D35C002B40F03B8297F87A3507F57272D35C092B00F23C8201A252F823F000BF096C0000076D0000096C0000596D0000EF6D0000836E0000176F0000AB6F00004D
:406C000051700000556C0000002387F8873517E097F87A2507F21C4353F8223097F8872597F8851501FB02F2134497F8872503321B498A5C1A7097F88735013387F88735B1
:406C400097F87A3507F55D72D35C97F887259A42DED3FEE1002387F887353BE0500B0200B0FE010024FF01005CFF010094FF010020000200600002008C000200A4000200E4
:406C8000CC0002002801020064010200C4010200400202009C0C0200C00C0200CC0C02001096FF1F97F87A2507F21C4353F8223097F8872597F8851501FB02F2134497F8F6
:406CC00087250332E1498A5C1A7097F88735013387F8873597F87A3507F55D72D35C97F887259A42DED397F87A2507F21C4353F8223097F8872597F8851501FB02F2134491
:406D000000221A70A5E1002387F887351AE097F87A2507F21C4353F8223097F8872597F8851501FB02F2134497F887250332C7490A4492F90020D2B21A7097F887350133F5
:406D400087F8873597F87A3507F55D72D35C97F887259A42DBD37CE1002387F887353CE097F8873597F8852502FB03F30333B74A1344B3F90030A7F87835002387F886357A
:406D800020E097F87A2507F21C4353F8222097F8873597F8851501FB03F3184697F8851597F88635CB1A0344013B134497F8862507F5AF610A4412781A7097F886350133A4
:406DC00087F8863597F8862597F885359A42D8D397F88735013387F8873597F87A3507F55D72D35C97F887259A42B9D331E1002387F887353BE097F8873597F8852502FBAE
:406E000003F30333914A13441B88A7F87635002387F8863520E097F87A2507F21C4353F8222097F8873597F8851501FB03F3184697F8851597F88635CB1A0344013B1344A1
:406E400097F8862507F276510A4412781A7097F88635013387F8863597F8862597F885359A42D8D397F88735013387F8873597F87A3507F55D72D35C97F887259A42BAD35E
:406E8000E7E0002387F887353BE097F8873597F8852502FB03F303336C4A13441B68C7F87035002387F8863520E097F87A2507F21C4353F8222097F8873597F8851501FB11
:406EC00003F3184697F8851597F88635CB1A0344013B134497F8862507F5AE610A4412781A7097F88635013387F8863597F8862597F885359A42D8D397F88735013387F8A5
:406F0000873597F87A3507F55D72D35C97F887259A42BAD39DE0002387F887353BE097F8873597F8852502FB03F30333474A13441B68C7F86C35002387F8863520E097F85F
:406F40007A2507F21C4353F8222097F8873597F8851501FB03F3184697F8851597F88635CB1A0344013B134497F8862507F26C510A4412781A7097F88635013387F886358D
:406F800097F8862597F885359A42D8D397F88735013387F8873597F87A3507F55D72D35C97F887259A42BAD353E0002387F887353BE097F8873597F8852502FB03F30333D8
:406FC000224A13441B68C7F86835002387F8863520E097F87A2507F21C4353F8222097F8873597F8851501FB03F3184697F8851597F88635CB1A0344013B134497F886254F
:4070000007F5AD610A4412781A7097F88635013387F8863597F8862597F885359A42D8D397F88735013387F8873597F87A3507F55D72D35C97F887259A42BAD309E0BB1DCB
:407040001B88184600F070F803E000BF1096FF1F00BF97F87B359BB2BA1D12889A4211D0D7F8803593F8AB305B0103F51273D7F88025D018D7F8803503F5F8731022194641
:4070800016F0AAF897F87A3507F57272D35C002B42D1002387F87F35FF2387F87E3597F87F3507F57272D35C002B04D197F87E35013387F87E3597F87F35013387F87F354F
:4070C00097F87F2597F87A359A42E8D997F87E3507F1D002D35C052B1BD097F87E3507F1D002D35C062B14D097F87E3507F1D002D35C082B0DD097F87E3507F1D002D35C56
:40710000092B06D097F87E3507F1D002D35C0A2B02D1044B01221A7000BF07F28C57BD46F0BD00BFC182FF1FF0B587B000AF0346FB8000233B750123FB74FB88023B492BB2
:4071400001F24C8201A252F823F000BF75720000A7740000DD850000ED760000DD850000DD85000037770000DD850000DD85000071780000DD850000DD850000DD85000083
:40718000DD850000DD850000DD850000DD850000DD850000DD850000DD850000DD85000071790000CF790000DD850000DD850000DD850000097A0000DD850000DD85000020
:4071C000857B0000317C0000DD850000DD850000DD850000DD850000DD8500006B7C0000DD850000DD850000DD850000DD850000DD8500008B7C0000D37E0000DD8500006D
:4072000001810000DD850000DD85000049810000DD850000DD85000081820000DD850000DD850000DD850000DD850000DD850000DD850000DD8500007F830000DD85000065
