:400000000080002011000000A9020000A9020000044A08B51268044B1A6000F0ADF900F04BF900BFFA460040BC76004010B5054C237833B9044B13B10448AFF300800123AE
:40004000237010BD4881FF1F000000001C170000084B10B51BB108490848AFF300800848036803B910BD074B002BFBD0BDE81040184700BF000000004C81FF1F1C170000A2
:40008000C880FF1F0000000008B500F077FDFEE7F8B572B66D4E0024354604EB4403AA8856F813000134002101F02CFB0A2C05F10605F2D1664E674B96E803008022186073
:4000C0009980654806F1080101F0F6FA06F1840706F1E00E0025E43657F8043F13F0FF0C23F0FF0414D00CF1FF3C5FFA8CFC05EB0C0006EB400006EB45030330013313F828
:40010000012C13F8021B98421155F8D1013565447745E1D1514C41F251262278504F42F0020222703A784F4D42F002023A702A78A4F5863442F040022A70413C2278A7F5E8
:400140007E4742F01002484B2270513F04F66E5403CB3860796003CBC5F8720DC5F8761D93E8070003C4414922800B7805F58C6543F008030B703E4C3E4861232B70A7F604
:40018000C2673D4A332118250223218005704FF040243B7008210320384B217010701A783748384BD2B287F8A123A4F8221206801C784FF4F07004F001041E4600F0D0FF91
:4001C00001E0032C0DD033784FF4F07003F0010343EA440400F0C4FF013D04F00304F0D1FEE7294B294D2A4F2A484FF4807407221C8000211A704826274A022439702E70FE
:4002000019700470137800F5F820033043F00103812601242149137085F8F86704700B78A0F5F420DBB21E49A0F2967005F5C35503F007071B4C1B090770023A0B700E35EF
:4002400044260FCA2E7007C42380F8BD201700005C17000060520040001A01400350014013500140A04300407C1B0000224300408040004082400040004200400801004916
:40028000204200402542004004400040084000400640004001400040A2430040CF0100496F580040B043004008B501F0D9F903680C2B00D0FEE7FEE780B5134FF7B1134E0E
:4002C000002556F80C0C56F8084C56F8102C03463CB1043A52F8041F43F8041B191AA142F8D156F8040C1A4620B142F8045BD11A8842FAD1013F06F11006E2D101F0B6F9E5
:40030000FFF7C2FEFEE700BF01000000D81B00000E4B0F4A0F491A600B680F4A43F400730E480B600023032B94BF50F823100C490133302B42F8041FF5D10A4B0A49187856
:400340000A4A0B4B08701A60FFF7A2BE0CED00E00004FA0514ED00E0FC7FFF1F00000000A9020000BC760040C080FF1F0080FF1F08ED00E0004700BF134A137803F0C003A3
:40038000802B00D0704770B400231048104E114D1370017833782A780F4C120442EA032322780B4353EA026301D170BC7047017833782A782078120442EA03230B4343EA24
:4003C000006070BCFFF7D6BFFA460040C1FF0300C2FF0300C3FF0300C4FF0300F0B50002C0F57F3090F8C5E390F8C67390F8C92390F8CAC390F8CB1390F8CC3390F8D15336
:40040000C1B0012D69D0DBB21D06C9B290F8C53390F8C663FFB245EA01415FFA8EFED2B25FFA8CFC0A434EEA072E43EA062642EA0C220EF10107013602EB072736020022FC
:40044000B74200F2D13415460AD916F8013B591EC9B2FD29134498BF0125B742DAB2F4D190F8C53390F8C6131D4E43EA0121B7424FEA411101F1200114BFFF084FF4004738
:400480008F4209D901F1904107F1904711F8013B1344B942DAB2F9D1534290F8C023DBB2934202D0062041B0F0BD002DFAD068464FF4807224F0FF0101F009F99DF8D1309B
:4004C000012B0AD00123C4F307216A4603208DF8D13000F0E1FB00F005FD002041B0F0BDC0FF0300013810B40B2863D8DFE800F017202632383E444A50565C060902C1F5DE
:400500007F3101F578710A784C788B78C8781B0443EA0423134343EA006010BC70470902C1F57F3101F57071087810BCC0B270470902C1F57F3101F2C131E4E70902C1F52B
:400540007F3101F2C5314A1C0B78107810BC43EA002070470902C1F57F3101F2C931D2E70902C1F57F3101F57471DDE70902C1F57F3101F2D131D7E70902C1F57F3101F2F2
:40058000D231E0E70902C1F57F3101F2D631DAE70902C1F57F3101F57571D4E70902C1F57F3101F57671AEE70902C1F57F3101F57771B9E701220021C6E700BF2DE98048DD
:4005C000ADF5677D00F0DCFD62B600239B461E4601930DF23F1451AF0DF245190DF5A3780293FF2305AA4FF4967150A800F0E8FD0028F6D1BDF81420062A03D99DF8405145
:40060000012D2CD04FF0040A0025284604210123ADF816008DF841A18DF842518DF843618DF840310023625C0139134489B29BB20029F8D15B429BB25FFA83FE1A0AC11D5C
:40064000172507F800E089B209F80020962308F800500DF1160250A800F09EFDC1E7BDF84231D91D914200F2E680B1F5967F00F2E28050AA1A449279172AC3D1191D89B2B8
:40068000002900F04A82625C0139104489B280B20029F8D1404280B250AAD11891F805E00A7942EA0E22824202D04FF0080AABE79DF841119DF844A1A1F131020A2A00F201
:4006C000AD80DFE802F04788AB5A41AB311F5A1606000020FFF782FE10B9BD4A8023137000F058FD002500F0C9FB04218A4628468DE7BBF1000F40F0BB80042100258A46CD
:40070000284684E7002BF8D1B24A082592E8030008AA82E8030087E8030001939A4628460C214FF0010B72E7BBF1000FE5D0019A03EB020EBEF5967F40F3108100252846DA
:4007400004214FF0030A62E7BBF1000FD5D00023019346E7BBF1000FCFD0002BCDD118460393FFF73BFEB0FA80F0039B40098DF844019A460521584649E734295ED0BBF15F
:40078000000FBAD0022BB8D9AAF1400B019D5FFA8BFB033B9BAA50190DF247111A46039300F08AFF019BBBF13F0F1A46039B1A4495B240F207814FF480734FF49072954288
:4007C00000F0F38000250195284604214FF0010B4FF0030A1BE7BBF1000F8ED0012B8CD1BAF1030F89D87C4B1B681B68C3F30742924500F09E8194BF012200220023FF2162
:4008000004258DF846118DF844318DF845218DF84761284608214FF0000AF8E66F4A1568002D6CD0BBF1000F6ED10025284604214FF0050AEBE64FF0030AE5E6BBF1000FA1
:400840003FF45BAF032B7FF458AFAAF1400B5FFA8BFBBBF13F0F94BF10254FF490752A4600219BA80393019500F04CFF039B90E7032B7FF442AFAAF140033F2BBDF84511CF
:4008800040F2E780FF2979D84FEA0A2E0EEB0100000200F1FF020023013812F801C963448242DBB2F9D1BAF13F0F20D80EF110720A4452011046203210F801EB73448242AB
:4008C000DBB2F9D1BAF1030F11D1FF290FD1002105200393FFF706FE039B00211B1A06205FFA83FAFFF7FEFDC0EB0A00C3B25B428DF8443105214FF0000A012087E6042160
:4009000028464FF0050A82E68DF81810ADF81A3006A80797089609960A9708A9A847BDF824000A9BB0F5937F01D3BB422ED05BB39DF82030021D91B28DF841310122030AAD
:40094000ADF816008DF842018DF840218DF8433100297FF467AE0A468E4670E61A46019B9BA90B441846394600251FFA8EF30193AA4600F0A1FE2846042148E60025284658
:4009800004214FF00A0A42E60028D1D001220E23ADF816608DF842618DF843618DF840218DF84131042100203CE6BDF845219A42019215D30025284604214FF0010B4FF016
:4009C0000A0A24E600F030FA80231022F7E600BFFA460040981B0000CC80FF1F6481FF1FBAF13F0F20D8554B02EB0A221B6892B21968C1F30F2311F0FF0F1CBF01339BB26B
:400A00009A42C0F08C80029B73B919464FF4907208A800F077FE4FF4907308AAFF21032000F0A0F9012302932B46019950469BAA00F098F9002398420CBF9A464FF00A0ABD
:400A400001931D464FF0010B00F04CFA01980421DDE5039100F0E8F903997F294FEA01138CD837483749384A18441944DFF8DCC000781A440978DFF8D8E012789C449E4445
:400A800008449CF80010DFF8CCC010449EF80020DFF8C4E09C449E4408449CF80010DFF8BCC010449EF80020DFF8B4E09C449E4408449CF80010DFF8ACC010449EF80020E5
:400AC000DFF8A4E09C449E4408449CF80010DFF89CC010449EF80020DFF894E09C449E4408449CF80010DFF88CC010449EF80020DFF884E09C4408449E449CF8001003F1A1
:400B00008043104403F500439EF8002001441B780A44134403F0FF03E9E60846BCE5002301931D46184604214FF0010B4FF00A0A6DE5C3F30723002261E600BFCC80FF1F7E
:400B40000F8000400E8000400D8000400C8000400B8000400A80004009800040088000400780004006800040058000400480004003800040028000400180004038B500F0E0
:400B800039F870BB0020FFF729FC184C0028236818BF06251A6808BF00256AB1002312F8011D0B44DBB2002AF9D162681278D31A03F0FF039A4202D0002000F05DF90C4A41
:400BC000137803F0C003402B00D025B1084B00221A70FFF7F3FC80231370BDE8384000F04DB9002000F048F9CCE700BFCC80FF1FFA46004038B500F0AFF900F05FFA10B14A
:400C00000424204638BD00F095FA072804462BD000F076FA002CF4D100F09EF900F04EFA0028EDD1012000F02DFA072805D04FF0FF3400F065FA204638BD154C02E0237812
:400C40009B07F4D40221134800F09CF90228F6D10F4C2378990705D4012000F03BF923789A07F9D50024E4E7094D2B789B0705D4012000F02FF92B789807F9D5044B1A78CB
:400C80009507D6D51B789B08D3D100F039FAC3E7224700407C81FF1FF0B53F2883B00AD8441F3A2C8CBF00240124B1F5807F17D9012003B0F0BD412894BF0024012481293F
:400CC00028BF01241027002AF2D0002CF0D116460D46044600F0F2F928B1042003B0F0BD4FF48077EFE73B4632462946204600F069F9072804D0019000F002FA0198EDE78A
:400D0000164E33789B0705D4012000F0E3F833789807F9D5114E33789F071BD533789B0818D10F4A294653782046127800F086F90728E0D102E0012000F0CCF8337899077A
:400D4000F9D5064B1A78920704D51B789B0801D11846D0E74FF0FF30CDE700BF224700407C81FF1FF0B5412883B015D8441F3A2C8CBF002401243F280FD8B1F5807F11D827
:400D800082B17CB91E4617460D46044600F096F958B1042003B0F0BD0124812928BF0124102BEDD0012003B0F0BD33463A462946204600F007F9072804D0019000F0A0F932
:400DC0000198F0E7164E33789B0705D4012000F081F833789807F9D5114E33789F071BD533789B0818D10F4A294653782046127800F024F90728E0D102E0012000F06AF8BB
:400E000033789907F9D5064B1A78920704D51B789B0801D11846D0E74FF0FF30CDE700BF224700407C81FF1F38B500F0A1F90F4A0F4913780F4C43F0080313700B78C82543
:400E400043F008030B702570137B43F0100313730B7B02F5587243F010030B7313789B06FCD5BDE8384000F087B900BFA0430040B04300400147004001BE7047024A13788B
:400E800043F0010313707047F6460040B0F5004F70B506461AD904460D4DA4F50044686800F05EF9B4F5004FF7D8A6F50043013B23F4FF4323F07F03A6F50046F61AA86885
:400EC00000FB06F0BDE8704000F04AB9004DF6E7D480FF1F024B1B7800FB03F000F040B9D480FF1F08B500F043F900BF00BF00BF00BF00BF00BF00BF00BF00BF00BF00BFD6
:400F000000BF00BF00BF00BF00BF064A13889BB243F0040313801388BFF36F8FBDE8084000F02AB900480040054B00F01F001A6800F1100352F8230042F82310704700BF29
:400F400008ED00E000F01F0000F16040490100F56440C9B20170704708B500F009F90749074A0B7843F008030B70137843F008031370BDE8084000F0FFB800BFA043004028
:400F8000B04300402DE9F0410F4699B14E1EF6B20644451E094CDFF8288002E00120FFF799FF2378DB07F9D598F8003005F8013FB542F6D13846BDE8F08100BF22470040F0
:400FC00020470040F0B41B4C2578AD071DD51A4DB6262E70D52702262F702E702478A40710D428705BB15E1EB6B21644013A12F8014FB2422C70FAD1B3F5807F08D0F0BC92
:40100000072070470920F0BC70470420F0BC70473F28F4D800F5103001EB0021490106480A46203112F8013BDBB291420370F9D1E5E700BF2247004020470040F0B40F4D53
:401040002C78A60716D50E4CB6262670D8270526277026702D78AD0709D40D0AC9B2207025702170227023700720F0BC70470920F0BC70470420F0BC704700BF2247004069
:40108000204700400B4A1378990711D530B40A4BB625E1240E211D701C7019701278920703D4187030BC07207047092030BC704704207047224700402047004038B500F019
:4010C00057F80D4A137823B1042400F055F8204638BD0125094915700C682C40F5D00C6824F001040C6000BF00BF00BF1C46556000F042F8204638BD6881FF1F0400084064
:4011000010B500F035F8094B002259681A70012908D1074C216841F00101216000BF00BF00BF5A60BDE8104000F026B86881FF1F04000840074B1B789B0708D5064BB620E1
:40114000E0210D221870197007201A7070470420704700BF2247004020470040000000000230800803D000BF01380046FCD17047EFF3108072B6704780F31088704700BFBB
:4011800008B500F071F800F04BF9BDE8084000F0A7B900BF00F0C6B8F8B50E460446174600F03EF94EB1751EADB22544013C14F8010F00F057F9AC42F9D13E800020F8BD6E
:4011C0002DE9F84303EB83035D0006468846174618BF002407D117E001340120A4B2FFF755FEAC4210DA00F0F3F80028F4D000F0EFF804461920FFF749FE00F0E9F88442CA
:40120000F5D34FF0000901E04FF0050900243C8000F0DEF8F8B100F0DBF83A8880B283189BB243453B801BD2C0B1204485B200F0A1F8631C30559CB2AC42F8D1731913F81D
:40124000013C172B02D00520FFF720FE2C4600F0BFF80028DFD14846BDE8F8832546EDE73A804846BDE8F883F8B5224D2C780CBB21492046FFF758FE20460721FFF762FE17
:401280001E4B1F492022692008701A701D4901206C70FFF749FE07210120FFF753FE1A4E1A481B4A06274724022101233770047011702B70FFF75CFF0546164C1649237823
:4012C000164A43F0200323700B78012043F010030B701060A378124843F010030221A3700160116000F09CF92846BDE8F840FFF743BF00BF7081FF1F211500008964004014
:4013000089650040B915000028640040386400408B650040996500409964004000E100E080E200E038B5FFF723FF05460D4A0E4C137803F0DF03137000F082F923780B4A1C
:40134000012003F0EF030A49237010600B78022403F0EF030B7028461460BDE83840FFF70BBF00BF996500409964004080E100E09B65004010B4114B114A0121196091786F
:40138000D3781079C9B210B9DBB2994212D04B1CDBB2402B0B4828BF0023405C93701379074CC0B20BB100232371074B01221A6010BC7047054B1878C0B2F6E780E100E0CA
:4013C0007081FF1F8081FF1F00E100E04A650040104A0121104B11609978DA7891420FD09978DA789142DA78987824BF02F14003181A0A4B38BF101A0122C0B21A60704793
:401400001B790122002B054B14BF402000201A60704700BF80E100E07081FF1F00E100E010B5FFF7A5FE0B4B0B4C1A7842F001021A701A7802F0FE021A70FFF79DFE074BD9
:4014400000220121064821609A70DA701A715A71016010BD9A65004080E100E07081FF1F00E100E070B4194DEC79AB792646DBB2591EE21A091BA2F13F02B1FA81F1B2FAF1
:4014800082F249095209A34288BF0A46002AECD1A34212D03F2C0E4A88BF00260D4B90551B789ABF0134E4B201249B07EC7102D5094B02221A6070BC7047064B1B785A07A8
:4014C000E8D4064B187070BC704700BF7081FF1FC081FF1F6B65004000E200E04865004010B5FFF745FE0A4B0A4C1A7842F001021A701A7802F0FE021A70FFF73DFE064AFF
:401500000223002105482360D1719171036010BD9865004080E100E07081FF1F00E100E02DE9F0431C481D491D4F1E4A1E4E1F4CDFF880C01E4D4FF0010E0378DBB213F03A
:401540001E0905D091F8008049EA080881F800809B0601D4BDE8F08397F8008013785FFA88F8DBB206F8038023784FF000080BB18CF800E013780133DBB2137013783F2B55
:4015800088BF82F8008092F800802B789845D4D184F800E0D1E700BF696400407181FF1F4A6500407381FF1F8081FF1F7481FF1F7281FF1F7581FF1F144A154813780178B4
:4015C000994221D0F0B513490B7803F0040303F0FF06C3B91746104D104C02E00B785B0711D413783F2B88BF3E701378DBB2EB5CDBB22370137890F800E00133DBB21370CB
:4016000013789E45EAD1F0BD704700BF7681FF1F7781FF1F6B650040C081FF1F486500400549064A0B7843F001030B70137843F001031370704700BFA2430040B2430040EF
:401640000549064A0B7803F0FE030B70137803F0FE031370704700BFA2430040B2430040014B1868704700BF4481FF1F0E4B70B51E460E4C0025E41AA410A54204D056F8C7
:40168000253098470135F8E700F08CFA084B094C1E46E41AA4100025A54204D056F8253098470135F8E770BDB01B0000B01B0000B01B0000B81B000010B5431E0A4491428E
:4016C00004D011F8014B03F8014FF8E710BD884210B501EB020301D8421E0BE09842FBD28118D21AD34204D013F8014D01F8014DF8E710BD994204D011F8014B02F8014F77
:40170000F8E710BD03460244934202D003F8011BFAE77047001D0000ED00000000000000005100401000205100401000405100403000F051004010000000014000100014B5
:4017400001400006801A0140800100400140000A004C014000020050014020001090000040000000CF083042C3003C0800100000082000000020F3000C30F3003D0FC0F055
:4017800008000084023F20C004F800010C3900C6430010C740318C003F0000FF00002800000000402105040003EC000003FFFFFF62A0F0410C00000000000000040404044F
:4017C0000000000100000000000040020010301000101012000000000000000000000000000000000152004001640040026500400107014054080140370901400414014085
:4018000003150140011701404D180140411901400D1A0140411B0140034001400241014002420140044301400147014002480140084C01400E4D014004500140015101402E
:401840000914893A89698B0FE60203010461060E071809480A400B860E0811801365142C15E61643171119601B8B1E43206121A02206260C28102D802F023020320F330774
:40188000341035F8364038023A083B083E504003474049FF4A074BFF4C404D204EF04F055008580459045A045F01604061A8624063208320850387048A028B088D038E022A
:4018C0008F0C9001950A9704980199039B04A310A710A801AF05B001B10FB320B510B602BB02BE40BF10D41AD604D804D904DB04DF0100A005800605071008800A450E2010
:401900000F0211101502161819401B021D241E211F0120402105220223042404271029012B212D802E023104331035043602371038523A143C143E083F0245084F025601C3
:4019400059025A206140634485208740C0E3C2AAC472CA9BCCE6CEEFD040D605D80DE008B980BF40D904DF012680A680B280EA0801020B011001140419011E022006280662
:401980002D01320633033401380839083E1440454102460E47BC483449FF4AFF4BFF4EF04F44500C580459045A045F0166C06A406B0284038508860C89088D088E0E900232
:4019C00091089208953D960F9702980299239A049B1C9D1E9F01A127A318A501A716A80CA926AA03AB19AC03AE0CAF1FB320B401B508B60EB71FB820BA80BB80BF04D602C6
:401A0000D712D804D904DB04DF01000403020520060408280A800E300F821209150216C0171019801BA01D081E082254241028282A012B8A2E8031143249371038A83E10F9
:401A40003F02464047104E02560657405A0869106A46705C79017A027B41910A941295109664978098809B109D039E06A210A303A450A508A720AF40B701C005C2BEC4533B
:401A8000CA1FCC2FCEAED0A0D210D602840188018C019601A201AE02B203BA08D401D604D804DB04DF0100440380059408120A120E101048114012101580164018041916A1
:401AC0001E101F0820802142281229042A402B8A30483110324138E239083A1040264102481049815C805D215E0867806A4082408C218D4090A09109928294069780988038
:401B000099A09C209D17A008A204A382A450A708C0EDC22FC49FCA0FCC0FCE0FD00FD208D6F0D880E004E88030103580CC309C109D809C109D8084109C109D80E640862085
:401B4000AD80EA105840620199089A20B508D401D802E80212807220750882018E8099089A209E01B040C408DC01DE04E202E80100010C0110011C01000F00004090900073
:401B80009000000010140400140000000000000101000000000000006910162E003C010143000000F8B500BFF8BC08BC9E4670475100000011030000F8B500BFF8BC08BC51
:401BC0009E4670472D000000D81B0000C880FF1F80000000B8000000000000001417000018170000180000000000E02EC05D000000366E010000000000000000000000004A
:401C00000000000000000000000000000000000000000000A01B000000000000000000000000000000000000000000000000000000000000000000000000000000000000E9
:401C40000000000000000000000000000000000000000000E480FF1F00000000000000000000000000000000000000000000000000000000000000000000000000000000E2
:401C80000000000000000000000000000000000000000000000000000000000000000000000000000000000000000000000000000000000000000000000000000000000024
:401CC00000000000000000000000000000000000000000000000000000000000000000000000000000000000000000000000000000000000000000000000000000000000E4
:401D000000800020111D00005D5400005D54000080B500AF03F0D6FB10B5054C237833B9044B13B10448AFF300800123237010BD6082FF1F0000000014D10000084B10B52C
:401D40001BB108490848AFF300800848036803B910BD074B002BFBD0BDE81040184700BF000000006482FF1F14D10000C880FF1F0000000080B58CB000AF0E4B1B7887F85B
:401D80002F300C4BB3F98030DBB2013BDBB21946084801F045FF03461946064BB3F98030013B044AD35C994206D0024B002283F88420B8E2EC8DFF1F97F82F30FA2B00F254
:401DC000B18201A252F823F0412200002122000025230000472200004D220000692200000922000025230000252300009D2200008322000025230000272200002523000067
:401E00002523000025230000252300002523000025230000252300002523000025230000252300002523000025230000252300002523000025230000252300002523000022
:401E400025230000252300002523000025230000252300002523000025230000252300002523000025230000252300002523000025230000252300002523000025230000E2
:401E800025230000252300002523000025230000252300002523000025230000252300002523000025230000252300002523000025230000252300002523000025230000A2
:401EC0002523000025230000252300002523000025230000252300002523000025230000252300002523000025230000252300002523000025230000252300002523000062
:401F00002523000025230000252300002523000025230000252300002523000025230000252300002523000025230000252300002523000025230000252300002523000021
:401F400025230000252300002523000025230000252300002523000025230000252300002523000025230000252300002523000025230000252300002523000025230000E1
:401F800025230000252300002523000025230000252300002523000025230000252300002523000025230000252300002523000025230000252300002523000025230000A1
:401FC0002523000025230000B5210000F7210000BB21000003220000C1210000CD210000C721000025230000F1210000DF21000025230000E5210000D321000025230000C6
:402000002523000025230000FD21000025230000EB210000252300002523000025230000252300002523000025230000252300002523000025230000252300002523000086
:40204000252300002523000025230000BF220000C5220000DD220000E3220000E9220000EF220000F52200000D2300002523000025230000252300002523000025230000F1
:4020800025230000252300002523000025230000252300002523000025230000252300002523000025230000252300002523000025230000252300002523000025230000A0
:4020C0002523000025230000252300002523000025230000252300002523000025230000252300002523000025230000252300002523000025230000252300002523000060
:40210000252300002523000025230000252300002523000025230000252300002523000025230000252300002523000025230000252300002523000025230000252300001F
:4021400025230000252300002523000025230000252300002523000025230000252300002523000025230000252300002523000025230000252300002523000025230000DF
:40218000252300002523000025230000252300002523000025230000252300002523000025230000252300002523000025230000D921000001F094FEB5E001F08BFEB2E0A1
:4021C00001F070FEAFE001F097FEACE001F09AFEA9E001F09DFEA6E001F0A0FEA3E001F067FEA0E001F06AFE9DE001F06DFE9AE001F000FF97E001F079FE94E001F094FE61
:4022000091E001F0A7FE8EE0484B1B88BB61BB695BBA7B617B699BB2184600F0B9F882E001F084F97FE0414B1B88BB62BB6A5BBA3B613B699BB20121184600F039FD72E058
:4022400001F078FE6FE001F08BFE6CE0322001F01FFD0346002B03D0012001F001FD62E0002001F0FDFC5EE001F08AFD0346002B03D0012001F0F4FC55E0002001F0F0FCAF
:4022800051E001F0A9FD0346002B03D0012001F0E7FC48E0002001F0E3FC44E0012001F0DFFC4FF47A7004F0F3FF002003F02EFA4FF47A7004F0ECFF03F0CAFF33E001F0D7
:4022C000C9FE30E0194B1B887B627B6A5BBAFB60FB689BB2184601F01FF924E001F0C0FE21E001F0C3FE1EE001F0C6FE1BE001F0C9FE18E00D4B1B883B623B6A5BBABB6086
:40230000BB689BB2184601F0C3FE0CE0074B1B88FB61FB695BBA7B607B689BB2184601F061FF00E000BF3037BD4680BDED8DFF1F80B485B000AF0346FB71FB79092B20D862
:4023400001A252F823F000BF71230000712300007123000077230000772300007D2300007D2300007D23000083230000712300000123FB7305E00223FB7302E00423FB7313
:4023800000BFFB7B18461437BD4680BC704700BF80B5ADF5BB4D92B000AF024607F14803423B1A8007F59C4303F1280300221A60043340F69C720021184608F055F907F14A
:4023C0004803403B00221A60043344F61C620021184608F049F907F14803423B1B88062B7DD801A252F823F00524000027240000492400007124000093240000B1240000E8
:40240000B724000007F59C4303F12803184601F087FA03F03BFD07F59C4303F12803184603F012FD5CE007F59C4303F12803184601F066FB03F02AFD07F59C4303F1280378
:40244000184603F001FD4BE007F59C4303F128034FF47A621946254802F038F903F016FD07F59C4303F12803184603F0EDFC37E007F14803403B44F62061184602F04AF97D
:4024800003F004FD07F14803403B184603F0DCFC26E007F14803403B184602F047FA03F0F5FC07F14803403B184603F0CDFC17E002F066F914E007F59C4303F128034FF4B7
:4024C0007A6219460A4802F001F903F0DFFC07F59C4303F12803184603F0B6FC00E000BF00BF07F5BB474837BD4680BDF082FF1F3881FF1F2DE9F043ADF5197D00AF06469A
:40250000084607F108010A603A1D136007F10F0332461A7007F10E0302461A706B461E46002387F85F3207F108031B681B68C7F8503207F5A47300221A600433F622002180
:40254000184608F091F807F14C0300221A600433F6220021184608F087F807F10F031B789BB21A46920013441A4691001A460B4613445B009AB207F10E031B789BB2194639
:4025800089000B4419460901CB1A5B009BB213449BB23233A7F84E32B7F84E120B46013BC7F848328AB24FF000034FEAC30949EA52794FEAC2088AB24FF00003DD0045EA42
:4025C0005275D4000B460733DB08DB00ADEB030D6B460033C7F844320023C7F854320BE0D7F84422D7F85432134400221A70D7F854320133C7F85432B7F84E22D7F8543214
:402600009A42EDDCD7F844320C221A70D7F8443207F10F0212785A70002387F85F3244E297F85F321B0107F10802126813441B68C7F8503297F85F321B0107F10802126872
:4026400013441B791846FFF773FE034687F8433297F85F32322202FB03F3023397F85F22120107F1080109680A441179D7F84422D15497F85F32322202FB03F3033397F8DE
:402680005F22120107F1080109680A445179D7F84422D15497F85F321B0107F10802126813449B7B052B61D1B74B1B6AB64A92F8292043FA02F207F148031A60002387F831
:4026C0005C321AE097F85F32322202FB03F31A1D97F843321A4497F85C32D31A013B97F85C2207F148010A441178D7F84422D15497F85C32013387F85C3297F85C2297F893
:4027000043329A42DED3A04B5B6A9F4A92F8292043FA02F207F148031A60002387F85C321DE097F85F32322202FB03F31A1D97F843321A4497F843321A4497F85C32D31AA4
:40274000013B97F85C2207F148010A441178D7F84422D15497F85C32013387F85C3297F85C2297F843329A42DBD348E0002387F85D3232E0002387F85C3221E097F85F32E9
:40278000322202FB03F31A1D97F85D321A4497F843321A4497F85C32D31A013B97F85D1297F85C220A441146D7F850220A441178D7F84422D15497F85C32013387F85C32F7
:4027C00097F85C2297F843329A42D7D397F85D2297F84332134487F85D3297F85D2297F85F321B0107F1080109680B445B79194697F8433203FB01F39A42BBDB00BF634BB8
:402800001A7807F5A4731A7097F85F32013307F114010A22184607F01AFF07F1140207F5A4731146184608F00BFD07F5A473184608F027FD03461A4607F5A4731344544A5A
:402840001068186097F85F321B0107F10802126813449A6807F5A4731146184608F0F0FC07F5A473184608F00CFD034687F85E3297F85F321B0107F10802126813441B7B3C
:40288000002B40D0002387F85D3235E097F85D322C2202FB03F33A1D126813441A7897F85F321B0107F1080109680B441B7B9A4213D197F85D322C2202FB03F33A1D1268FB
:4028C0001A44D7F850321B789B0013445A6807F5A4731146184608F0B3FC07F5A473184608F0CFFC0346DBB2013387F85E3297F85D32013387F85D3207F10E0397F85D22AF
:402900001B789A42C2D397F85E3287F85D3228E097F85F32322202FB03F31A1D97F8433297F85F12090107F1080000680144497901FB03F31A4497F85E321A4497F85D3258
:40294000D31A97F85E1297F85D228A1A07F5A471895CD7F84422D15497F85D32013B87F85D3297F85D32002BD2D197F85F321B0107F10802126813441B79002B6ED10023E5
:4029800087F85D3240E000BF1098FF1F18D100001CD1000097F85D322C2202FB03F33A1D126813441A7897F85F321B0107F1080109680B441B7B9A4221D197F85F323222A0
:4029C00002FB03F31A1D97F8433297F85F12090107F1080000680144497901FB03F31A4497F85E32134497F85D220132D1B2D7F84422D15407F10E031B7887F85D3297F813
:402A00005D32013387F85D3207F10E0397F85D221B789A42BED397F85F32322202FB03F31A1D97F8433297F85F12090107F1080000680144497901FB03F31A4497F85E3224
:402A40001344023397F85F22120107F1080109680A44517BD7F84422D15421E097F85F32322202FB03F31A1D97F8433297F85F12090107F1080000680144497901FB03F3B3
:402A80001A4497F85E321344013397F85F22120107F1080109680A44517BD7F84422D15497F85F32013387F85F3207F10F0397F85F221B789A42FFF4B3AD002387F85C3295
:402AC000C0E0774B1A7807F14C031A70002387F85B327AE097F85C322C2202FB03F33A1D12681A4497F85B329B0013445B681B78002B24D197F85C322C2202FB03F33A1DC2
:402B0000126813445B78012B15D107F14C03184608F0B7FB03461A4607F14C031344614A1D4614460FCC28606960AA60EB6020682861A388AB820A2387F85B3240E097F80F
:402B40005B3207F114010A22184607F080FD07F1140207F14C031146184608F071FB07F14C03184608F08DFB03461A4607F14C0313444D4A1068186012791A7197F85C3229
:402B80002C2202FB03F33A1D12681A4497F85B329B0013445A6807F14C031146184608F04FFB07F14C03184608F06BFB03461A4607F14C0313443D491A460B461B881380E0
:402BC00097F85B32013387F85B3297F85B32092B80D907F14C03184608F053FB034687F85E3297F85E3287F85D3222E007F10F031B78322202FB03F39A1C97F85C329621F0
:402C000001FB03F31A4497F85E321A4497F85D32D31A97F85E1297F85D228A1A07F14C01895CD7F84422D15497F85D32013B87F85D3297F85D32002BD8D197F85C320133DC
:402C400087F85C3207F10E0397F85C221B789A42FFF437AFB7F84E325C1ED7F84422B7F84E32DBB2013BDBB21946104600F0D8FF03461A46D7F844321A5597F88032002B41
:402C800007D0D7F84432B7F84E221146184600F083FFB54600BF07F51977BD46BDE8F08318D1000020D1000038D1000040D1000090B5F5B002AF0246BB1D1A807B1D0A4620
:402CC0001A70EE4BC7F8C031BB1D1B88002B02D0EB4BC7F8C031EB4A07F5867311468422184607F0B6FC032387F8BF31D7F8C03103F1100207F10C031A6007F10C030222CE
:402D00001A7107F10C0301225A7107F10C03DE4A9A6007F10C0300221A7307F10C0300225A7307F10C0300229A7307F10C030122DA73D7F8C03103F1300207F10C031A6129
:402D400007F10C0304221A7507F10C0302225A7507F10C03CD4A9A6107F10C0300221A7707F10C031E225A7707F10C0300229A7707F10C030122DA77D7F8C03103F1340213
:402D800007F10C031A6207F10C03062283F8242007F10C03022283F8252007F10C03BC4A9A6207F10C03002283F82C2007F10C031E2283F82D2007F10C03002283F82E20BD
:402DC00007F10C03012283F82F20D7F8C03103F13C0207F10C031A6307F10C03022283F8342007F10C03022283F8352007F10C03A84A9A6307F10C03002283F83C2007F186
:402E00000C031E2283F83D2007F10C03002283F83E2007F10C03012283F83F20D7F8C03103F13E0207F10C031A6407F10C03002283F8442007F10C03012283F8452007F1E2
:402E40000C03954A9A6407F10C03032283F84C2007F10C031E2283F84D2007F10C03002283F84E2007F10C03012283F84F20D7F8C03103F1400207F10C031A6507F10C037B
:402E8000002283F8542007F10C03012283F8552007F10C03814A9A6507F10C03052283F85C2007F10C03502283F85D2007F10C03002283F85E2007F10C03012283F85F203A
:402EC000D7F8C03103F1410207F10C031A6607F10C03022283F8642007F10C03012283F8652007F10C036E4A9A6607F10C03002283F86C2007F10C03502283F86D2007F198
:402F00000C03002283F86E2007F10C03012283F86F20D7F8C03103F1290207F10C031A6707F10C03022283F8742007F10C03012283F8752007F10C035A4A9A6707F10C0395
:402F4000002283F87C2007F10C03502283F87D2007F10C03002283F87E2007F10C03012283F87F20D7F8C03103F1280207F10C03C3F8802007F10C03002283F8842007F181
:402F80000C03012283F8852007F10C03464AC3F8882007F10C03012283F88C2007F10C03502283F88D2007F10C03032283F88E2007F10C03012283F88F20D7F8C03103F176
:402FC000200207F10C03C3F8902007F10C03052283F8942007F10C03022283F8952007F10C03324AC3F8982007F10C03002283F89C2007F10C03502283F89D2007F10C0377
:40300000052283F89E2007F10C03012283F89F20D7F8C03103F15C0207F10C03C3F8A02007F10C03002283F8A42007F10C03012283F8A52007F10C031D4AC3F8A82007F17D
:403040000C03052283F8AC2007F10C03502283F8AD2007F10C03002283F8AE2007F10C03012283F8AF20D7F8C03103F15D0207F10C03C3F8B02007F10C031BE01098FF1FBF
:403080008C98FF1F0CD3000044D1000050D1000060D1000070D1000080D1000090D10000A0D10000ACD10000C0D10000CCD10000E4D10000002283F8B42007F10C03012229
:4030C00083F8B52007F10C03C04AC3F8B82007F10C03052283F8BC2007F10C03502283F8BD2007F10C03002283F8BE2007F10C03012283F8BF20D7F8C03103F1500207F182
:403100000C03C3F8C02007F10C03052283F8C42007F10C03012283F8C52007F10C03AC4AC3F8C82007F10C03002283F8CC2007F10C03502283F8CD2007F10C03002283F819
:40314000CE2007F10C03012283F8CF20D7F8C03103F1540207F10C03C3F8D02007F10C03072283F8D42007F10C03012283F8D52007F10C03974AC3F8D82007F10C03002214
:4031800083F8DC2007F10C03502283F8DD2007F10C03002283F8DE2007F10C03012283F8DF20D7F8C03103F1580207F10C03C3F8E02007F10C03072283F8E42007F10C03DB
:4031C000012283F8E52007F10C03834AC3F8E82007F10C03002283F8EC2007F10C03502283F8ED2007F10C03002283F8EE2007F10C03012283F8EF200F2387F8BE31BB1D06
:403200001B88002B0ED107F5867407F10C0297F8BF1197F8BE017B1D1B7800932346FFF769F9CEE0BB1D1B88B3F5967F0AD107F5867307F10C0297F8BF1197F8BE0100F060
:403240007BF9BEE0BB1D1B88DBB2013B87F8BD3197F8BD3107F10C021B01134404331B781846FFF765F8034687F8BC3197F8BD3107F10C021B0113440E331B78002B5BD144
:40328000002387F8C7312FE0002387F8C6311EE097F8BD3107F10C021B0113441A6897F8C73197F8BC0197F8C611411A0B44013B134497F8C721D11C97F8C6210A44474928
:4032C0008A5C1A7097F8C631013387F8C63197F8C62197F8BC319A42DAD397F8C72197F8BC31134487F8C73197F8C72197F8BD3107F10C011B010B4405331B78194697F8D5
:40330000BC3103FB01F39A42BEDB97F8BD3107F10C021B01134404331B78092B15D197F8BD3107F10C021B0113441A6897F8C731134400221A7008E097F8BD319BB207F1B3
:403340000C021146184600F04DF8002387F8C73131E097F8C7312C2202FB03F307F5E4721344BC3B1A7897F8BD3107F10C011B010B440C331B789A420CBF01230023DAB277
:4033800097F8C7312C2101FB03F307F5E4710B44BB3B1B78012B0CBF01230023DBB21340DBB2002B02D00E4B01221A7097F8C731013387F8C73197F8C72197F8BF319A426C
:4033C000C7D300BF07F5E677BD4690BDFCD1000014D2000034D2000058D20000EC8DFF1F8282FF1F80B584B000AF03463960FB80FB881B013A6813441B791846FEF798FFA4
:4034000003467B73FB881B013A6813449B7B032B02D0052B06D036E03D4BDA783D4B83F8282071E03A4BDB781A06394B1B791B041A43374B5B791B021343354A92791343E0
:40344000344A1362324BDB791A06314B1B7A1B041A432F4B5B7A1B0213432D4A927A13432C4A53622B4B1B6A2A4A92F829209340284A1362274B5B6A264A92F829209340CC
:40348000244A536240E00023FB7320E00023BB7315E0FB881B013A6813441A68FB7B787BB97B411A0B44013B1344FA7BD11CBA7B0A4417498A5C1A70BB7B0133BB73BA7B7C
:4034C0007B7B9A42E5D3FA7B7B7B1344FB73FA7BFB881B0139680B445B7919467B7B03FB01F39A42D2DBFB881B013A6813441B79092B08D1FB881B013A6813441A68FB7BA1
:40350000134400221A7000BF00BF1037BD4680BDEC8DFF1F8C98FF1F80B483B000AF0346FB8000BF0C37BD4680BC704780B400AF00BFBD4680BC704790B5ADF66C2D00AF10
:403540000446084607F108010A603A1D136007F10F0322461A7007F10E0302461A70AF4B1A78AF4B1A7007F1780300221A6004334FF41C620021184607F076F8A94BC7F8F9
:403580005C3AA84B1B7CFA2B00F0BB81A34B1A7807F178031A7007F17803184607F071FE03461A4607F1780313449F4A1C46134607CB20606160A2601B7823730023C7F8AF
:4035C000603A7EE1D7F8603A1B0107F1080212681344DB7B002B00F06F81D7F8603A1B0107F10802126813449A6807F178031146184607F025FED7F8603A1B0107F10802F6
:40360000126813441B68C7F8583AD7F8603A1B0107F10802126813441B791846FEF788FE034687F8573AD7F8603A1B0107F10802126813449B7B052B00F0FE800023C7F8D9
:40364000643ADCE097F8573AD7F8642A02FB03F31A46D7F8583A1344C7F8503AD7F8603A1B0107F10802126813441B79072B00F2B98001A252F823F067370000B53600004D
:4036800099360000D1360000ED360000253700000937000041370000D7F8503A1B7887F84F3A97F84F2A07F114036049184607F0A3FD97E0D7F8503A1B7887F84E3A97F95A
:4036C0004E2A07F114035949184607F095FD89E0D7F8503A1B88A7F84C3AB7F94C2A07F114035249184607F087FD7BE0D7F8503A1B88A7F84A3AB7F84A2A07F114034B4947
:40370000184607F079FD6DE0D7F8503A1B68C7F8443A07F11403D7F8442A4549184607F06BFD5FE0D7F8503A1B68C7F8403A07F11403D7F8402A3E49184607F05DFD51E0BE
:40374000D7F8503A1B68C7F83C3AD7F83C0A06F0C7F903460C4607F114001A462346354907F04AFD3EE00023C7F8643A32E0D7F8643A2C2202FB03F33A1D126813441A7829
:40378000D7F8603A1B0107F1080109680B441B7B9A421AD1214B1A7807F114031A70D7F8643A2C2202FB03F33A1D12681A44D7F8583A1B789B0013445A6807F114031146E4
:4037C000184607F03DFD00BF0BE0D7F8643A0133C7F8643A07F10E031A78D7F8643A9A42C5DC00BF07F1140207F178031146184607F026FDD7F8643A0133C7F8643AD7F831
:40380000603A1B0107F10802126813445B791A46D7F8643A9A423FF715AF3EE018D100005483FF1F1098FF1F90D30000A0D30000A4D30000ACD30000344B1B6A334A92F8EF
:4038400029201341C7F8403A07F11403D7F8402A2F49184607F0D0FC07F1140207F178031146184607F0ECFC284B5B6A274A92F829201341C7F8403A07F11403D7F8402A2B
:403880002349184607F0B8FC07F1140207F178031146184607F0D4FC00BF07F17803184607F0EFFC03461A4607F17803134419491A460B461B881380D7F8603A0133C7F80C
:4038C000603A07F10F031A78D7F8603A9A423FF779AE07F1780319460F4807F0B1FC0E4807F0CFFC03461A460B4B13440B4A1C46134607CB20606160A2601A889B78A281B8
:40390000A37300BF07F66C27BD4690BD1098FF1FA4D3000040D100005483FF1FB0D30000F0B59FB000AF786000214FF49670FFF7BFF9654B3B67644B1B7CFA2B00F0BF808D
:403940007B6800221A70786807F09BFC03461A467B6813445D4A1188927819809A70786807F08FFC03461A467B681344584A1D4614460FCC28606960AA60EB602388A27890
:403980002B821346AB74786807F07BFC03461A467B6813444F4A14469E4604F1200C754626460FCE28606960AA60EB6010340EF1100E6445F3D17346224612781A7078682C
:4039C00007F05FFC03461A467B681344424A1068186092889A80786807F053FC03461A467B6813443D4A1C46134607CB20606160A2601B88A381786807F043FC03461A46FC
:403A00007B681344364A1C4615460FCD20606160A260E3603349786807F012FC786807F030FC03461A467B681344284A1188927819809A7000237B6720E07B6F591C2A4AD6
:403A40007B6F52F8233007F10C000A46274907F0D3FB07F10C031946786807F0F1FB786807F00FFC03461A467B681344174A1188927819809A707B6F01337B677B6F012B8B
:403A8000DBDD1B4B1B881A461A4B1B88D21A07F10C031949184607F0AFFB07F10C031946786807F0CDFB786807F0EBFB03461A467B681344114A1188927819809A7000BF84
:403AC0007C37BD46F0BD00BF1098FF1FC0D30000C4D30000D8D30000FCD3000004D4000014D400005483FF1FE08DFF1F24D40000F297FF1FF697FF1F38D4000054D400007C
:403B000080B483B000AF786000BF0C37BD4680BC704700BF80B584B000AF78600B467B8013467B703A2002F075F93A2002F072F97B78184602F06EF97B88DBB2184602F065
:403B400069F90023FB8109E0FB897A6813441B78184602F05FF9FB890133FB81FA897B889A42F1D30023FB8100BF02F047F9034603F00103002B05D1FB895A1CFA81B3F51B
:403B80007A7FF2D9012001F0DBFD002001F0D8FD00BF1037BD4680BD80B584B000AF78600B467B803A2002F035F93A2002F032F91A4B1B7C184602F02DF97B88DBB218469E
:403BC00002F028F90023FB8109E0FB897A6813441B78184602F01EF9FB890133FB81FA897B889A42F1D30023FB8100BF02F006F9034603F00103002B05D1FB895A1CFA8114
:403C0000B3F57A7FF2D9012001F09AFD002001F097FD00BF1037BD4680BD00BF8C98FF1F80B485B000AF78600B46FB700023BB730023FB7309E0FB7B7A6813441A78BB7B95
:403C40005340BB73FB7B0133FB73FA7BFB789A42F1D3BB7B18461437BD4680BC704700BF80B584B000AF0346FB710223FB60FB793B72FB797B72FB689AB207F10803114677
:403C80001846FFF789FF00BF1037BD4680BD00BF80B586B000AF78600123FB7402F0C6F901F0B4FC1C4A1D4B1046194660231A4606F0CFFC0623FB6000237B6118E07B69C6
:403CC0001B011A46154BD0187B69DAB27B68DBB21344DBB2194601F0A1FC0346FB72FB7A002B02D00023FB7406E07B6901337B617A69FB689A42E2DB084A074B1046194683
:403D000060231A4606F0A5FC02F084F9FB7C18461837BD4680BD00BF1098FF1F8C98FF1F80B582B000AF0023FB800CE0FB88114A1344114A1168FA880A441278D2B21A705E
:403D4000FB880133FB80FB885F2BEFD9094B1B78002B02D100F014F807E0084A054B1046194660231A4606F074FC00BF0837BD4680BD00BF8C98FF1FCC80FF1F1098FF1F65
:403D800080B582B000AF0023FB800EE0FB88104A1344104A1168FA8802F548720A441278D2B21A70FB880133FB80FB885F2BEDD9074B1B78002B03D100F00EF8034603E036
:403DC0000020FFF765FF034618460837BD4680BD8C98FF1FCC80FF1F80B500AF2F4B01221A702E4B02221A742C4B00221A622B4B93F829301A464FF47A539340274A536269
:403E0000264B042283F82820244B032283F82920224BC8221A86214BC8225A861F4B4FF480625A631D4B4FF480629A631B4B642283F83C20194B642283F83D20174B0022C4
:403E400083F83E20154B002283F84020134B4FF4E1721A65114B124A5A65104B4FF07E529A650E4B002283F85C200C4B002283F85D200A4B01221A700020FFF709FF03466D
:403E8000002B07D03220FFF703FF0346002B01D0012300E00023DBB2184680BD8C98FF1F0000C84180B400AF00BFBD4680BC704780B400AF00BFBD4680BC704780B400AFC4
:403EC00000BFBD4680BC704780B400AF00BFBD4680BC704780B400AF00BFBD4680BC704780B400AF00BFBD4680BC704780B400AF00BFBD4680BC704780B400AF00BFBD4608
:403F000080BC704780B400AF00BFBD4680BC704780B400AF00BFBD4680BC704780B400AF00BFBD4680BC704780B400AF00BFBD4680BC704780B582B000AF00233B71002326
:403F40007B713B1D02211846FFF726FE00BF0837BD4680BD80B400AF00BFBD4680BC704780B582B000AF0223FB711F4B1A7C1F4B1B7C9A4220D01C4B1B7CBB710020FFF7D8
:403F800087FE0346002B0BD001233B7101237B71FB7999B2BA793B1D1846FFF7BBFD18E000233B7100237B71FB7999B2BA793B1D1846FFF7AFFD0CE00020FFF769FE034625
:403FC000002B03D00120FFF74BFE02E00020FFF747FE074B1B78012B01D103F049F900BF0837BD4680BD00BF1098FF1F8C98FF1F8282FF1F80B584B000AF88233B72144B18
:404000001B681BB2FB80BB1D1B78BB72BB1D01331B787B720E4B5B681BB2FB80BB1D1B783B73BB1D01331B78FB7207F1080305211846FFF7F5FD03467B7307F10803062138
:404040001846FFF7A9FD00BF1037BD4680BD00BFF498FF1F80B400AF00BFBD4680BC704780B400AF00BFBD4680BC704780B400AF00BFBD4680BC704780B400AF00BFBD462A
:4040800080BC704780B400AF00BFBD4680BC704780B5ADF59C4D98B000AF024607F160035A3B1A80002307F59C4202F15F021370002307F59C4202F12C02136007F59C43AC
:4040C00003F130032E220021184606F0CDFA07F16003543B00221A60043344F61C620021184606F0C1FA3C4B1B7807F59C4202F12C021370384B1A7807F16003543B1A7047
:40410000002307F59C4202F15F0213701DE007F59C4303F15F031B7807F59C4202F12C02134407F59C4202F15F02127803322B498A5C1A7007F59C4303F15F031B780133CF
:4041400007F59C4202F15F02137007F59C4303F15F031B789AB207F160035A3B1B889342D5D807F59C4303F15F031B7807F59C4202F12C02134400221A7007F59C4303F1D8
:404180002C031749184607F06AF80346002B0CD007F16003543B07F59C4000F12C0044F62062194600F092FA07E007F16003543B44F62061184600F0ADFA01F067FE07F124
:4041C0006003543B184601F03FFE00BF07F59C476037BD4680BD00BF18D10000EC8DFF1F8C82FF1F80B483B000AF0346FB8000BF0C37BD4680BC704780B400AF034B01223B
:404200001A7000BFBD4680BC704700BF7C82FF1F80B400AF044B01221A70044B1B7800BFBD4680BC704700BF8882FF1F034F004080B582B000AF0123FB710023BB71DFE0C1
:4042400001F0FAFC03467B71744B1B78042B00F2D78001A252F823F06D420000D34200000F4300005D430000C74300006C4B5A786B4B1A706A4B9A78694B5A70684A7B79E4
:404280009370674B5B783A2B10D1654B9B783A2B0CD1634B00221A70614B00225A70604B00229A705D4B01221A7011E05C4B1B783F2B40F0A5805A4B5B780D2B40F0A08023
:4042C000574B9B780A2B40F09B800020FEF760F896E0544B1B7C7A799A420CD07B79002B09D0514B1B78002B08D04E4B93F841307A799A4202D10023FB7101E00123FB7164
:404300004A4B00221A70454B02221A7078E0474A7B791370454B1B78012B06D8434B00221A703E4B00221A706AE0404B1B78802B06D93E4B00221A70384B00221A705FE06D
:404340003B4B00221A70FB79002B03D1334B03221A7055E0314B04221A7051E0344B1B781946344A7B795354314B1B780133DAB22F4B1A702E4B1A782C4B1B789A423FD379
:40438000FB79002B12D1294B1B781A4629492A4806F05FF9254B1B781AB2274BA3F88020254B012283F88420FDF7E4FC204B00221A701E4B00221A70184B00221A70BB7971
:4043C0000133BB711CE0194B1B78013BDAB2174B1A70164B1B78002B11D1154B00221A70124B00221A70012001F0AAF9002001F0A7F90A4B00221A70BB790133BB7100BFE6
:4044000001F074FC0346002B03D0BB79632B7FF617AF00BF0837BD4680BD00BF188DFF1F1C8DFF1F1098FF1F0098FF1F1F8DFF1F208DFF1F248DFF1FEC8DFF1F80B500AFF5
:40444000002002F051FA01F025FB03461A46224B1A80224B224A07CA83E80700214B1B68214A1360214A224B1B881380214B1A78214B1A70214B1B681A4A13601C4A204B9C
:404480001B8813801F4B1A781A4B1A701E4B1B78002B04D01C4B00221A70FFF7C9FE01F0F9FA03461A46194B1A800B4B1B881A46164B1B88D31A184605F0E2FE0346144962
:4044C000184605F0E5FF03461A46124B1A60012002F00AFA00BF80BDF297FF1FF498FF1FE08DFF1FE897FF1FF897FF1F8898FF1F8098FF1F0E99FF1FEC98FF1FFC97FF1F40
:404500008498FF1FF597FF1F7C82FF1FF697FF1F002474490C98FF1F80B582B000AF01F06FF8FFF7FDFB642002F0B2FE012001F0EDF801F02FFB01F0BDFA01F0CDFA01F048
:404540001DFC01F0A3FC564801F02EFD01F0EEFD544801F02FFE03F09BF8002003F010F9002003F01DF9002003F02AF9002003F037F94D4B00221A6000F0C6FC01F0F0FF38
:40458000012001F071FE41F6FF734FF480420121022001F079FE0346FB7002F0FFFC03463B703878414B1B789BB25B0099B23A78062302F021FD3B783D4A92B244F61061B5
:4045C000184602F059FD3A78FB781146184602F077FCFB780121184602F0BEFB01F016FA01F040F962B6334B4FF4FA725A60324B00221A60304B00225A600023BB8013E04D
:404600000023FB710AE0BA88FB792C4952001344002221F81320FB790133FB71FB79012BF1D9BB880133BB80BB88B3F5167FE7D3234B00221A60234B0022A3F88020214B14
:40464000002283F88420012003F0DAF8002001F077F8002001F04AF9FFF7F0FE08E01A4B1B78002B04D0184B00221A70FFF7E0FD01F04CF90346002BF1D0012001F036F9EE
:4046800000BF01F043F90346012BFAD001F0B4FA03465BB2002BDCDA01F070FBD9E700BFF9410000114200000499FF1FD080FF1F7498FF1F0498FF1FE08DFF1F888EFF1FC5
:4046C000F098FF1FEC8DFF1F7C82FF1F80B586B000AFF860B9607A600D49F86803F01CFB78617B69002B0CD07A687B690121B86803F0A6F903463B613B69BA6813440022BA
:404700001A70786903F043FA00BF1837BD4680BD58D4000080B584B000AF78603960144B1B68184603F033FA1249134803F0F4FAF860FB68002B0CD03A68FB68012178681B
:4047400003F07EF90346BB60BB687A68134400221A70F86803F01BFA0849074803F0DCFA0246034B1A6000BF1037BD4680BD00BF0899FF1F58D400008C82FF1F5CD4000036
:4047800080B586B000AF164B1B68184603F0FFF91449154803F0C0FA786101F077FB381D7B690122012103F04BF903463B613B79184601F02FFB3B69002BF0D1002001F0A7
:4047C00029FB786903F0E3F90849074803F0A4FA0246034B1A6000BF1837BD4680BD00BF748EFF1F58D40000D480FF1F5CD4000080B5B4B000AFF860B9607A600023C7F834
:40480000CC3007F1740207F188001423F96803F0A4F80346002B77D100233B6107F1140360220021184605F01FFF07F11003F968184606F01EFD07F11003184606F021FD71
:4048400003461A4607F11003134435491A460B461B88138007F1740207F110031146184606F0EEFC07F11003184606F00AFD03461A4607F11003134429491A460B461B8883
:40488000138007F11003184603F0D8F8C7F8C800D7F8C80003F00DF90346C7F8C430D7F8C80003F07FF8D7F8C430B3F1FF3F23D007F174031B49184606F0D1FC0346002B25
:4048C0001AD007F174031849184606F0C8FC0346002B11D07A68D7F8CC301344DB00BA68134407F174021146184606F0C2FCD7F8CC300133C7F8CC3007F18803184602F0D5
:40490000CDFF0346002B87D107F18803184602F09AFFD7F8CC301846D037BD4680BD00BF60D4000064D4000068D40000B0B5ADF5C14D88B004AF07F110030C3B186007F1DA
:4049400010030C3B1B6800221A70002307F5C04202F16C02136007F5BF4303F14003A0220021184605F080FE07F50473103B45F6C0520021184605F077FE07F50473103B1E
:4049800000221946B348FFF733FF07F5C04303F16C031860002307F5C14202F10C02136022E007F5BF4202F1400207F5C14303F10C031B68DB00D01807F50473103B07F5AC
:4049C000C14202F10C021268D2001344194606F050FC07F5C14303F10C031B68013307F5C14202F10C02136007F5C14303F10C031A6807F5C04303F16C031B689A42D0DB51
:404A000007F50473103B45F6C0520021184605F02BFE002307F5C14202F108021360002307F5C14202F10402136056E207F11003043B5C221A60043360220021184605F007
:404A400013FE07F5BF4202F1400207F5C14303F104031B68DB001A4407F11003043B1146184606F0EDFB07F11003043B184606F008FC03461A4607F11003043B13447549B5
:404A80001A460B461B88138007F50471103907F11003043B07F5C14202F1080212681846FFF7A6FE07F5C04303F168031860002307F5C1421360002307F5C04202F17C02A0
:404AC0001360002307F5C04202F178021360D2E107F19003203B5C221A60043360220021184605F0C1FD07F11002043A07F19003203B1146184606F0BCFB07F5C14303F142
:404B000008031A6807F5C04303F178031B681A4407F50473103BD2001A4407F19003203B1146184606F08CFB07F19003203B184606F0A7FB03461A4607F19003203B1344D1
:404B400044491A460B461B88138007F5C14303F108031A6807F5C04303F168031B681A4407F50471103907F19003203B1846FFF73FFE07F5C1431860002307F5C04202F144
:404B80007402136061E107F588733C3B5C221A60043360220021184605F066FD07F19002203A07F588733C3B1146184606F061FB07F5C14303F108031A6807F5C04303F107
:404BC00068031B681A4407F5C04303F174031B681A4407F50473103BD2001A4407F588733C3B1146184606F02BFB07F588733C3B184606F046FB03461A4607F588733C3BD7
:404C0000134414491A460B461B88138007F5C14303F108031A6807F5C04303F168031B681A4407F5C1431B681A4407F50471103907F588733C3B1846FFF7DAFD07F5C043E6
:404C400003F17C031860002307F5C04202F170021360E2E060D4000007F5C873583B5C221A60043360220021184605F0FDFC07F588723C3A07F5C873583B1146184606F091
:404C8000F8FA07F5C14303F108031A6807F5C04303F168031B681A4407F5C1431B681A4407F5C04303F170031B681A4407F50473103BD2001A4407F5C873583B11461846AD
:404CC00006F0BEFA07F5C873583B184606F0D9FA03461A4607F5C873583B134488491A460B461B88138007F5C873583B184602F0A5FE07F5C04303F16403186007F5C04305
:404D000003F16403186802F0D4FE034607F5C04202F16002136007F5C04303F16403186802F040FE07F50473743B00221A60043360220021184605F097FC07F5BF4202F14D
:404D4000400207F5C14303F104031B68DB00D41807F5C14303F108031A6807F5C04303F178031B681A4407F50473103BD2009D1807F5C14303F108031A6807F5C04303F123
:404D800068031B681A4407F5C04303F174031B681A4407F50473103BD2001A4407F5C14303F10803196807F5C04303F168031B68194407F5C1431B68194407F5C04303F1DD
:404DC00070031B68194407F50473103BC9000B4407F50470743807F5C04101F1600109680291019300922B462246464906F004FA07F50472743A07F110030C3B114618684F
:404E000006F01EFA07F5C04303F170031B68013307F5C04202F17002136007F5C04303F170031A6807F5C04303F17C031B689A42FFF612AF07F5C04303F174031B680133E1
:404E400007F5C04202F17402136007F5C04303F174031A6807F5C1431B689A42FFF693AE07F5C04303F178031B68013307F5C04202F17802136007F5C04303F178031A68E4
:404E800007F5C04303F168031B689A42FFF620AE07F5C04303F168031A6807F5C1431B681A4407F5C04303F17C031B68134407F5C14202F108021268134407F5C14202F1A6
:404EC0000802136007F5C14303F104031B68013307F5C14202F10402136007F5C14303F104031A6807F5C04303F16C031B689A42FFF69CAD00BF07F5C1471037BD46B0BD22
:404F000060D400006CD4000080B400AF00BFBD4680BC704780B582B000AF786039603A680021786805F0A0FB00BF0837BD4680BD80B584B000AFF860B9607A607A68B96807
:404F4000F86805F086FB00BF1037BD4680BD00BF80B483B000AF0346FB71FEE780B487B000AF7860396000233B6100237B6127E07B699B007A6813441B68BB60BB68FB736F
:404F8000BB6823F0FF03BB6014E03B695B003A6813441B781A46BB68134419463B695B003A6813445B780B703B6901333B61FB7B013BFB73FB7B002BE7D17B6901337B61BF
:404FC0007B69242BD4D900BF1C37BD4680BC704780B582B000AF4E4B02221A804D4B18221A704D4B00221A804C4B58221A704C4B00221A804B4B50221A704B4B03221A80D7
:405000004A4B18221A704A4B02221A80494B19221A70494B4EF65F221A80484B19221A70474B03F1904303F6E823042219464548FFF77EFF444B02221A704FF04023082235
:405040001A70424B03221A70414B424A1278D2B21A70414B10221A80404B41F251221A800023FB7019237B6014E0FB785B00DAB23B4B1B78DBB203F00103DBB21343DBB297
:4050800003F00303FB704FF4F07002F0C9FB7B68013B7B607B68002B02D0FB78032BE4D17B68002B02D10320FFF752FF2D4B4FF480721A802B4B07221A702B4B00221A7026
:4050C0002A4B48221A70274B00221A70284B02221A70284B04221A70274A274B1B78DBB243F03F03DBB21370244A244B1B78DBB243F00103DBB21370214A214B1B78DBB222
:4051000063F07F03DBB2137000BF0837BD4680BD80400040824000408440004086400040884000408A4000408C4000408E40004090400040924000409440004096400040C8
:40514000A0030000004100400043004000420040A146004008010049224200402042004025420040044000400640004008400040014000400B400040A2430040A1430040B9
:40518000A043004080B483B000AF0F4B1B78FB710E4AFB7903F00703DBB213700C4AFB791B09DBB213700B4B02221A700A4BC0221A700A4B2C221A70094B44221A7000BF91
:4051C0000C37BD4680BC7047CF0100496E5800406F5800400D5100402D510040005B00407658004080B483B000AF0346FB71FB79012B0ED8FB79094A52F82330FA790749D3
:4052000051F822201178FA790548825C0A43D2B21A7000BF0C37BD4680BC704780D4000088D4000080B483B000AF0346FB71FB79012B10D8FB790A4A52F82330FA7908493D
:4052400051F822201178FA790648825CD243D2B20A40D2B21A7000BF0C37BD4680BC704780D4000088D4000080B586B000AF72B60023FB7513E0FA7D13465B0013445B003D
:40528000634A13443B613B691A683B699B889BB219461046FFF73EFEFB7D0133FB75FB7D062BE8D90023FB751CE0FA7D13469B0013445B00574A1344FB60FB681B68BB60A7
:4052C000FB685B687B60FB681A7A5B7A1B0213437B807B881A467968B868FFF729FEFB7D0133FB75FB7D002BDFD04B4B03F190431A46494B03F19043943319461046FFF7FA
:405300002DFE464B0A221A70434B03F1904303F6EC23042219464248FFF70AFE414A414B1B78DBB243F00203DBB213703E4A3E4B1B78DBB243F00203DBB213703B4A3B4B8E
:405340001B78DBB243F04003DBB21370384A384B1B78DBB243F01003DBB213702E4B03F1904303F6B423082219463248FFF7E0FD294B03F1904303F6BC23082219462E4814
:40538000FFF7D6FD244B03F1904303F6C423082219462A48FFF7CCFD1F4B03F1904303F6CC23082219462648FFF7C2FD1A4B03F1904303F6D423082219462248FFF7B8FDD5
:4053C000154B03F1904303F6DC230A2219461E48FFF7AEFD1D4A1D4B1B78DBB243F00803DBB213701A4B61221A70FFF7F1FD184BC1221A70174B01221A70FFF7C3FE0E22A3
:405400000A491548FFF794FD00BF1837BD4680BD8CD40000B8D40000A003000083580040507600400350014013500140A0430040C243004002510040C2510040F25100402E
:40544000125100402251004030510040224300400048004004000840B043004080B500AF05F0B2F803461B680C2B00D1FEE7FEE780B584B000AF7860104B1A687B68134441
:405480001A460F4BD31AB3F5006F09DC0B4B1B68FB600A4B1A687B681344084A136007E005F092F802460C2313604FF0FF33FB60FB6818461037BD4680BD00BF9C81FF1FE1
:4054C000F89AFF1F80B586B000AF224B7B61224B3B61204B7B6135E03B691B68FB603B695B68BB603B699B683B6000237B600CE0FB681A68BB681A60BB680433BB60FB68AA
:405500000433FB607B6804337B607A683B689A42EED13B69DB683B6000237B6008E0BB6800221A60BB680433BB607B6804337B607A683B689A42F2D13B6910333B617B69A8
:40554000013B7B617B69002BC6D105F043F8FEF7E3FFFEE7010000008CD7000080B582B000AF194B194A1A60194A194B1B6843F40073136000237B600FE07B68032B04D885
:40558000144A7B6852F8233000E0134B13497A6841F822307B6801337B607B682F2BECD90F4B1B78DAB20F4B1A700F4B0B4A1A60FFF75AFE01F0A2FB0C4B00221A6000BFFE
:4055C0000837BD4680BD00BF0CED00E00004FA0514ED00E0001D00005D5400000080FF1FBC760040C480FF1F08ED00E0C080FF1F80B500AF01F0E4FD01F0F4FD00BF80BDA9
:4056000080B500AFFFF7F4FF00BF80BD80B500AF01F0D6FD0346DBB2184680BD80B584B000AF78600B46FB7001F0A4FE97F90330002B5FDB01F0AEFF0346002B57D14FF0A8
:40564000FF33FB6010227968402001F0E1FE0346072B49D100BF2B4B1B78DBB203F00203002BF8D0274B1B78DBB203F00203002B08D0244B1B78DBB29B08DBB2002B01D13C
:405680000023FB60FB68002B2BD1FB7899B21E4B1A781D4B5B78402001F0FEFE0346072B1BD14FF0FF33FB6000BF164B1B78DBB203F00203002BF8D0124B1B78DBB203F0D3
:4056C0000203002B10D00F4B1B78DBB29B08DBB2002B09D10023FB6006E04FF0FF33FB6002E04FF0FF33FB6001F088FF04E00423FB6001E00123FB60FB6818461037BD46C4
:4057000080BD00BF224700403899FF1F80B485B000AF0346FB71094B1B78DBB203F07F03FB730649FB79DB01DAB2FB7B1343DBB20B7000BF1437BD4680BC70470051004021
:4057400080B485B000AF0346FB710B4B1B78DBB223F01003FB730849FB791B01DBB203F01003DAB2FB7B1343DBB20B7000BF1437BD4680BC704700BF1051004080B500AF3A
:40578000224A224B1B78DBB203F00103DBB213701F4A1F4B1B78DBB223F00303DBB213701C4A1C4B1B78DBB223F03003DBB21370184A184B1B78DBB243F03003DBB213702F
:4057C000144A144B1B78DBB223F00F03DBB21370104A104B1B78DBB243F00F03DBB213700D4A0D4B1B78DBB243F00103DBB213704BF67F3000F058F84BF67F3000F066F8E9
:40580000002000F041F800BF80BD00BF184F00401A4F0040234F0040194F004080B400AF0D4A0D4B1B78DBB243F00403DBB213700A4A0A4B1B78DBB243F00403DBB21370AB
:40584000074A074B1B78DBB243F00103DBB2137000BFBD4680BC7047A3430040B3430040184F004080B500AF064B1B78002B04D1FFF784FF034B01221A70FFF7CFFF00BFA7
:4058800080BD00BFAB8DFF1F80B483B000AF0346FB71044AFB79137000BF0C37BD4680BC704700BF1B4F004080B485B000AF0346FB80FB88FB81044AFB89138000BF1437DB
:4058C000BD4680BC704700BF1C4F004080B483B000AF0346FB80044AFB88138000BF0C37BD4680BC704700BF1E4F004080B483B000AF0346FB71044AFB79137000BF0C3794
:40590000BD4680BC704700BF7064004080B400AF034B1B78DBB21846BD4680BC704700BF6064004080B500AF224A224B1B78DBB203F00103DBB213701F4A1F4B1B78DBB25F
:4059400023F00303DBB213701C4A1C4B1B78DBB223F03003DBB21370184A184B1B78DBB243F03003DBB21370144A144B1B78DBB223F00F03DBB21370104A104B1B78DBB279
:4059800043F00F03DBB213700D4A0D4B1B78DBB243F00103DBB213704FF6FF7000F058F84FF6FF7000F066F8002000F041F800BF80BD00BF0C4F00400E4F0040174F0040A4
:4059C0000D4F004080B400AF0D4A0D4B1B78DBB243F00203DBB213700A4A0A4B1B78DBB243F00203DBB21370074A074B1B78DBB243F00103DBB2137000BFBD4680BC704741
:405A0000A3430040B34300400C4F004080B500AF064B1B78002B04D1FFF784FF034B01221A70FFF7CFFF00BF80BD00BFAC8DFF1F80B483B000AF0346FB71044AFB7913704D
:405A400000BF0C37BD4680BC704700BF0F4F004080B485B000AF0346FB80FB88FB81044AFB89138000BF1437BD4680BC704700BF104F004080B483B000AF0346FB80044A0B
:405A8000FB88138000BF0C37BD4680BC704700BF124F004080B400AF044B1B88044B1B889BB21846BD4680BC704700BF124F0040144F004080B500AF064B1B78002B04D145
:405AC00000F00AF8034B01221A7000F031F800BF80BD00BFAD8DFF1F80B500AF0D49022001F00CFC0721022001F02CFC0A4B00221A700A4B69221A70094B20221A70094BF6
:405B000006221A70084B47221A70084B00221A7000BF80BDD15E0000AE8DFF1F856500408864004020640040306400408664004080B582B000AF01F07BFE0346FB71114A42
:405B4000104B1B78DBB243F02003DBB213700E4A0D4B1B78DBB243F01003DBB213700B4B04221A600A4A0A4B1B78DBB243F01003DBB21370FB79184601F05EFE00BF0837EC
:405B8000BD4680BD956500409864004000E100E09664004080B582B000AF01F049FE0346FB71114A104B1B78DBB223F02003DBB213700E4A0D4B1B78DBB223F01003DBB292
:405BC00013700B4B04221A600A4A0A4B1B78DBB223F01003DBB21370FB79184601F02CFE00BF0837BD4680BD956500409864004080E100E09664004080B483B000AF0C4BA4
:405C00001B78DBB203F07F03FB710A4B1B78DBB2002B06D0FB7963F07F03FB71054B00221A70FB7918460C37BD4680BC704700BF68640040B28DFF1F80B483B000AF0023D0
:405C4000FB71224B04221A60214B1B78BB71214B1B787B71204B1B78DBB2002B03D1BA797B799A4217D0BB791C4AD35CFB71BB790133BB71BB791F2B01D90023BB71144A53
:405C8000BB791370144B1B78DBB2002B15D0124B00221A7011E0124B1B783B713B7903F02003002B09D00F4B1B78FB713B7903F01E03002B01D00023FB710B4B04221A6098
:405CC000FB7918460C37BD4680BC704780E100E0AF8DFF1FB08DFF1FB18DFF1F1099FF1F686400404364004000E100E080B483B000AF1D4B04221A601C4B1B78DAB21C4BC1
:405D00001B78DBB29A420AD11A4B1B78DBB2002B02D02023FB711DE00023FB711AE0134B1B78DAB2124B1B78DBB29A4208D2104B1B78DAB20D4B1B78DBB2D31AFB7109E0F1
:405D40000B4B1B78DAB2094B1B78DBB2D31ADBB22033FB71084B04221A60FB7918460C37BD4680BC704700BF80E100E0AF8DFF1FB08DFF1FB18DFF1F00E100E080B582B0CA
:405D800000AF01F055FD0346FB71154A144B1B78DBB243F00103DBB21370114A104B1B78DBB223F00103DBB21370FB79184601F043FD0C4B04221A600B4B00221A700B4BC8
:405DC00000221A700A4B00221A700A4B00221A70094B04221A6000BF0837BD4680BD00BF9364004080E100E0AF8DFF1FB08DFF1FB18DFF1FB28DFF1F00E100E080B400AF7A
:405E0000034B1B78DBB21846BD4680BC704700BF6664004080B483B000AF0346FB7100BF074B1B78DBB203F00403002BF8D1054AFB79137000BF0C37BD4680BC704700BFF0
:405E4000666400404564004080B584B000AF78600023FB810C4B1B78002B10D009E0FB897A6813441B781846FFF7D4FFFB890133FB81FB897A6813441B78002BEFD100BF1D
:405E80001037BD4680BD00BFAD8DFF1F80B582B000AF01F0CDFC0346FB710C4A0B4B1B78DBB243F00103DBB21370084A074B1B78DBB223F00103DBB21370FB79184601F0FE
:405EC000BBFC00BF0837BD4680BD00BF9564004080B483B000AF0023FB712B4B1B78BB71BB797B71BB7903F01E03002B0CD097F9063003F01E035AB2244B1B785BB2134321
:405F00005BB2DAB2214B1A70BB7903F02003002B30D01F4B1B787B711E4B1B78DBB219461D4A7B7953540123FB71FB79002B21D01A4B1B78DBB2002B02D0194B01221A70D7
:405F4000144B1B78DBB20133DAB2124B1A70114B1B78DBB21F2B02D90E4B00221A700D4B1B78DAB20F4B1B78DBB29A4202D10B4B01221A70BB7903F02003002BADD100BF00
:405F80000C37BD4680BC704768640040AE8DFF1F43640040B08DFF1F1099FF1FB18DFF1FB28DFF1FAF8DFF1F80B582B000AF786000F03CF8786800F009F8042000F018F820
:405FC00000F028F800BF0837BD4680BD80B485B000AF7860054B1B68FB60FB6844337A681A6000BF1437BD4680BC704708ED00E080B483B000AF0346FB71054AFB795B0140
:40600000DBB2137000BF0C37BD4680BC704700BF01E400E080B400AF034B02221A6000BFBD4680BC704700BF00E100E080B400AF034B02221A6000BFBD4680BC704700BF8D
:4060400080E100E080B500AF224A224B1B78DBB203F00103DBB213701F4A1F4B1B78DBB223F00303DBB213701C4A1C4B1B78DBB223F03003DBB21370184A184B1B78DBB2B7
:4060800043F03003DBB21370144A144B1B78DBB223F00F03DBB21370104A104B1B78DBB243F00F03DBB213700D4A0D4B1B78DBB243F00103DBB2137041F26F7000F058F8C6
:4060C00041F26F7000F066F8082000F041F800BF80BD00BF004F0040024F00400B4F0040014F004080B400AF0D4A0D4B1B78DBB243F00103DBB213700A4A0A4B1B78DBB228
:4061000043F00103DBB21370074A074B1B78DBB243F00103DBB2137000BFBD4680BC7047A3430040B3430040004F004080B500AF064B1B78002B04D1FFF784FF034B0122BC
:406140001A70FFF7CFFF00BF80BD00BFB48DFF1F80B483B000AF0346FB71044AFB79137000BF0C37BD4680BC704700BF034F004080B485B000AF0346FB80FB88FB81044A35
:40618000FB89138000BF1437BD4680BC704700BF044F004080B483B000AF0346FB80044AFB88138000BF0C37BD4680BC704700BF064F004080B582B000AF786000F03CF8DA
:4061C000786800F009F8072000F018F800F028F800BF0837BD4680BD80B485B000AF7860054B1B68FB60FB6840337A681A6000BF1437BD4680BC704708ED00E080B483B0CD
:4062000000AF0346FB71054AFB795B01DBB2137000BF0C37BD4680BC704700BF00E400E080B400AF034B01221A6000BFBD4680BC704700BF00E100E080B400AF034B0122F9
:406240001A6000BFBD4680BC704700BF80E100E080B500AF034B40221A7001F009F800BF80BD00BFFA46004080B483B000AF0346FB71044AFB79137000BF0C37BD4680BC53
:40628000704700BF7864004090B585B002AF0446084611461A462346FB710346BB710B46BB8013467B80104B0A221A700E4B1878BA79F97900230193002300930A2300F07F
:4062C0001DFE094B1B787A88B988184600F0BCFD054B1B780221184600F084FD024B1B7818460C37BD4690BDA081FF1F80B582B002AF324B01221A70314B00221A701020D3
:4063000000F0EEFB102000F0D1FC07211D2001F019F82C4B04221A702B4B00221A702B4B00221A702A4A2A4B1B78DBB243F01803DBB21370274B00221A70274B00221A7022
:40634000264B00221A70264B0A221A70254B00221A70254B00221A70244B12221A70244B13221A70234B00221A70234B14221A70012300930C234FF4004248F66B51022077
:4063800000F0B8F91D4A0D4B1B78DBB2013B1C499B000B449B7813701A4A084B1B78DBB2013B174931F823301380044B1B78DBB2184600F0EDF800BFBD4680BDA181FF1FD9
:4063C000B88DFF1F96580040975800409E580040075B004093580040885B0040895B004080580040815800408358004088580040895800408D580040014E00400E4E0040B6
:40640000BC8DFF1F0C4E004080B582B000AF01F00FFA0346FB71444B1B78BB71434A434B1B78DBB243F00103DBB213703F4A3F4B1B78DBB243F01003DBB213703C4A3C4B30
:406440001B78DBB243F00103DBB21370384A384B1B78DBB243F01003DBB21370354A354B1B78DBB243F00203DBB21370324A324B1B78DBB243F00203DBB213702F4A2F4B7F
:406480001B78DBB243F00303DBB21370032000F021FF284A274B1B78DBB223F00203DBB21370254A244B1B78DBB223F00203DBB21370234A224B1B78DBB243F00603DBB22B
:4064C0001370204B7A221A701F4A1F4B1B78DBB243F00103DBB213701C4A1C4B1B78DBB243F00103DBB21370194A194B1B78DBB243F00403DBB21370164A164B1B78DBB208
:4065000043F00403DBB21370134B4FF000521A60124B4FF000521A60FB79184601F08CF900BF0837BD4680BDA181FF1FAA430040BA430040F8460040F946004091580040EA
:406540007758004082580040A1430040B1430040A2430040B243004080E200E000E100E080B500AF084B1B78002B09D1074B1B78DBB2002B01D1FFF7B9FE034B01221A7057
:40658000FFF742FF00BF80BDBA8DFF1FBB8DFF1F80B582B000AF0346FB71384B00221A70FB79012B66D1364B32221A70354B06221A70354B08221A70344B00221A70344B9D
:4065C00000221A70334B1F221A70334B00221A70324B00221A70324B00221A70314B01221A70314B14221A70304B05221A70304B16221A702F4B00221A702F4B44221A70CC
:406600002E4B48221A702E4B01221A702D4B02221A702D4B22221A702C4B28221A702C4BEB221A70522000F01BF92A4B58221A70294B00221A70294B01221A70284B01223C
:406640001A70284B00221A70274B0A221A70002000F074F9254B40F233321A600121042000F080F90121152000F062FA20491D2000F044FE00BF0837BD4680BDB98DFF1F7F
:40668000004E0040024E0040034E0040044E0040054E0040064E0040084E0040094E00400A4E0040144E0040845800408558004086580040875800408A5800408B58004050
:4066C0008C5800408E5800408F580040905800409158004094580040955800409A5800409B5800409C5800409D5800403499FF1FDD68000090B486B000AF04460846114669
:406700001A462346FB710346BB800B467B801346BB7197F82030002B00F08A8097F82030012B00F28580FB79013B092B4AD801A252F823F05D670000C5670000C5670000A7
:406740005D670000C5670000C56700007767000091670000C5670000AB670000BB790F2B04D9364B1B78DBB2FB752EE0344B1B78DBB2FB7529E0BB790F2B04D9314B1B780D
:40678000DBB2FB7521E0304B1B78DBB2FB751CE0BB790F2B04D92D4B1B78DBB2FB7514E02B4B1B78DBB2FB750FE0BB790F2B04D9284B1B78DBB2FB7507E0274B1B78DBB2D1
:4067C000FB7502E00023FB7500BFBA8897F917305B0113443B617B883A6902FB03F3FB60FB68DB0BBB82BB790D2B12D8BA8ABB79C3F10E0342FA03F3BB8297F82030013BF6
:40680000BA790132D1B2154A9B0013440A469A7007E097F82030013B104A9B0013440F229A7097F82030013B0C49BA8A21F8232000BF1837BD4690BC704700BF18010049F6
:406840001C010049190100491D0100491A0100491E0100491B0100491F010049BC8DFF1F80B584B000AF0346FB7100F0E1FF0346FB73174A164B1B78DBB243F00303DBB2EB
:406880001370144A134B1B78DBB243F00303DBB21370114AFB791370032000F01BFD0C4A0B4B1B78DBB223F00303DBB21370094A084B1B78DBB223F00303DBB21370FB7B59
:4068C000184600F0B9FF00BF1037BD4680BD00BFF8460040F94600409258004080B400AF00BFBD4680BC704780B483B000AF0346FB71044AFB79137000BF0C37BD4680BC7D
:40690000704700BF7164004080B582B000AF0023FB7106E0FB791846FEF784FCFB790133FB71FB79012BF5D9034BFF221A7000BF0837BD4680BD00BFA281FF1F80B582B0DA
:4069400000AF0346FB71FFF7DFFFFB791846FEF749FC034AFB79137000BF0837BD4680BDA281FF1F80B584B000AF03460A46FB8013467B7100F0CEF80346FB7300F0A4F8A6
:406980000346BB81FA88BB899A4200F08880464B1B78DBB203F00403FB72FB7B002B20D1BB89002B02D0FB88002B1AD1BB89002B0BD13E4AFB8813803D4A3D4B1B78DBB21C
:4069C00023F04003DBB2137069E0394A384B1B78DBB243F04003DBB21370344AFB8813805DE0FB7A002B33D0324B00221A70324B04221A70314B00221A70314A304B1B78C1
:406A0000DBB203F07F03DBB21370294B1B78DBB203F00803002B02D0FB88002B18D1294ABB891380234B07221A7000BF214B1B78DBB203F00103002BF8D11B4A1A4B1B7820
:406A4000DBB223F00403DBB213701A4B00221A70154B1B78DBB203F00403002B13D0194AFB881380134A7B79002B01D0032300E00123137000BF0F4B1B78DBB203F0010323
:406A8000002BF8D10BE0094AFB8813800649064B1B78DAB2FB7A1343DBB20B70FFE700BF1037BD4680BD00BFA2430040884000408A40004001400040104000401440004035
:406AC000084000400240004080B400AF034B1B889BB21846BD4680BC704700BF8840004080B483B000AF0346FB710949084B1B78DBB25AB297F9073023F007035BB213436D
:406B00005BB2DBB20B7000BF0C37BD4680BC70478A40004080B400AF044B1B78DBB203F00703DBB21846BD4680BC70478A40004080B584B000AF03460A46FB8013467B7193
:406B400000F0CEF80346FB7300F0A4F80346BB81FA88BB899A4200F08880464B1B78DBB203F00103FB72FB7B002B20D1BB89002B02D0FB88002B1AD1BB89002B0BD13E4AA9
:406B8000FB8813803D4A3D4B1B78DBB223F04003DBB2137069E0394A384B1B78DBB243F04003DBB21370344AFB8813805DE0FB7A002B33D0324B00221A70324B01221A706E
:406BC000314B00221A70314A304B1B78DBB203F07F03DBB21370294B1B78DBB203F00803002B02D0FB88002B18D1294ABB891380234B07221A7000BF214B1B78DBB203F003
:406C00000103002BF8D11B4A1A4B1B78DBB223F00103DBB213701A4B00221A70154B1B78DBB203F00103002B13D0194AFB881380134A7B79002B01D0032300E00123137042
:406C400000BF0F4B1B78DBB203F00103002BF8D10BE0094AFB8813800649064B1B78DAB2FB7A1343DBB20B70FFE700BF1037BD4680BD00BFA14300400041004002410040F7
:406C8000014000401440004010400040084000400240004080B400AF034B1B889BB21846BD4680BC704700BF0041004080B483B000AF0346FB710949084B1B78DBB25AB2D4
:406CC00097F9073023F007035BB213435BB2DBB20B7000BF0C37BD4680BC70470241004080B400AF044B1B78DBB203F00703DBB21846BD4680BC70470241004080B483B0A3
:406D000000AF134B7F221A70124B80221A707F23FB710CE0FB79DB0003F1804303F5F043FA79013AD2B21A70FB79013BFB71FB79002BEFD1FB79DB0003F1804303F5F043FF
:406D400000221A7000BF0C37BD4680BC704700BFA581FF1FA481FF1F80B485B000AF03460A46FB711346BB710123FB60FB79172B2FD8BB79002B0ED0FB791A01184B1344C5
:406D8000FA791101164A0A441278D2B242F02002D2B21A700DE0FB791A01114B1344FA7911010F4A0A441278D2B222F02002D2B21A70FB791A010A4B1344FA791101084A73
:406DC0000A441278D2B242F00102D2B21A700023FB60FB6818461437BD4680BC704700BF1070004080B485B000AF03460A46FB711346BB710123FB60FB79172B1BD8FB79B7
:406E00001A01104B13441B78DBB223F00E03FB72FB791A010B4B1344BA795200D2B252B202F00E0251B297F90B200A4352B2D2B21A700023FB60FB6818461437BD4680BCA3
:406E4000704700BF1070004080B485B000AF0346FB710B46BB8013467B800123FB60BB8841F6FF72934202D14FF40053BB807B8841F6FF72934202D14FF400537B80FB79F4
:406E8000172B17D8FB79DB0003F1804303F5EC430433BB60BB68BA881A80FB79DB0003F1804303F5EC430633BB60BB687A881A800023FB60FB6818461437BD4680BC704763
:406EC00080B485B000AF03460A46FB711346BB710123FB60FB79172B07D8FB791A01064B1344BA795A720023FB60FB6818461437BD4680BC704700BF1070004090B484B02F
:406F000000AF0446084611461A462346FB710346BB710B467B7113463B710123FB60FB79172B34D8FB79DB0003F1804303F5EC43BA7902F07F02D1B27A79D201D2B20A4399
:406F4000D2B21A70FB79DB0003F1804303F5EC433A7E1201D1B23A7902F00F02D2B20A43D2B25A70FB79DB0003F1804303F5EC433A7F02F00F02D2B29A70FB79DB0003F1F9
:406F8000804303F5EC430022DA700023FB60FB6818461037BD4690BC704700BF80B582B000AFFF23FB7100F043FC0346BB71104B1B78182B12D90F4B1B78FB710C4B1B7889
:406FC000013BDAB20A4B1A70FB79DB0003F1804303F5F0431B78DAB2064B1A70BB79184600F02AFCFB7918460837BD4680BD00BFA481FF1FA581FF1F90B484B000AF04460F
:40700000084611461A462346FB710346BB800B46BB711346FB700123FB6097F90730002B23DBBB8823F47F6323F00F039BB2002B1BD1FB79DB0003F1804303F5F043BB6031
:40704000BB68BA881A80FB79DB0003F1804303F5F043BA799A70FB79DB0003F1804303F5F043FA78DA700023FB60FB6818461037BD4690BC704700BF80B485B000AF03460A
:40708000FB710B46BB8013467B800123FB6097F90730002B17DBFB79DB0003F1804303F5F0430433BB60BB68BA881A80FB79DB0003F1804303F5F0430633BB60BB687A88F5
:4070C0001A800023FB60FB6818461437BD4680BC704700BF80B582B000AF00F04BF94FF0FF337B6000F056FA0346002B24D1012000F01EFA0346072B1BD10221124800F07B
:407100005DF90346022B0DD100237B6002E0012000F0E0F80D4B1B78DBB203F00203002BF5D006E0094B1B78DBB203F00203002BE3D000F063FA01E004237B607B681846DB
:407140000837BD4680BD00BF3899FF1F2247004080B582B000AF00F00DF900F01BFA0346002B23D100F072FA78607B68072B1AD102E0012000F0AEF8104B1B78DBB203F085
:407180000203002BF5D00D4B1B78DBB203F00203002B08D0094B1B78DBB29B08DBB2002B01D100237B6000F029FA01E004237B607B6818460837BD4680BD00BF22470040AA
:4071C00080B582B000AFFFF7C3FF78607B68002B02D1FFF77FFF78607B6818460837BD4680BD00BF80B582B000AF00F021FB0346FB71194A184B1B78DBB243F00803DBB2B5
:407200001370164A154B1B78DBB243F00803DBB21370134BC8221A70124A124B1B78DBB243F01003DBB213700F4A0F4B1B78DBB243F01003DBB2137000BF0C4B1B78DBB23D
